:100000000C94E7030C940F040C940F040C940F044D
:100010000C940F040C940F040C940F040C940F0414
:100020000C940F040C940F040C94100A0C947F0A87
:100030000C940F040C940F040C940F040C940F04F4
:100040000C940F040C940F040C940F040C940F04E4
:100050000C940F040C940F040C940F040C94B10C2A
:100060000C940F040C940F040C940F040C940F04C4
:100070000C940F040C940F040C940F040C940F04B4
:100080000C940F040C940F040C940F040C940F04A4
:100090000C940F040C940F040C940F040C940F0494
:1000A0000C940F040C940F040C940F0400B0000087
:1000B000A170E150964F26900F1D070C0096690025
:1000C0004AE44A0048444000806810000F99FB8FC2
:1000D0009DBDBBFB77D4D4DF1F1A1AFE7F5D5DFF89
:1000E000805A0000A0A4AA0010BA3400FF5953F3AC
:1000F000FF9B9B9EFFB9B996FF9595D19FF4940FF6
:10010000FC295F91FF1838F8FF9294FFFF95D5F70F
:10011000BFB5DDD7F18F81F1F788C8F779C6467989
:1001200009FD9B090196F80082818280507162006E
:100130007756560076763700A2B77301077206002D
:100140007827500073347400775176007F55F7009C
:1001500047711000324772007364730015A2750076
:1001600061679400009F6060F4F2F6F20000000006
:10017000003E5B4F5B3E3E6B4F6B3E1C3E7C3E1C2D
:10018000183C7E3C181C577D571C1C5E7F5E1C0073
:10019000183C1800FFE7C3E7FF0018241800FFE72A
:1001A000DBE7FF30483A060E2629792926407F05ED
:1001B0000507407F05253F5A3CE73C5A7F3E1C1C03
:1001C00008081C1C3E7F14227F22145F5F005F5FC3
:1001D00006097F017F006689956A606060606094AF
:1001E000A2FFA29408047E040810207E20100808B4
:1001F0002A1C08081C2A08081E101010100C1E0CBF
:100200001E0C30383E3830060E3E0E060000000050
:100210000000005F00000007000700147F147F1437
:10022000242A7F2A1223130864623649562050007C
:1002300008070300001C2241000041221C002A1C68
:100240007F1C2A08083E0808008070300008080853
:100250000808000060600020100804023E51494573
:100260003E00427F400072494949462141494D3391
:100270001814127F1027454545393C4A49493141F8
:10028000211109073649494936464949291E0000C6
:10029000140000004034000000081422411414141B
:1002A0001414004122140802015909063E415D5907
:1002B0004E7C1211127C7F494949363E4141412210
:1002C0007F4141413E7F494949417F090909013E3A
:1002D000414151737F0808087F00417F4100204061
:1002E000413F017F081422417F404040407F021C73
:1002F000027F7F0408107F3E4141413E7F0909098A
:10030000063E4151215E7F09192946264949493255
:1003100003017F01033F4040403F1F2040201F3F1B
:100320004038403F631408146303047804036159A0
:10033000494D43007F4141410204081020004141E2
:10034000417F04020102044040404040000307088E
:100350000020545478407F2844443838444444288A
:10036000384444287F385454541800087E09021831
:10037000A4A49C787F0804047800447D40002040B9
:10038000403D007F1028440000417F40007C0478FD
:1003900004787C080404783844444438FC18242445
:1003A0001818242418FC7C080404084854545424C5
:1003B00004043F44243C4040207C1C2040201C3C42
:1003C0004030403C44281028444C9090907C446439
:1003D000544C4400083641000000770000004136CC
:1003E000080002010204023C2623263C1EA1A16152
:1003F000123A4040207A3854545559215555794184
:100400002154547841215554784020545579400C5A
:100410001E5272123955555559395454545939553B
:100420005454580000457C410002457D420001457E
:100430007C40F0292429F0F0282528F07C545545EB
:10044000002054547C547C0A097F4932494949327E
:100450003248484832324A4848303A4141217A3A93
:1004600042402078009DA0A07D39444444393D405D
:1004700040403D3C24FF2424487E4943662B2FFC0A
:100480002F2BFF0929F620C0887E090320545479B8
:10049000410000447D413048484A32384040227A89
:1004A000007A0A0A727D0D19317D2629292F282606
:1004B0002929292630484D4020380808080808080E
:1004C0000808382F10C8ACBA2F102834FA00007B67
:1004D000000008142A142222142A1408950022006D
:1004E00095AA005500AAAA55AA55AA000000FF0027
:1004F000101010FF00141414FF001010FF00FF1064
:1005000010F010F0141414FC001414F700FF000095
:10051000FF00FF1414F404FC141417101F10101F14
:10052000101F1414141F00101010F0000000001F02
:10053000101010101F10101010F010000000FF100D
:100540001010101010101010FF10000000FF140009
:1005500000FF00FF00001F10170000FC04F414143B
:100560001710171414F404F40000FF00F714141407
:1005700014141414F700F7141414171410101F1087
:100580001F141414F4141010F010F000001F101FAA
:100590000000001F14000000FC140000F010F01018
:1005A00010FF10FF141414FF141010101F0000008F
:1005B00000F010FFFFFFFFFFF0F0F0F0F0FFFFFF93
:1005C0000000000000FFFF0F0F0F0F0F38444438EA
:1005D000447C2A2A3E147E02020606027E027E0225
:1005E00063554941633844443C04407E201E200644
:1005F000027E020299A5E7A5991C2A492A1C4C7281
:1006000001724C304A4D4D303048784830BC625A07
:10061000463D3E494949007E0101017E2A2A2A2A97
:100620002A44445F444440514A444040444A514073
:100630000000FF0103E080FF000008086B6B083634
:1006400012362436060F090F0600001818000000A5
:100650001010003040FF0101001F01011E00191D94
:100660001712003C3C3C3C0000000000F0F89C8E5F
:100670008783878E9CF8F00000FEFF0303030303CB
:10068000070EFCF80000FEFF0303030303070EFC44
:10069000F80000FFFF00000000000000FFFF000066
:1006A000FEFF8383838383C7EE7C380000F8FC0E53
:1006B00007030303070EFCF800003F7FE0C08080C3
:1006C000C0E07F3FFFFF01010101010101FFFF00C9
:1006D00000FFFF0C0C0C0C1C3E77E3C100007FFFF9
:1006E000C0C0C0C0C0E0703F1F00001F3F70E0C02E
:1006F000C0C0E0703F1F00007FFFC1C1C1C1C1E3A6
:10070000773E1C00001F3F70E0C0C0C0E0703F1F7C
:10071000000000000001FFFF01000000D5F08D1473
:10072000A1C881CFD9F1AF200055502049532042B4
:1007300045494E472048454C4420444F574E0A00F7
:1007400055502057415320505245535345440A00B9
:10075000555020574153204C455420474F0A00081C
:100760000B00020202000009040000010202000066
:1007700005240010010524010101042402060524BA
:100780000600010705810310004009040100020A68
:100790000000000705020240000007058302400038
:1007A000000403090412010002EF02014041233654
:1007B0008000010102030141726475696E6F204C73
:1007C0004C430041726475626F7900002E0D112454
:1007D0001FBECFEFDAE0DEBFCDBF11E0A0E0B1E099
:1007E000ECE1FBE202C005900D92A43BB107D9F702
:1007F00026E0A4EBB1E001C01D92A338B207E1F7F7
:1008000013E0C7EED3E004C02197FE010E948615D5
:10081000C63ED107C9F70E94CC0D0C948C150C94E0
:100820000000409150065091510641155105E1F0EC
:1008300020915406309155066091520670915306EE
:100840002617370788F4B9016F5F7F4F70935506FD
:1008500060935406FC0180819181220F331F240F85
:10086000351FF90191838083089580E0EFE2F2E083
:1008700081118FEF0024819381938193819303945D
:10088000D1F70895EFE2F2E0A0E0B8E000800EBCFE
:100890008111012C1197A0FDFDCF0192B9F70DB484
:1008A0000895FC018091DE01882311F13FB7F8948F
:1008B00082E08093E9002091F200822F90E01816E8
:1008C000190614F481E090E0882339F0289844E672
:1008D0004093DD014091F1004083222339F02091C3
:1008E000F200211103C02BE62093E8003FBF0895DA
:1008F0008FEF9FEF08952FB7F89483E08093E9007E
:100900009091E800892F807295FF04C09091F200C9
:1009100080E4891B2FBF08958091D50181110DC0FE
:1009200082E08093D10184E08093D2011092D401BF
:100930001092D30181E08093D50181ED91E008957B
:10094000CF93DF931F92CDB7DEB76983DC01ED91C2
:10095000FC910280F381E02D41E050E0BE016F5F29
:100960007F4F09950F90DF91CF91089583E0809399
:10097000E9008091F200882319F08AE38093E8006F
:1009800008950E947B0490E00895CF93DF931F9217
:10099000CDB7DEB7FC018485958597FD08C02FEFA4
:1009A0003FEF358724870F90DF91CF910895CE01D7
:1009B00001960E945104019719F4898190E0F3CFC8
:1009C0008FEF9FEFF0CF0F931F93CF93DF931F9283
:1009D000CDB7DEB78C01FC018485958597FF0BC0F0
:1009E000CE0101960E945104019771F4898190E033
:1009F000F80195878487F801848595850F90DF91AC
:100A0000CF911F910F9108958FEF9FEFF1CFFC01D0
:100A10008485958597FD0BC09FB7F89482E08093FD
:100A2000E9008091F2009FBF90E0019608959FB782
:100A3000F89482E08093E9008091F2009FBF90E0FB
:100A400008954091CB015091CC012091C901309182
:100A5000CA0142175307B4F49091E8009570E1F38E
:100A60009091E80092FD19C08093F1008091CB0134
:100A70009091CC0101968F739927892B19F48EEFF1
:100A80008093E8008091CB019091CC0101969093E6
:100A9000CC018093CB0181E0089580E00895DF923E
:100AA000EF92FF920F931F93CF93DF93D82E8A017B
:100AB000EB017B01E40EF51ECE15DF0559F0D7FEE4
:100AC00012C0FE0184910E94210521968111F4CF6C
:100AD0000FEF1FEFC801DF91CF911F910F91FF9092
:100AE000EF90DF9008958881EECF0F931F93CF93FF
:100AF000DF931F92CDB7DEB782E0898342E450E0F6
:100B00006FE577E080E80E944F050E948C04DC01CD
:100B100012960D911C910115110589F0D801ED91E6
:100B2000FC910280F381E02DBE016F5F7F4FC80111
:100B3000099597FD04C0F80100851185ECCF8981E6
:100B40000F90DF91CF911F910F910895615030F078
:100B50002091F100FC0120830196F8CF289884E6CB
:100B60008093DD0108953FB7F8948091C50190917D
:100B7000C601A091C701B091C80126B5A89B05C0C8
:100B80002F3F19F00196A11DB11D3FBFBA2FA92F0C
:100B9000982F8827BC01CD01620F711D811D911D09
:100BA00042E0660F771F881F991F4A95D1F7089575
:100BB0008F929F92AF92BF92CF92DF92EF92FF926D
:100BC0006B017C010E94B3054B015C01C114D1048F
:100BD000E104F104B9F00E94B305681979098A09A2
:100BE0009B09683E73408105910580F321E0C21A9C
:100BF000D108E108F10888EE880E83E0981EA11C58
:100C0000B11CE4CFFF90EF90DF90CF90BF90AF90FA
:100C10009F908F9008958F929F92AF92BF92CF92A4
:100C2000DF92EF92FF920F931F93CF93DF936C01AC
:100C30007B018A0180910C01882309F45CC08091BA
:100C4000DE01882309F457C08091D00180FF05C0E0
:100C50008091E00082608093E000E801B12C8AEF8F
:100C6000A82E93E0892E2AE3922E209711F4BB2020
:100C7000D9F10E947B0481110AC0AA94AA20D9F15B
:100C800061E070E080E090E00E94D805EECF8C1724
:100C90001D0611F00CF08C2F9FB7F8948092E9009C
:100CA0002091E80025FD02C09FBFDFCF282F30E054
:100CB000C21BD30BF701815020F041914093F1000A
:100CC000FACFE20EF31EBB2021F09092E800B12C87
:100CD000EBCF8091E80085FDE7CF9092E800BB2440
:100CE000B394209709F3F3CF5D9884E68093CF0106
:100CF000101611063CF081E090E0F60193838283A8
:100D000010E000E0C801DF91CF911F910F91FF909B
:100D1000EF90DF90CF90BF90AF909F908F9008950D
:100D2000AF92BF92CF92DF92EF92FF920F931F93F9
:100D3000CF93DF936C017B018B01040F151FEB0137
:100D40005E01AE18BF08C017D10759F06991D601EE
:100D5000ED91FC910190F081E02DC6010995892B60
:100D600079F7C501DF91CF911F910F91FF90EF901F
:100D7000DF90CF90BF90AF9008952D9A0895BC0159
:100D800090E080E00C94D8058FB18095807F669BC1
:100D900088601C9B84600895CF93C82F0E94C4066E
:100DA000982F9C2381E09C1380E0CF91089580E0F0
:100DB0000C9442046F927F928F929F92AF92BF9257
:100DC000CF92DF92EF92FF920F931F93CF93DF9317
:100DD0004C017B01C22F102F98E0A92EB12C642E5C
:100DE000669466946694712CCA0187709927892B42
:100DF00079F5D40117962D913C91C7019927B90136
:100E00000E945E15269DF001279DF00D369DF00D88
:100E100011248E0F9F1FD4011596ED91FC91E80FC0
:100E2000F91F2081111112C0C095C223C083DF9128
:100E3000CF911F910F91FF90EF90DF90CF90BF90D7
:100E4000AF909F908F907F906F900895C22BEECFC0
:100E5000D0E04770C42ED12C83E0660C771C8A95B5
:100E6000E1F79E0101C0220F4A95EAF7012FA30185
:100E7000B701C4010E94DA06A301485F5F4FC501B4
:100E80008C199D0902C0D595C7958A95E2F7A7CF21
:100E90005F926F927F928F929F92AF92BF92CF920A
:100EA000DF92EF92FF920F931F93CF93DF93EC01AA
:100EB0006A30F1F48D859E859C878B878C892F8580
:100EC0003889820F932F911D988B8F8781E090E056
:100ED000DF91CF911F910F91FF90EF90DF90CF9016
:100EE000BF90AF909F908F907F906F905F9008958C
:100EF000AB84BC84693031F429E0A20EB11CBC86FD
:100F0000AB86E4CF3DEFA3163FEFB3060CF45DC014
:100F10008F819885A816B9060CF057C0CF84D88861
:100F20008DEFC8168FEFD8060CF44FC089859A85CF
:100F3000C816D9060CF049C0603208F46FE780EE9D
:100F4000860F9FE9960F9A3118F49FEFC91AD90AB4
:100F50008C3011F08B3119F42FEFC21AD20A86951A
:100F600034E0839FC00111249C0124553F4F790137
:100F7000912C812C162F1170F701E80DF91D54905A
:100F800011112DC0352D3F70532E3501680C791C81
:100F90008C81882361F001E089899A89892B09F085
:100FA00000E02FE0A601B301CE010E94DA06098914
:100FB000252DA601B301CE010E94DA068FEF881A13
:100FC000980A94E089169104B9F68B8990E004960A
:100FD0002B853C85820F931F9C878B8777CF5294FC
:100FE0008FE05822D2CF0F931F93CF93DF938C01C2
:100FF000D0E0C0E0F801EC0FFD1F6491662341F0E2
:101000008FE296E00E944807892B11F02196F2CFDB
:10101000CE01DF91CF911F910F910895089590E037
:1010200080E0089560E070E0CB0108950895089590
:10103000CF92DF92EF92FF920F931F93CF938C0189
:101040006A017B0126E636ED43E254E4CB01B601AA
:101050000E94E714F801C4811816C4F126E636EDA3
:1010600043E254ECC701B6010E94881387FD25C0F6
:1010700020E030E0A901C701B6010E94881387FF74
:101080002DC0F7FAF094F7F8F094CE7FF801C483FE
:1010900020E030E048EC52E4C701B6010E94EC14B5
:1010A0000E94FF13F80170876783CF911F910F9102
:1010B000FF90EF90DF90CF90089596E6C92E96EDC1
:1010C000D92E93E2E92E94ECF92EDBCF86E6C82EDA
:1010D00086EDD82E83E2E82E84E4F82EC160D6CFC8
:1010E000CF92DF92EF92FF920F931F93CF938C01D9
:1010F0006A017B0126E636ED43E254E4CB01B601FA
:101100000E94E714F801C4811816C4F126E636EDF2
:1011100043E254ECC701B6010E94881387FD25C045
:1011200020E030E0A901C701B6010E94881387FFC3
:101130002DC0F7FAF094F7F8F094CD7FF801C4834E
:1011400020E030E048EC52E4C701B6010E94EC1404
:101150000E94FF13F80176836583CF911F910F9151
:10116000FF90EF90DF90CF90089596E6C92E96ED10
:10117000D92E93E2E92E94ECF92EDBCF86E6C82E29
:1011800086EDD82E83E2E82E84E4F82EC260D6CF16
:101190000F931F93CF93DF93CDB7DEB729970FB689
:1011A000F894DEBF0FBECDBF81E191E09A838983C1
:1011B0001C821B8280EE8D8340E050E0BA018E01DC
:1011C0000F5F1F4FC8010E94700840E050E0BA0155
:1011D000C8010E941808B80181E090E029960FB676
:1011E000F894DEBF0FBECDBFDF91CF911F910F915D
:1011F00008950F931F93CF93DF93CDB7DEB7619719
:101200000FB6F894DEBF0FBECDBF81E191E09A83A7
:1012100089831C821B8280EE8D8340E050E0BA01FE
:101220008E010F5F1F4FC8010E94700840E050E020
:10123000BA01C8010E94180881E191E09A8389836C
:1012400088E08A8780E18B871C861D861C821B8232
:1012500040E050E0BA01C8010E94700840E050E050
:10126000BA01C8010E941808B80183E090E06196B5
:101270000FB6F894DEBF0FBECDBFDF91CF911F91A7
:101280000F910895CF93DF932091BF0127FF1FC0D7
:10129000EC016D817E8190E080E00E9435142C810C
:1012A00021FF13C020E030E048EC52E40E948D138F
:1012B00020E030E040E85FE30E941C13AB01BC017A
:1012C000CE01DF91CF910C9470089058EBCFDF9155
:1012D000CF910895FC0101900020E9F73197AF010B
:1012E000481B590BBC018FE296E00C9490068F923C
:1012F0009F92AF92BF920F931F93CF93DF93CDB77F
:10130000DEB7A1970FB6F894DEBF0FBECDBF19A20E
:10131000423008F44AE08E010F5D1F4F842E912C5D
:10132000B12CA12CA50194010E94F912E62FB9015C
:10133000CA01EA30F4F4E05DD801EE938D01232B6D
:10134000242B252B79F790E080E0109719F0CD0140
:101350000E946A09A1960FB6F894DEBF0FBECDBFFA
:10136000DF91CF911F910F91BF90AF909F908F9081
:101370000895E95CE1CF0F931F93CF93DF93CDB72F
:10138000DEB72D970FB6F894DEBF0FBECDBF81E15B
:1013900091E09A8389831C821B8280EE8D834AE9C7
:1013A00059E966E972E48E010F5F1F4FC8010E9480
:1013B000700840E050E0BA01C8010E94180881E1BD
:1013C00091E09A83898388E08A878B871C861D86B3
:1013D0001C821B824AE959E966E972E4C8010E944D
:1013E000700840E050E0BA01C8010E9418081D8250
:1013F00082E591E00E946A09B80182E090E02D96B2
:101400000FB6F894DEBF0FBECDBFDF91CF911F9115
:101410000F91089582E691E00C946A090C94E3120E
:101420001F920F920FB60F9211248F939F9380916A
:10143000E1009091E100937F9093E10083FF0FC062
:101440001092E90091E09093EB001092EC0092E38F
:101450009093ED001092DE0198E09093F00082FFEF
:1014600022C093E09093E9009091F200992319F043
:101470009AE39093E8009091CF01992341F09091E5
:10148000CF0191509093CF01911101C05D9A90913D
:10149000DD01992341F09091DD0191509093DD01A0
:1014A000911101C0289A84FF18C08091E2008E7EBD
:1014B00081608093E2008091E1008F7E8093E10063
:1014C0008091D0018E7E80618093D0019F918F9119
:1014D0000F900FBE0F901F90189580FFF7CF80914F
:1014E000E2008E7E80618093E2008091E1008E7E3A
:1014F0008093E1008091D0018E7E8160E5CF1F92C4
:101500000F920FB60F921124CF92DF92EF92FF92BB
:101510000F931F932F933F934F935F936F937F93FB
:101520008F939F93AF93BF93EF93FF93CF93DF93EB
:10153000CDB7DEB76C97DEBFCDBF1092E9008091CA
:10154000E80083FF25C068E0CE0145960E94A6050D
:1015500082EF8093E8008D8987FF39C09091E80081
:1015600090FFFCCF982F907609F034C19E894F8967
:10157000588D2F89F88C911131C0803861F5809198
:10158000CE018093F1001092F1008EEF8093E8007D
:101590006C960FB6F894DEBF0FBECDBFDF91CF9132
:1015A000FF91EF91BF91AF919F918F917F916F913B
:1015B0005F914F913F912F911F910F91FF90EF906D
:1015C000DF90CF900F900FBE0F901F9018959EEF59
:1015D0009093E800C7CF1092F100D5CF913059F425
:1015E0008111D3CF4130510581F68091CE018D7F9D
:1015F0008093CE01CACF933049F48111C6CF4130D8
:10160000510519F68091CE018260F2CF953041F4F8
:101610008091E80080FFFCCF20682093E300B5CFE5
:10162000963009F0A9C00B8D1C8D22E01092E900C4
:101630001092CC011092CB01F2122EC01092CA016E
:101640001092C9010E9475051F8299E09983FA8260
:1016500091E09E8390EA98879AEF99872091CB0139
:101660003091CC01275F3F4F3C832B838D831092B9
:10167000E9001092CC011092CB011093CA010093A3
:10168000C90149E050E0BE016F5F7F4F80E00E94DA
:101690004F050E94750579CF1093CA010093C901C7
:1016A0000E948C04DC0112960D911C91011511050C
:1016B00009F451C1D801ED91FC910480F581E02D30
:1016C000BE016B5E7F4FC8010995009709F03EC1CE
:1016D000F80100851185EACFF3E0FF120EC08F8973
:1016E000882309F440C0823061F440E867E083EC6D
:1016F00097E00E94FB0C811148CF81E28093EB00C0
:1017000047CF813029F440E86BE087EB97E0F1CFD9
:10171000833099F70E948C04DC011296ED90FC90C6
:101720008E010F5F1F4F6801E114F10479F0D701BA
:10173000ED91FC910680F781E02DB801C701099574
:10174000080F111DF701E084F184EECFD8011C923F
:10175000F60101900020E9F73197BF016C197D096E
:1017600040E0C601C6CF61EA77E0FB01449150E05A
:1017700080E80E944F0509CF973009F4BECF98301A
:1017800021F481E08093F10000CF993009F0FDCE83
:10179000837009F0B2CFEEE2F1E081E031E096E350
:1017A0002191222371F08093E9003093EB00DF0157
:1017B00011972C912093EC009093ED008F5F873070
:1017C00079F78EE78093EA001092EA008F89809380
:1017D000DE01DBCE8B8D9C8D1092E9001092CC0146
:1017E0001092CB019093CA018093C901898D811118
:1017F00092C08E899D89913A49F4813209F07DCF5A
:1018000047E050E065E071E080E0B3CF913209F04D
:1018100074CF833269F48F89988DB0E0A0E0809313
:10182000010190930201A0930301B0930401ADCE96
:10183000803269F48091E80082FFFCCF67E085E0A8
:1018400091E00E94A6058BEF8093E8009ECE823245
:1018500009F09BCE8F8980930C01EEEFFFE7859115
:1018600094918B3F9C4D51F1E0E0F8E080910501AF
:1018700090910601A0910701B0910801803B94402E
:10188000A105B105F1F480910C0180FD1AC0EE3F75
:101890008AE0F80789F587E797E79183808380914D
:1018A00060008093CD0188E19BE00FB6F894A89585
:1018B000809360000FBE9093600067CEEEEFFAE079
:1018C000D5CF808191818737974709F05ECEA89563
:1018D000809160008861809360008091CD01809349
:1018E0006000EE3F2AE0F20789F08091FE0A9091B5
:1018F000FF0A9183808349CE808191818737980741
:1019000051F29093FF0A8093FE0AC5CF1092FF0A0E
:101910001092FE0A3ACE0E948C04DC0112960D91C0
:101920001C910115110509F4E8CED801ED91FC9147
:101930000190F081E02DBE016B5E7F4FC8010995DB
:10194000811123CEF80100851185EBCF18161906F9
:101950000CF41BCED2CEF1E0FF12BECE65EA77E0EA
:1019600004CF1F920F920FB60F9211242F933F9323
:101970008F939F93AF93BF938091C1019091C201C8
:10198000A091C301B091C4013091C00123E0230FA5
:101990002D3758F50196A11DB11D2093C0018093EC
:1019A000C1019093C201A093C301B093C40180917F
:1019B000C5019091C601A091C701B091C8010196DF
:1019C000A11DB11D8093C5019093C601A093C701CD
:1019D000B093C801BF91AF919F918F913F912F918B
:1019E0000F900FBE0F901F90189526E8230F0296B8
:1019F000A11DB11DD2CFEF92FF920F931F93CF93F2
:101A0000DF93F82E192FE62E042F81E0860F880F22
:101A10000E94210583E00E942105CF2DD12FEC0EDD
:101A2000FD2EF11CCE15DF05B9F007FF13C0FE0136
:101A300084910E942105182F80E00E9421058123B6
:101A400021968111EFCFDF91CF911F910F91FF90E0
:101A5000EF9008958881EDCF81E0F5CFEF92FF926E
:101A60001F93CF93DF931092E2011092E10188EE71
:101A700093E0A0E0B0E08093E3019093E401A093B1
:101A8000E501B093E60188E391E09093E001809353
:101A9000DF018FEF9FEF9093EC018093EB011092A9
:101AA0003206109231068AE491E0909330068093DA
:101AB0002F068FE292E0909335068093340680E8FB
:101AC00090E0909337068093360680E490E0909300
:101AD00039068093380685E08093430681E0809341
:101AE000420610923D0610923C0610923F0610925C
:101AF0003E0610923B0610923A0681E090E09093E9
:101B00004106809340061092330610924B061092C5
:101B10004A0610924D0610924C0610924F061092F3
:101B20004E061092450610924406109247061092F7
:101B300046061092490610924806109251061092DD
:101B400050061092530610925206109255061092AB
:101B50005406C6E5D6E081E1E82E81E0F82E10EECD
:101B6000F982E8821B821A821C8340E050E0BA01AD
:101B7000CE010E94700840E050E0BA01CE010E9400
:101B80001808299686E0C338D80751F7DF91CF911E
:101B90001F91FF90EF900895CF93DF93CDB7DEB7FD
:101BA00028970FB6F894DEBF0FBECDBF789484B5EA
:101BB000826084BD84B5816084BD85B5826085BD49
:101BC00085B5816085BD80916E00816080936E00D7
:101BD00010928100809181008260809381008091C9
:101BE000810081608093810080918000816080937A
:101BF000800080919100826080939100809191009B
:101C0000816080939100809190008160809390002A
:101C10008091C10084608093C1008091C100826086
:101C20008093C1008091C10081608093C100809148
:101C3000C30081608093C3008091C0008260809364
:101C4000C0008091C20081608093C20080917A00C0
:101C5000846080937A0080917A00826080937A0019
:101C600080917A00816080937A0080917A00806808
:101C700080937A001092DE011092CE011092D00172
:101C80008091D70081608093D70080EA8093D8004C
:101C900089B5806189BD89B5826089BD09B400FEBE
:101CA000FDCF61E070E080E090E00E94D805809177
:101CB000D8008F7C80618093D8008091E000807F85
:101CC0008093E0008091E1008E7E8093E1008DE0C2
:101CD0008093E200559A209A81EC80937C0085B134
:101CE000806F85B984B1877E84B984B1876E84B9E9
:101CF0005E9A5F988AB1806D8AB9769A6E9881B340
:101D0000806F81BB899880B38D7080BB80E58CBD6E
:101D100081E08DBD85E090E00E94BF065F9A85E07E
:101D200090E00E94BF065E985C98ECE1F7E0849139
:101D30008EBD00000DB407FEFDCF319627E0E932DD
:101D4000F207A9F75C9A81E88093640080916500AE
:101D50008160809365000E94D70680E80E94CC06CF
:101D60008823B1F15C9885EA8EBD00000DB407FEB2
:101D7000FDCF5C9A2E982F982D98809164008062F8
:101D80008093640081E083BF889513BEFCCF0E94DE
:101D9000BD0688EC90E00E94BF062F9882E090E09C
:101DA0000E94E3128F3F29F06FEF82E090E00E94E3
:101DB000EB1284EF91E00E94BF062F9A84E80E9404
:101DC000CC068111FBCF0FC088EC90E00E94BF06CB
:101DD00084E00E94CC06882341F12D9884E80E947B
:101DE000CC068111D4CF84E10E94CC06882361F314
:101DF0000E94BD0688EC90E00E94BF062E9882E00B
:101E000090E00E94E312882329F060E082E090E0F5
:101E10000E94EB1284EF91E00E94BF062E9A84E1AB
:101E20000E94CC068111FBCFCFCF0E94BD0682E07D
:101E300090E00E940E0A882309F458C03E9A3F9A07
:101E400081E090E00E940E0A482F4470542E81FFDA
:101E500014C041112E9801EF1FEFB8E0AB2EB12C4A
:101E60008CE6E82EF12C80E40E94CC06882309F44D
:101E700040C02E9A2F9A0E94BD0682E390E00E94F5
:101E8000BF060E94C4068111F8CF0E94350410924B
:101E9000BA011092B9011092BC011092BB0188EEF8
:101EA0008093000185E791E00E946A0920914E0627
:101EB00030914F06E0914A06F0914B0690E080E0A9
:101EC0002817390709F03FC120914806309149068B
:101ED000E0914406F091450690E080E0281739072C
:101EE00009F435C1119211920196F8CF3E983F98AE
:101EF000A7CF552029F00430110511F42E9A2F9800
:101F000081E00E944204980117FF04C02227332772
:101F1000201B310B27703327C80117FD0796A3E05C
:101F200095958795AA95E1F717FF05C00197D5010B
:101F3000A21BB30B9D01BC017695762F6627779582
:101F40006795615D7D4FB0E0A0E01501221A330A6C
:101F50008E3FEFEF9E0709F061C00196A85ABF4F70
:101F600060587F4FA03BB10599F70E94D7068FE0DC
:101F700090E00E94BF060F5F1F4F0931110509F065
:101F800072CF552011F02F9A2D9880E991E00E9490
:101F9000BF060E94BD0681E090E00E940E0A80FF0D
:101FA0006CCF8AE090E00E940E0A9FEF980F9E3F50
:101FB00008F063CF22E330E03093BC012093BB01F3
:101FC00028E330E03093BA012093B9010BE010E030
:101FD00075E0E72EE0E1FE2E8D3089F04091B901E9
:101FE0005091BA018A3009F060C01092BC01109281
:101FF000BB01485F5F4F5093BA014093B901C801DC
:102000000E940E0A0F5F1F4F0131110529F70E9430
:10201000D70688EE93E00E94BF062FCF48E550E038
:10202000FD01EC53F94F4F013B01F0E86F0E711CBD
:102030008F3F9807C9F0F401E41BF50B449067014A
:10204000C41AD50AC60ED71EE42DF0E0022E02C037
:10205000EE0FFF1F0A94E2F7FE83ED83F601408046
:10206000FD814F2AF601408221153105C9F0F401A6
:10207000E41BF50B44906701C41AD50AC60CD71CA3
:10208000E42DF0E0022C02C0F595E7950A94E2F702
:10209000FE83ED83F6014080FD814F2AF6014082E8
:1020A0004150510909F0C4CF58CF2090BB01309066
:1020B000BC018E9DF0011124E459FE4FB101B12CF9
:1020C00025E0A12CB21621F0CF010196A490FC01CD
:1020D000D12CC12C8A2D8170982E60387105D0F4D6
:1020E000CA018C0D9D1D80349105A0F421E081FD75
:1020F00024E080FD220F82FD2295887FF89ED0018A
:102100001124A60F822EA15DBD4F8C919920C1F0A4
:10211000822B8C93A6948FEFC81AD80A98E0C91620
:10212000D104C1F6B3946F5F7F4FA6E0BA12C8CF57
:1021300091012A5F3F4F3093BC012093BB015FCFD9
:1021400080948821E6CF119211920196B9CEE9E2EE
:10215000F1E0FE83ED83812C912C540124013501A3
:1021600062E0262E312C20FC0DC020E030E040E85B
:1021700050E4C301B2010E941C132B013C01812CCD
:10218000912C5401AD81BE81ED91BE83AD83F0E011
:10219000EE0FFF1FE15EFE4F0190F081E02D0995EB
:1021A0006B017C01B501A401C6010E947008B30156
:1021B000A201C6010E941808B2E0EB16F10409F46E
:1021C0004CC0E3E0EE16F10409F478C0EA94EF287D
:1021D00071F4DC82CB82D601ED91FC910190F0810B
:1021E000E02DC6010995CE0103960E94110420E05E
:1021F00030E040E850E4C501B4010E941C134B01DB
:102200005C01FFEF2F1A3F0A26E02216310409F085
:10221000AACF85E090E0A0E0B0E08D839E83AF83FD
:10222000B88780E0282E80E0382E8FB7F894409150
:10223000C1015091C2016091C3017091C4018FBF6F
:102240008091B601882309F463C01092B60121146D
:10225000310459F30E940000E8CFD601ED91FC91C2
:102260000190F081E02DC6010995DA82C982CE0184
:1022700001960E94110420914406309145062115D3
:10228000310509F4B4CF80914806909149064091F8
:102290004606509147068417950708F0A8CFAC0171
:1022A0004F5F5F4F5093490640934806880F991F30
:1022B000820F931FFC01D182C08299CFD601ED918C
:1022C000FC910190F081E02DC6010995DA82C98266
:1022D000CE0101960E94110420914A0630914B06CE
:1022E0002115310509F483CF80914E0690914F0658
:1022F00040914C0650914D068417950708F077CF12
:10230000AC014F5F5F4F50934F0640934E06CECFC8
:102310008091B701942F981B892F90910001891704
:1023200048F48F5F891708F092CFA1E0A3BF88958A
:1023300013BE8DCFB1E0B093B6014093B701809149
:10234000B4019091B50101969093B5018093B401C9
:102350000E94C4068093B80180E80E94CC0610E079
:10236000811110E880E10E94CC068111106480E2A6
:102370000E94CC068111106280E40E94CC0681117B
:10238000106184E00E94CC068111186088E00E94F0
:10239000CC06811114600091BF01F12EF094F0225F
:1023A000F092BD01009501230093BE011093BF017F
:1023B0000E9435041092BA011092B9011092BC012A
:1023C0001092BB0110923D0610923C0610923B0603
:1023D00010923A0610923F0610923E0680E597E072
:1023E000F7FC08C080E497E007FD04C017FF04C0B5
:1023F00089E297E00E94F30780E991E00E946A0970
:102400004AE06D817E818F8198850E94770906E57B
:1024100016E0812C912C5401809154069091550620
:102420008816990608F0CCC08CE991E00E946A09F0
:102430004AE0C501B4010E94770984EA91E00E9454
:102440006A09F80184816581768190E081FF21C06D
:1024500080E00E94351420E030E048EC52E40E9415
:102460008D136B017C01AC019B010E9459158823DF
:10247000A9F088EA91E00E946A0983E791E00E944E
:102480006A09075F1F4FFFEF8F1A9F0AAF0ABF0A43
:10249000C3CF80E00E9435149058DDCF260137016C
:1024A000E89477F82FEF3FEF4FE75FE7C301B20102
:1024B0000E94591581110DC02FEF3FEF4FE75FE7E5
:1024C000C301B2010E94881318161CF48CEA91E033
:1024D000D2CF2FEF3FEF4FE75FE4C701B6010E9475
:1024E000E71418161CF480EB91E0C5CF2FEF3FEFF7
:1024F0004FE75FECC701B6010E94881387FDF3CF59
:1025000020E030E0A901C701B6010E94881387FFCF
:1025100009C06DE28FE296E00E944807F7FAF09456
:10252000F7F8F0942AE037ED43EA5BE3C701B60120
:102530000E941C132B013C010E9406146B017C01BC
:102540000E9435149B01AC01C301B2010E941B1310
:102550002B013C014AE0C701B6010E9477096EE2F7
:102560008FE296E00E94480720E030E040E251E42C
:10257000C301B2010E94EC142B013C010E9406141D
:102580006B01F12CE12C4AE0C701B6010E947709EA
:10259000C701B6010E9435149B01AC01C301B20111
:1025A0000E941B1320E030E040E251E40E94EC1452
:1025B0000E94061490E080E04AE00E9477095DCF17
:1025C0000E94D70644CEF999FECF92BD81BDF89AFC
:1025D000992780B50895262FF999FECF1FBA92BD8D
:1025E00081BD20BD0FB6F894FA9AF99A0FBE0196F4
:1025F0000895A1E21A2EAA1BBB1BFD010DC0AA1F44
:10260000BB1FEE1FFF1FA217B307E407F50720F05B
:10261000A21BB30BE40BF50B661F771F881F991FD6
:102620001A9469F760957095809590959B01AC011F
:10263000BD01CF0108955058BB27AA270E9433132C
:102640000C94AD140E949F1438F00E94A61420F040
:1026500039F49F3F19F426F40C949C140EF4E09581
:10266000E7FB0C949614E92F0E94BE1458F3BA1796
:10267000620773078407950720F079F4A6F50C9498
:10268000E0140EF4E0950B2EBA2FA02D0B01B9012A
:1026900090010C01CA01A0011124FF27591B99F0D8
:1026A000593F50F4503E68F11A16F040A22F232FE4
:1026B000342F4427585FF3CF469537952795A79534
:1026C000F0405395C9F77EF41F16BA0B620B730BDB
:1026D000840BBAF09150A1F0FF0FBB1F661F771F4C
:1026E000881FC2F70EC0BA0F621F731F841F48F401
:1026F000879577956795B795F7959E3F08F0B0CF8A
:102700009395880F08F09927EE0F97958795089570
:102710000E94721408F481E008950E94A1130C94A1
:10272000AD140E94A61458F00E949F1440F029F4A2
:102730005F3F29F00C94961451110C94E1140C9401
:102740009C140E94BE1468F39923B1F3552391F3AE
:10275000951B550BBB27AA2762177307840738F010
:102760009F5F5F4F220F331F441FAA1FA9F335D06D
:102770000E2E3AF0E0E832D091505040E695001C21
:10278000CAF72BD0FE2F29D0660F771F881FBB1FDB
:10279000261737074807AB07B0E809F0BB0B802DB9
:1027A000BF01FF2793585F4F3AF09E3F510578F0E5
:1027B0000C9496140C94E1145F3FE4F3983ED4F328
:1027C000869577956795B795F7959F5FC9F7880FB9
:1027D000911D9695879597F90895E1E0660F771F0B
:1027E000881FBB1F621773078407BA0720F0621B9C
:1027F000730B840BBA0BEE1F88F7E09508950E94C7
:1028000006146894B1110C94E11408950E94C61442
:1028100088F09F5798F0B92F9927B751B0F0E1F0A1
:10282000660F771F881F991F1AF0BA95C9F714C051
:10283000B13091F00E94E014B1E008950C94E014DE
:10284000672F782F8827B85F39F0B93FCCF386958A
:1028500077956795B395D9F73EF4909580957095E7
:1028600061957F4F8F4F9F4F0895E89409C097FB64
:102870003EF490958095709561957F4F8F4F9F4F57
:102880009923A9F0F92F96E9BB279395F69587959B
:1028900077956795B795F111F8CFFAF4BB0F11F45E
:1028A00060FF1BC06F5F7F4F8F4F9F4F16C0882305
:1028B00011F096E911C0772321F09EE8872F762F3B
:1028C00005C0662371F096E8862F70E060E02AF07C
:1028D0009A95660F771F881FDAF7880F9695879568
:1028E00097F90895990F0008550FAA0BE0E8FEEF3D
:1028F00016161706E807F907C0F012161306E407C4
:10290000F50798F0621B730B840B950B39F40A26BC
:1029100061F0232B242B252B21F408950A2609F49A
:10292000A140A6958FEF811D811D089597F99F679E
:1029300080E870E060E008959FEF80EC0895002447
:102940000A941616170618060906089500240A9414
:1029500012161306140605060895092E0394000C9A
:1029600011F4882352F0BB0F40F4BF2B11F460FF29
:1029700004C06F5F7F4F8F4F9F4F089557FD905852
:10298000440F551F59F05F3F71F04795880F97FB33
:10299000991F61F09F3F79F08795089512161306ED
:1029A0001406551FF2CF4695F1DF08C0161617061C
:1029B0001806991FF1CF8695710561050894089551
:1029C000E894BB2766277727CB0197F908950E94E3
:1029D000721408F48FEF08950E94FF140C94AD1444
:1029E0000E949F1438F00E94A61420F0952311F045
:1029F0000C9496140C949C1411240C94E1140E94D1
:102A0000BE1470F3959FC1F3950F50E0551F629F60
:102A1000F001729FBB27F00DB11D639FAA27F00D37
:102A2000B11DAA1F649F6627B00DA11D661F829F5E
:102A30002227B00DA11D621F739FB00DA11D621F43
:102A4000839FA00D611D221F749F3327A00D611D60
:102A5000231F849F600D211D822F762F6A2F112442
:102A60009F5750409AF0F1F088234AF0EE0FFF1F75
:102A7000BB1F661F771F881F91505040A9F79E3FCC
:102A8000510580F00C9496140C94E1145F3FE4F32C
:102A9000983ED4F3869577956795B795F795E79522
:102AA0009F5FC1F7FE2B880F911D9695879597F92B
:102AB00008950E947214880B990B089597FB072EB6
:102AC00016F4009407D077FD09D00E94721507FC18
:102AD00005D03EF4909581959F4F0895709561952E
:102AE0007F4F0895AA1BBB1B51E107C0AA1FBB1F44
:102AF000A617B70710F0A61BB70B881F991F5A958A
:102B0000A9F780959095BC01CD010895EE0FFF1FA8
:0C2B10000590F491E02D0994F894FFCF9B
:102B1C0010FFFFFFFF00E1000000000000000000BC
:102B2C00000A0A4209170816081608160816081291
:102B3C0008BB09F908C80802020201020100C180A1
:102B4C008100000000000000A0040B06C104B604C4
:102B5C000705C504E30400000000480790060F08B1
:102B6C000E084D616B696E67206120627269636B40
:102B7C000A00496D61676520697320737461727412
:102B8C00696E670A0047616D65576F726C642069E6
:102B9C007320696E697469616C697A696E670A0081
:102BAC0054656D702073697A653A20004F626A65CE
:102BBC0063742000783A20006E616E00696E6600C6
:042BCC006F766600BA
:00000001FF
