:100000000C94EF030C9417040C9417040C9417042D
:100010000C9417040C9417040C9417040C941704F4
:100020000C9417040C9417040C94230A0C94920A51
:100030000C9417040C9417040C9417040C941704D4
:100040000C9417040C9417040C9417040C941704C4
:100050000C9417040C9417040C9417040C94C40CFF
:100060000C9417040C9417040C9417040C941704A4
:100070000C9417040C9417040C9417040C94170494
:100080000C9417040C9417040C9417040C94170484
:100090000C9417040C9417040C9417040C94170474
:1000A0000C9417040C9417040C94170400B000006F
:1000B000A170E150964F26900F1D070C0096690025
:1000C0004AE44A0048444000806810000F99FB8FC2
:1000D0009DBDBBFB77D4D4DF1F1A1AFE7F5D5DFF89
:1000E000805A0000A0A4AA0010BA3400FF5953F3AC
:1000F000FF9B9B9EFFB9B996FF9595D19FF4940FF6
:10010000FC295F91FF1838F8FF9294FFFF95D5F70F
:10011000BFB5DDD7F18F81F1F788C8F779C6467989
:1001200009FD9B090196F80082818280507162006E
:100130007756560076763700A2B77301077206002D
:100140007827500073347400775176007F55F7009C
:1001500047711000324772007364730015A2750076
:1001600061679400009F6060F4F2F6F20000000006
:10017000003E5B4F5B3E3E6B4F6B3E1C3E7C3E1C2D
:10018000183C7E3C181C577D571C1C5E7F5E1C0073
:10019000183C1800FFE7C3E7FF0018241800FFE72A
:1001A000DBE7FF30483A060E2629792926407F05ED
:1001B0000507407F05253F5A3CE73C5A7F3E1C1C03
:1001C00008081C1C3E7F14227F22145F5F005F5FC3
:1001D00006097F017F006689956A606060606094AF
:1001E000A2FFA29408047E040810207E20100808B4
:1001F0002A1C08081C2A08081E101010100C1E0CBF
:100200001E0C30383E3830060E3E0E060000000050
:100210000000005F00000007000700147F147F1437
:10022000242A7F2A1223130864623649562050007C
:1002300008070300001C2241000041221C002A1C68
:100240007F1C2A08083E0808008070300008080853
:100250000808000060600020100804023E51494573
:100260003E00427F400072494949462141494D3391
:100270001814127F1027454545393C4A49493141F8
:10028000211109073649494936464949291E0000C6
:10029000140000004034000000081422411414141B
:1002A0001414004122140802015909063E415D5907
:1002B0004E7C1211127C7F494949363E4141412210
:1002C0007F4141413E7F494949417F090909013E3A
:1002D000414151737F0808087F00417F4100204061
:1002E000413F017F081422417F404040407F021C73
:1002F000027F7F0408107F3E4141413E7F0909098A
:10030000063E4151215E7F09192946264949493255
:1003100003017F01033F4040403F1F2040201F3F1B
:100320004038403F631408146303047804036159A0
:10033000494D43007F4141410204081020004141E2
:10034000417F04020102044040404040000307088E
:100350000020545478407F2844443838444444288A
:10036000384444287F385454541800087E09021831
:10037000A4A49C787F0804047800447D40002040B9
:10038000403D007F1028440000417F40007C0478FD
:1003900004787C080404783844444438FC18242445
:1003A0001818242418FC7C080404084854545424C5
:1003B00004043F44243C4040207C1C2040201C3C42
:1003C0004030403C44281028444C9090907C446439
:1003D000544C4400083641000000770000004136CC
:1003E000080002010204023C2623263C1EA1A16152
:1003F000123A4040207A3854545559215555794184
:100400002154547841215554784020545579400C5A
:100410001E5272123955555559395454545939553B
:100420005454580000457C410002457D420001457E
:100430007C40F0292429F0F0282528F07C545545EB
:10044000002054547C547C0A097F4932494949327E
:100450003248484832324A4848303A4141217A3A93
:1004600042402078009DA0A07D39444444393D405D
:1004700040403D3C24FF2424487E4943662B2FFC0A
:100480002F2BFF0929F620C0887E090320545479B8
:10049000410000447D413048484A32384040227A89
:1004A000007A0A0A727D0D19317D2629292F282606
:1004B0002929292630484D4020380808080808080E
:1004C0000808382F10C8ACBA2F102834FA00007B67
:1004D000000008142A142222142A1408950022006D
:1004E00095AA005500AAAA55AA55AA000000FF0027
:1004F000101010FF00141414FF001010FF00FF1064
:1005000010F010F0141414FC001414F700FF000095
:10051000FF00FF1414F404FC141417101F10101F14
:10052000101F1414141F00101010F0000000001F02
:10053000101010101F10101010F010000000FF100D
:100540001010101010101010FF10000000FF140009
:1005500000FF00FF00001F10170000FC04F414143B
:100560001710171414F404F40000FF00F714141407
:1005700014141414F700F7141414171410101F1087
:100580001F141414F4141010F010F000001F101FAA
:100590000000001F14000000FC140000F010F01018
:1005A00010FF10FF141414FF141010101F0000008F
:1005B00000F010FFFFFFFFFFF0F0F0F0F0FFFFFF93
:1005C0000000000000FFFF0F0F0F0F0F38444438EA
:1005D000447C2A2A3E147E02020606027E027E0225
:1005E00063554941633844443C04407E201E200644
:1005F000027E020299A5E7A5991C2A492A1C4C7281
:1006000001724C304A4D4D303048784830BC625A07
:10061000463D3E494949007E0101017E2A2A2A2A97
:100620002A44445F444440514A444040444A514073
:100630000000FF0103E080FF000008086B6B083634
:1006400012362436060F090F0600001818000000A5
:100650001010003040FF0101001F01011E00191D94
:100660001712003C3C3C3C0000000000F0F89C8E5F
:100670008783878E9CF8F00000FEFF0303030303CB
:10068000070EFCF80000FEFF0303030303070EFC44
:10069000F80000FFFF00000000000000FFFF000066
:1006A000FEFF8383838383C7EE7C380000F8FC0E53
:1006B00007030303070EFCF800003F7FE0C08080C3
:1006C000C0E07F3FFFFF01010101010101FFFF00C9
:1006D00000FFFF0C0C0C0C1C3E77E3C100007FFFF9
:1006E000C0C0C0C0C0E0703F1F00001F3F70E0C02E
:1006F000C0C0E0703F1F00007FFFC1C1C1C1C1E3A6
:10070000773E1C00001F3F70E0C0C0C0E0703F1F7C
:10071000000000000001FFFF01000000D5F08D1473
:10072000A1C881CFD9F1AF2000496D672078207032
:100730006F736974696F6E3A0A00555020495320EF
:100740004245494E472048454C4420444F574E0AA5
:100750000055502057415320505245535345440AA9
:1007600000555020574153204C455420474F0A0014
:10077000080B00020202000009040000010202004E
:1007800000052400100105240101010424020605CE
:10079000240600010705810310004009040100023E
:1007A0000A0000000705020240000007058302401E
:1007B00000000403090412010002EF02014041237A
:1007C000368000010102030141726475696E6F2079
:1007D0004C4C430041726475626F7900410D1124E5
:1007E0001FBECFEFDAE0DEBFCDBF11E0A0E0B1E089
:1007F000E8ECF9E202C005900D92A635B107D9F7F1
:1008000026E0A6E5B1E001C01D92A030B207E1F7F5
:1008100013E0CFEED3E004C02197FE010E94B7138E
:10082000CE3ED107C9F70E94990D0C94E2140C94A6
:100830000000E3EEF1E0A0E0B8E000800EBC811122
:10084000012C1197A0FDFDCF0192B9F70DB40895C9
:10085000FC0180918001882311F13FB7F89482E078
:100860008093E9002091F200822F90E0181619067B
:1008700014F481E090E0882339F0289844E640930E
:100880007F014091F1004083222339F02091F20052
:10089000211103C02BE62093E8003FBF08958FEF9E
:1008A0009FEF08952FB7F89483E08093E90090912B
:1008B000E800892F807295FF04C09091F20080E4D7
:1008C000891B2FBF08958091770181110DC082E0AF
:1008D0008093730184E080937401109276011092EA
:1008E000750181E08093770183E791E00895CF93CC
:1008F000DF931F92CDB7DEB76983DC01ED91FC91E8
:100900000280F381E02D41E050E0BE016F5F7F4F38
:1009100009950F90DF91CF91089583E08093E900CE
:100920008091F200882319F08AE38093E80008950B
:100930000E94520490E00895CF93DF931F92CDB7A9
:10094000DEB7FC018485958597FD08C02FEF3FEF4A
:10095000358724870F90DF91CF910895CE010196BE
:100960000E942804019719F4898190E0F3CF8FEF5A
:100970009FEFF0CF0F931F93CF93DF931F92CDB7CD
:10098000DEB78C01FC018485958597FF0BC0CE01F5
:1009900001960E942804019771F4898190E0F80182
:1009A00095878487F801848595850F90DF91CF9195
:1009B0001F910F9108958FEF9FEFF1CFFC01848578
:1009C000958597FD0BC09FB7F89482E08093E9006E
:1009D0008091F2009FBF90E0019608959FB7F89430
:1009E00082E08093E9008091F2009FBF90E008953B
:1009F00040916D0150916E0120916B0130916C011D
:100A000042175307B4F49091E8009570E1F3909188
:100A1000E80092FD19C08093F10080916D019091E2
:100A20006E0101968F739927892B19F48EEF8093AD
:100A3000E80080916D0190916E01019690936E0196
:100A400080936D0181E0089580E00895DF92EF9238
:100A5000FF920F931F93CF93DF93D82E8A01EB0160
:100A60007B01E40EF51ECE15DF0559F0D7FE12C04E
:100A7000FE0184910E94F80421968111F4CF0FEFBA
:100A80001FEFC801DF91CF911F910F91FF90EF9061
:100A9000DF9008958881EECF0F931F93CF93DF935C
:100AA0001F92CDB7DEB782E0898342E450E060E771
:100AB00077E080E80E9426050E946304DC0112961C
:100AC0000D911C910115110589F0D801ED91FC9152
:100AD0000280F381E02DBE016F5F7F4FC801099551
:100AE00097FD04C0F80100851185ECCF89810F9036
:100AF000DF91CF911F910F910895615030F02091B7
:100B0000F100FC0120830196F8CF289884E68093B9
:100B10007F0108953FB7F894809167019091680133
:100B2000A0916901B0916A0126B5A89B05C02F3F2D
:100B300019F00196A11DB11D3FBFBA2FA92F982F03
:100B40008827BC01CD01620F711D811D911D42E0FE
:100B5000660F771F881F991F4A95D1F708958F92C6
:100B60009F92AF92BF92CF92DF92EF92FF926B0172
:100B70007C010E948A054B015C01C114D104E1048F
:100B8000F104B9F00E948A05681979098A099B095C
:100B9000683E73408105910580F321E0C21AD108B7
:100BA000E108F10888EE880E83E0981EA11CB11CB4
:100BB000E4CFFF90EF90DF90CF90BF90AF909F90E9
:100BC0008F9008958F929F92AF92BF92CF92DF92B3
:100BD000EF92FF920F931F93CF93DF936C017B01F2
:100BE0008A0180910C01882309F45CC08091800106
:100BF000882309F457C08091720180FF05C080915D
:100C0000E00082608093E000E801B12C8AEFA82E1A
:100C100093E0892E2AE3922E209711F4BB20D9F17C
:100C20000E94520481110AC0AA94AA20D9F161E05D
:100C300070E080E090E00E94AF05EECF8C171D06BB
:100C400011F00CF08C2F9FB7F8948092E90020915E
:100C5000E80025FD02C09FBFDFCF282F30E0C21B78
:100C6000D30BF701815020F041914093F100FACF6E
:100C7000E20EF31EBB2021F09092E800B12CEBCFE6
:100C80008091E80085FDE7CF9092E800BB24B39403
:100C9000209709F3F3CF5D9884E6809371011016D5
:100CA00011063CF081E090E0F6019383828310E02E
:100CB00000E0C801DF91CF911F910F91FF90EF905D
:100CC000DF90CF90BF90AF909F908F900895AF929C
:100CD000BF92CF92DF92EF92FF920F931F93CF9329
:100CE000DF936C017B018B01040F151FEB015E018B
:100CF000AE18BF08C017D10759F06991D601ED9120
:100D0000FC910190F081E02DC6010995892B79F7BE
:100D1000C501DF91CF911F910F91FF90EF90DF9070
:100D2000CF90BF90AF9008952D9A0895BC0190E0A8
:100D300080E00C94AF058FB18095807F669B8860C2
:100D40001C9B8460089580E0E3EEF1E081118FEF59
:100D5000002481938193819381930394D1F710921E
:100D60005B0110925A0110925D0110925C0108958E
:100D7000AF92BF92CF92DF92EF92FF920F931F93A9
:100D8000CF93DF936D3079F0C0915A01D0915B0120
:100D90006A30B1F410925D0110925C012896D093F4
:100DA0005B01C0935A0181E090E0DF91CF911F91E8
:100DB0000F91FF90EF90DF90CF90BF90AF9008958C
:100DC00040915C0150915D0185E0689FF001112424
:100DD000E459FE4F9A01C12C80E1E82EA5E070E0B5
:100DE000CA1621F0CF0101967491FC0110E000E0D9
:100DF000B72FB170DB2E20383105D0F4CE01800F33
:100E0000911F80349105A0F461E081FD64E080FDD4
:100E1000660F82FD6295887FE89ED0011124A20FA3
:100E2000F62EAD51BE4F8C91DD20A9F0862B8C9310
:100E300076950F5F1F4F08301105D1F6C3942F5FD1
:100E40003F4F86E0C812CACF4A5F5F4F50935D01A3
:100E500040935C01A8CFF0948F21E9CFCF93C82FA6
:100E60000E949B06982F9C2381E09C1380E0CF91E9
:100E7000089580E00C9419046F927F928F929F9254
:100E8000AF92BF92CF92DF92EF92FF920F931F9398
:100E9000CF93DF934C017B01C22F102F98E0A92E36
:100EA000B12C642E669466946694712CCA01877086
:100EB0009927892B79F5D40117962D913C91C7017B
:100EC0009927B9010E948F13269DF001279DF00DEF
:100ED000369DF00D11248E0F9F1FD4011596ED91B4
:100EE000FC91E80FF91F2081111112C0C095C22397
:100EF000C083DF91CF911F910F91FF90EF90DF9012
:100F0000CF90BF90AF909F908F907F906F900895FB
:100F1000C22BEECFD0E04770C42ED12C83E0660CFC
:100F2000771C8A95E1F79E0101C0220F4A95EAF7E6
:100F3000012FA301B701C4010E943C07A301485F30
:100F40005F4FC5018C199D0902C0D595C7958A953B
:100F5000E2F7A7CF5F926F927F928F929F92AF92AC
:100F6000BF92CF92DF92EF92FF920F931F93CF9396
:100F7000DF93EC016A30F1F48D859E859C878B8729
:100F80008C892F853889820F932F911D988B8F879D
:100F900081E090E0DF91CF911F910F91FF90EF9052
:100FA000DF90CF90BF90AF909F908F907F906F9089
:100FB0005F900895AB84BC84693031F429E0A20EBF
:100FC000B11CBC86AB86E4CF3DEFA3163FEFB30662
:100FD0000CF45DC08F819885A816B9060CF057C037
:100FE000CF84D8888DEFC8168FEFD8060CF44FC089
:100FF00089859A85C816D9060CF049C0603208F474
:101000006FE780EE860F9FE9960F9A3118F49FEFF5
:10101000C91AD90A8C3011F08B3119F42FEFC21A8A
:10102000D20A869534E0839FC00111249C01245587
:101030003F4F7901912C812C162F1170F701E80D8B
:10104000F91D549011112DC0352D3F70532E3501CF
:10105000680C791C8C81882361F001E089899A8968
:10106000892B09F000E02FE0A601B301CE010E9418
:101070003C070989252DA601B301CE010E943C073A
:101080008FEF881A980A94E089169104B9F68B8933
:1010900090E004962B853C85820F931F9C878B875D
:1010A00077CF52948FE05822D2CF0F931F93CF93D4
:1010B000DF938C01D0E0C0E0F801EC0FFD1F6491DC
:1010C000662341F083EE95E00E94AA07892B11F078
:1010D0002196F2CFCE01DF91CF911F910F9108950C
:1010E00008950895CF92DF92EF92FF920F931F938E
:1010F000CF938C016A017B0126E636ED43E254E48E
:10110000CB01B6010E941D13F801C4811816C4F169
:1011100026E636ED43E254ECC701B6010E94BE114B
:1011200087FD25C020E030E0A901C701B6010E947B
:10113000BE1187FF2DC0F7FAF094F7F8F094CE7F38
:10114000F801C48320E030E048EC52E4C701B60166
:101150000E9422130E943512F80170876783CF9195
:101160001F910F91FF90EF90DF90CF90089596E63A
:10117000C92E96EDD92E93E2E92E94ECF92EDBCF11
:1011800086E6C82E86EDD82E83E2E82E84E4F82E7B
:10119000C160D6CFCF92DF92EF92FF920F931F9351
:1011A000CF938C016A017B0126E636ED43E254E4DD
:1011B000CB01B6010E941D13F801C4811816C4F1B9
:1011C00026E636ED43E254ECC701B6010E94BE119B
:1011D00087FD25C020E030E0A901C701B6010E94CB
:1011E000BE1187FF2DC0F7FAF094F7F8F094CD7F89
:1011F000F801C48320E030E048EC52E4C701B601B6
:101200000E9422130E943512F80176836583CF91E4
:101210001F910F91FF90EF90DF90CF90089596E689
:10122000C92E96EDD92E93E2E92E94ECF92EDBCF60
:1012300086E6C82E86EDD82E83E2E82E84E4F82ECA
:10124000C260D6CFCF93DF932091600127FF1FC0EC
:10125000EC016D817E8190E080E00E946B122C8118
:1012600021FF13C020E030E048EC52E40E94C3119B
:1012700020E030E040E85FE30E945211AB01BC0186
:10128000CE01DF91CF910C94CA089058EBCFDF913B
:10129000CF910895CF93DF93EC0187E191E099839B
:1012A00088831B821A8280EE8C8340E050E0BA0172
:1012B000CE010E94CA0840E050E0BA01CE01DF91A1
:1012C000CF910C947208CF93DF93EC01E881F98100
:1012D0000190F081E02D09952091DD013091DE0132
:1012E00021153105C9F08091E1019091E201409111
:1012F000DF015091E0018417950770F4AC014F5F56
:101300005F4F5093E2014093E101880F991F820FD4
:10131000931FFC01D183C0832091D7013091D80164
:1013200021153105C9F08091DB019091DC014091DC
:10133000D9015091DA018417950770F4AC014F5F21
:101340005F4F5093DC014093DB01880F991F820FA0
:10135000931FFC01D183C083DF91CF910895CF9378
:10136000DF93EC010E944A0987E191E09983888329
:1013700019861A861B861C86DF91CF910895CF931C
:10138000DF93EC010E94AF0987E191E099838883A4
:101390001E861D86188A1F86DF91CF9108950895B5
:1013A00090E080E008958F929F92AF92BF920F934A
:1013B0001F93CF93DF93CDB7DEB7A1970FB6F89405
:1013C000DEBF0FBECDBF19A2423008F44AE08E0145
:1013D0000F5D1F4F842E912CB12CA12CA5019401DF
:1013E0000E942F11E62FB901CA01EA3044F5E05DF1
:1013F000D801EE938D01232B242B252B79F790E038
:1014000080E0109769F0FD0101900020E9F7319725
:10141000AF014A1B5B0BBD0183EE95E00E9467069E
:10142000A1960FB6F894DEBF0FBECDBFDF91CF916E
:101430001F910F91BF90AF909F908F900895E95C9E
:10144000D7CF0C9419111F920F920FB60F9211243F
:101450008F939F938091E1009091E100937F90930F
:10146000E10083FF0FC01092E90091E09093EB0040
:101470001092EC0092E39093ED001092800198E0BE
:101480009093F00082FF22C093E09093E900909146
:10149000F200992319F09AE39093E800909171017A
:1014A000992341F0909171019150909371019111A4
:1014B00001C05D9A90917F01992341F090917F0145
:1014C000915090937F01911101C0289A84FF18C018
:1014D0008091E2008E7E81608093E2008091E10045
:1014E0008F7E8093E100809172018E7E8061809377
:1014F00072019F918F910F900FBE0F901F901895C2
:1015000080FFF7CF8091E2008E7E80618093E200C1
:101510008091E1008E7E8093E100809172018E7E49
:101520008160E5CF1F920F920FB60F921124CF92D8
:10153000DF92EF92FF920F931F932F933F934F935E
:101540005F936F937F938F939F93AF93BF93EF932B
:10155000FF93CF93DF93CDB7DEB76C97DEBFCDBFE0
:101560001092E9008091E80083FF25C068E0CE0179
:1015700045960E947D0582EF8093E8008D8987FF64
:1015800039C09091E80090FFFCCF982F907609F039
:1015900034C19E894F89588D2F89F88C911131C0A3
:1015A000803861F5809170018093F1001092F10014
:1015B0008EEF8093E8006C960FB6F894DEBF0FBEF6
:1015C000CDBFDF91CF91FF91EF91BF91AF919F91EF
:1015D0008F917F916F915F914F913F912F911F91CB
:1015E0000F91FF90EF90DF90CF900F900FBE0F9074
:1015F0001F9018959EEF9093E800C7CF1092F100CE
:10160000D5CF913059F48111D3CF4130510581F6B6
:10161000809170018D7F80937001CACF933049F41F
:101620008111C6CF4130510519F680917001826059
:10163000F2CF953041F48091E80080FFFCCF206824
:101640002093E300B5CF963009F0A9C00B8D1C8D17
:1016500022E01092E90010926E0110926D01F212D8
:101660002EC010926C0110926B010E944C051F82DB
:1016700099E09983FA8291E09E8390EA98879AEFA5
:10168000998720916D0130916E01275F3F4F3C8318
:101690002B838D831092E90010926E0110926D01E0
:1016A00010936C0100936B0149E050E0BE016F5F45
:1016B0007F4F80E00E9426050E944C0579CF109351
:1016C0006C0100936B010E946304DC0112960D9182
:1016D0001C910115110509F451C1D801ED91FC913E
:1016E0000480F581E02DBE016B5E7F4FC801099536
:1016F000009709F03EC1F80100851185EACFF3E0BB
:10170000FF120EC08F89882309F440C0823061F433
:1017100040E867E084ED97E00E940E0D811148CF0C
:1017200081E28093EB0047CF813029F440E86BE001
:1017300088EC97E0F1CF833099F70E946304DC01D5
:101740001296ED90FC908E010F5F1F4F6801E1141F
:10175000F10479F0D701ED91FC910680F781E02D3D
:10176000B801C7010995080F111DF701E084F18444
:10177000EECFD8011C92F60101900020E9F73197D5
:10178000BF016C197D0940E0C601C6CF62EB77E06E
:10179000FB01449150E080E80E94260509CF973074
:1017A00009F4BECF983021F481E08093F10000CF9E
:1017B000993009F0FDCE837009F0B2CFE6E2F1E096
:1017C00081E031E096E32191222371F08093E900DA
:1017D0003093EB00DF0111972C912093EC00909354
:1017E000ED008F5F873079F78EE78093EA001092E3
:1017F000EA008F8980938001DBCE8B8D9C8D1092C7
:10180000E90010926E0110926D0190936C0180932B
:101810006B01898D811192C08E899D89913A49F41D
:10182000813209F07DCF47E050E065E071E080E073
:10183000B3CF913209F074CF833269F48F89988DD8
:10184000B0E0A0E08093010190930201A093030116
:10185000B0930401ADCE803269F48091E80082FF3C
:10186000FCCF67E085E091E00E947D058BEF8093DF
:10187000E8009ECE823209F09BCE8F8980930C01C6
:10188000EEEFFFE7859194918B3F9C4D51F1E0E0A5
:10189000F8E08091050190910601A0910701B091B7
:1018A0000801803B9440A105B105F1F480910C0141
:1018B00080FD1AC0EE3F8AE0F80789F587E797E7D1
:1018C000918380838091600080936F0188E19BE029
:1018D0000FB6F894A895809360000FBE90936000B7
:1018E00067CEEEEFFAE0D5CF8081918187379747B9
:1018F00009F05ECEA89580916000886180936000B9
:1019000080916F0180936000EE3F2AE0F20789F03A
:101910008091FE0A9091FF0A9183808349CE808155
:1019200091818737980751F29093FF0A8093FE0ABE
:10193000C5CF1092FF0A1092FE0A3ACE0E946304AD
:10194000DC0112960D911C910115110509F4E8CEE8
:10195000D801ED91FC910190F081E02DBE016B5E0C
:101960007F4FC8010995811123CEF80100851185AB
:10197000EBCF181619060CF41BCED2CEF1E0FF12F5
:10198000BECE66EB77E004CF1F920F920FB60F9298
:1019900011242F933F938F939F93AF93BF93809185
:1019A000630190916401A0916501B091660130914D
:1019B000620123E0230F2D3758F50196A11DB11DBB
:1019C000209362018093630190936401A093650169
:1019D000B09366018091670190916801A0916901BF
:1019E000B0916A010196A11DB11D8093670190938A
:1019F0006801A0936901B0936A01BF91AF919F9173
:101A00008F913F912F910F900FBE0F901F901895BF
:101A100026E8230F0296A11DB11DD2CFEF92FF92AF
:101A20000F931F93CF93DF93F82E192FE62E042FD9
:101A300081E0860F880F0E94F80483E00E94F8047A
:101A4000CF2DD12FEC0EFD2EF11CCE15DF05B9F0F8
:101A500007FF13C0FE0184910E94F804182F80E054
:101A60000E94F804812321968111EFCFDF91CF915D
:101A70001F910F91FF90EF9008958881EDCF81E045
:101A8000F5CFE1E8F1E01382128288EE93E0A0E066
:101A9000B0E084839583A683B78380E391E091834C
:101AA00080838FEF9FEF95878487E7EDF1E01182C8
:101AB00010821382128215821482E1EDF1E011820C
:101AC00010821382128215821482EDEDF1E01182F0
:101AD00010821382128215821482E8EFF5E01382DD
:101AE00012828EE491E091838083E3EEF5E013822D
:101AF000128282E491E09183808383EE91E0968369
:101B0000858380E890E09087878380E490E09287E7
:101B1000818785E0848B81E0838B16861586108A09
:101B200017861486138681E090E0928B818B148255
:101B30000895CF93DF93CDB7DEB7C054D1090FB668
:101B4000F894DEBF0FBECDBF789484B5826084BDAB
:101B500084B5816084BD85B5826085BD85B58160B1
:101B600085BD80916E00816080936E00109281002F
:101B700080918100826080938100809181008160EA
:101B800080938100809180008160809380008091AB
:101B90009100826080939100809191008160809398
:101BA0009100809190008160809390008091C100AD
:101BB00084608093C1008091C10082608093C100E5
:101BC0008091C10081608093C1008091C3008160D9
:101BD0008093C3008091C00082608093C000809198
:101BE000C20081608093C20080917A0084608093FB
:101BF0007A0080917A00826080937A0080917A00E6
:101C0000816080937A0080917A00806880937A0066
:101C10001092800110927001109272018091D70091
:101C200081608093D70080EA8093D80089B5806175
:101C300089BD89B5826089BD09B400FEFDCF61E030
:101C400070E080E090E00E94AF058091D8008F7C2A
:101C500080618093D8008091E000807F8093E000D5
:101C60008091E1008E7E8093E1008DE08093E20020
:101C7000559A209A81EC80937C0085B1806F85B95C
:101C800084B1877E84B984B1876E84B95E9A5F9887
:101C90008AB1806D8AB9769A6E9881B3806F81BB64
:101CA000899880B38D7080BB80E58CBD81E08DBD4F
:101CB00085E090E00E9496065F9A85E090E00E94A1
:101CC00096065E985C98ECE1F7E089E297E0249153
:101CD0002EBD00000DB407FEFDCF31968E179F0775
:101CE000B1F75C9A81E8809364008091650081601F
:101CF000809365000E94390780E80E942E078823A0
:101D0000A9F05C9885EA8EBD00000DB407FEFDCFFA
:101D10005C9A2E982F982D98809164008062809311
:101D2000640081E083BF889513BEFCCF84E00E94ED
:101D30002E07882309F448C02D9884E80E942E07B6
:101D40008823E1F00E94940688EC90E00E949606B9
:101D50002F9882E090E00E9419118F3F29F06FEFD9
:101D600082E090E00E94211184EF91E00E949606AB
:101D70002F9A84E80E942E078111FBCF84E10E94F4
:101D80002E078823E1F00E94940688EC90E00E94E0
:101D900096062E9882E090E00E941911882329F07F
:101DA00060E082E090E00E94211184EF91E00E94C7
:101DB00096062E9A84E10E942E078111FBCF88ECB3
:101DC00090E00E949606B2CF0E94940682E090E0D6
:101DD0000E94210A882309F44EC03E9A3F9A81E06E
:101DE00090E00E94210A482F4470742E81FF12C097
:101DF00041112E9801EF1FEF68E0E62EF12C78E5F7
:101E0000672E80E40E942E078823C1F12E9A2F9A14
:101E10000E94940682E390E00E9496060E949B0630
:101E20008111F8CF0E94A30688EE80930001CE01B5
:101E3000C4960E94AF092091DB013091DC01E09152
:101E4000D701F091D80190E080E02817390709F018
:101E5000D8C02091D5013091D601E091D101F09107
:101E6000D20190E080E02817390709F4CEC0119222
:101E700011920196F8CF3E983F98B1CF772029F084
:101E80000430110511F42E9A2F9881E00E94190454
:101E9000980117FF04C022273327201B310B27701E
:101EA0003327C80117FD079653E0959587955A95F6
:101EB000E1F717FF05C00197F701E21BF30B9F0144
:101EC000BC017695762F6627779567956D517E4F85
:101ED000B0E0A0E02701421A530A8E3FFFEF9F07B0
:101EE00009F43FC06A9E50016B9EB00C112450E073
:101EF00040E0F501E459F94F5F014B01F0E88F0E26
:101F0000911C8F3F980791F0F501E40FF51FE491C4
:101F10006B01C40ED51EF0E01F01022E01C0220C81
:101F20000A94EAF7F60134882328248A211531051A
:101F300099F0F501E40FF51FE4916401C40ED51E7C
:101F4000F0E01F01042C02C0359427940A94E2F7B4
:101F5000F60134882328248A4F5F5F4F48355105A6
:101F600081F6019660587F4F119709F047C00E9493
:101F700039078FE090E00E9496060F5F1F4F0931EE
:101F8000110509F03ECF772011F02F9A2D9880E9A6
:101F900091E00E9496060E94940681E090E00E94E3
:101FA000210A80FF37CF8AE090E00E94210A9FEF4C
:101FB000980F9E3F08F02ECF22E330E030935D0172
:101FC00020935C0128E330E030935B0120935A01B9
:101FD0000BE010E0682F88EF95E00E94B806C8017A
:101FE0000E94210A0F5F1F4F0131110599F70E94CE
:101FF000390788EE93E00E9496060CCFA1E0B0E08E
:102000006CCF11921192019620CF81E190E00E9455
:10201000BD137C010E94BF0940E050E068EC71E410
:10202000C7010E94CA0881E190E00E94BD138C01A3
:102030000E94BF0940E050E068E971E4C8010E94D5
:10204000CA08CE0183960E94BF09CE0142960E9423
:10205000BF09CE0101960E94BF09C7010E94630912
:10206000C8010E946309CE0183960E946309CE01D4
:1020700042960E946309CE0101960E94630940E0E6
:1020800050E060E771E4C7010E94720840E050E050
:1020900068EC71E4C8010E94720840E050E06CE016
:1020A00072E4CE0183960E94720840E050E064E33F
:1020B00072E4CE0142960E94720840E050E06CE566
:1020C00072E4CE0101960E9472088824839480E015
:1020D000A82E80E0B82E7724739494E0E92EF12C9A
:1020E00029E0C22ED12C8FB7F89440916301509112
:1020F000640160916501709166018FBF8091580104
:10210000882341F010925801A114B10461F30E9498
:102110000000E9CF80915901F42FF81B8F2F909187
:102120000001F91738F48F5F891770F783BE88951F
:1021300013BEEACF70925801409359018091560125
:1021400090915701019690935701809356010E94F8
:102150009B068093610180E80E942E0710E08111A8
:1021600010E880E10E942E078111106480E20E9435
:102170002E078111106280E40E942E0781111061E8
:1021800084E00E942E078111186088E00E942E07CB
:102190008111146000916001912E90949022909290
:1021A0005F010095012300935E01109360010E947E
:1021B000A306F092F105E092F005F092EF05E092AF
:1021C000EE05D092F305C092F205F0925D01E09227
:1021D0005C01D0925B01C0925A0181E697E097FCC6
:1021E00008C081E597E007FD04C017FF04C08AE33B
:1021F00097E00E945508CE0183960E944A09CE01BD
:1022000042960E94AF09CE0101960E94BF09CE01FD
:1022100083960E94220989E297E00E9455084AE0CD
:1022200061E170E080E090E00E94D3090E943907EC
:102230006BCFF999FECF92BD81BDF89A992780B5F1
:102240000895262FF999FECF1FBA92BD81BD20BDFA
:102250000FB6F894FA9AF99A0FBE01960895A1E282
:102260001A2EAA1BBB1BFD010DC0AA1FBB1FEE1F10
:10227000FF1FA217B307E407F50720F0A21BB30B5B
:10228000E40BF50B661F771F881F991F1A9469F7D7
:1022900060957095809590959B01AC01BD01CF0133
:1022A00008955058BB27AA270E9469110C94E31285
:1022B0000E94D51238F00E94DC1220F039F49F3FC2
:1022C00019F426F40C94D2120EF4E095E7FB0C946A
:1022D000CC12E92F0E94F41258F3BA176207730761
:1022E0008407950720F079F4A6F50C9416130EF4E4
:1022F000E0950B2EBA2FA02D0B01B90190010C0116
:10230000CA01A0011124FF27591B99F0593F50F42D
:10231000503E68F11A16F040A22F232F342F442785
:10232000585FF3CF469537952795A795F04053957D
:10233000C9F77EF41F16BA0B620B730B840BBAF04D
:102340009150A1F0FF0FBB1F661F771F881FC2F7B8
:102350000EC0BA0F621F731F841F48F487957795CC
:102360006795B795F7959E3F08F0B0CF9395880F86
:1023700008F09927EE0F9795879508950E94A81267
:1023800008F481E008950E94D7110C94E3120E9492
:10239000DC1258F00E94D51240F029F45F3F29F07A
:1023A0000C94CC1251110C9417130C94D2120E945D
:1023B000F41268F39923B1F3552391F3951B550B50
:1023C000BB27AA2762177307840738F09F5F5F4F08
:1023D000220F331F441FAA1FA9F335D00E2E3AF047
:1023E000E0E832D091505040E695001CCAF72BD05F
:1023F000FE2F29D0660F771F881FBB1F26173707B0
:102400004807AB07B0E809F0BB0B802DBF01FF27E1
:1024100093585F4F3AF09E3F510578F00C94CC12E0
:102420000C9417135F3FE4F3983ED4F386957795A9
:102430006795B795F7959F5FC9F7880F911D96959A
:10244000879597F90895E1E0660F771F881FBB1FF6
:10245000621773078407BA0720F0621B730B840BA3
:10246000BA0BEE1F88F7E09508950E943C1268941D
:10247000B1110C94171308950E94FC1288F09F5715
:1024800098F0B92F9927B751B0F0E1F0660F771F98
:10249000881F991F1AF0BA95C9F714C0B13091F08E
:1024A0000E941613B1E008950C941613672F782F2D
:1024B0008827B85F39F0B93FCCF386957795679553
:1024C000B395D9F73EF490958095709561957F4FBF
:1024D0008F4F9F4F0895E89409C097FB3EF4909565
:1024E0008095709561957F4F8F4F9F4F9923A9F0ED
:1024F000F92F96E9BB279395F6958795779567957C
:10250000B795F111F8CFFAF4BB0F11F460FF1BC0BF
:102510006F5F7F4F8F4F9F4F16C0882311F096E952
:1025200011C0772321F09EE8872F762F05C0662300
:1025300071F096E8862F70E060E02AF09A95660FB9
:10254000771F881FDAF7880F9695879597F9089572
:10255000990F0008550FAA0BE0E8FEEF16161706B4
:10256000E807F907C0F012161306E407F50798F01C
:10257000621B730B840B950B39F40A2661F0232B35
:10258000242B252B21F408950A2609F4A140A695B1
:102590008FEF811D811D089597F99F6780E870E096
:1025A00060E008959FEF80EC089500240A941616C9
:1025B000170618060906089500240A941216130631
:1025C000140605060895092E0394000C11F48823BF
:1025D00052F0BB0F40F4BF2B11F460FF04C06F5FDB
:1025E0007F4F8F4F9F4F089557FD9058440F551FB1
:1025F00059F05F3F71F04795880F97FB991F61F085
:102600009F3F79F087950895121613061406551FFB
:10261000F2CF4695F1DF08C0161617061806991F67
:10262000F1CF86957105610508940895E894BB275C
:1026300066277727CB0197F908950E94A81208F41E
:102640008FEF08950E9435130C94E3120E94D51267
:1026500038F00E94DC1220F0952311F00C94CC127B
:102660000C94D21211240C9417130E94F41270F3DC
:10267000959FC1F3950F50E0551F629FF001729F27
:10268000BB27F00DB11D639FAA27F00DB11DAA1F36
:10269000649F6627B00DA11D661F829F2227B00D83
:1026A000A11D621F739FB00DA11D621F839FA00D0E
:1026B000611D221F749F3327A00D611D231F849F5E
:1026C000600D211D822F762F6A2F11249F575040B5
:1026D0009AF0F1F088234AF0EE0FFF1FBB1F661F30
:1026E000771F881F91505040A9F79E3F510580F0F9
:1026F0000C94CC120C9417135F3FE4F3983ED4F380
:10270000869577956795B795F795E7959F5FC1F79C
:10271000FE2B880F911D9695879597F9089597FB45
:10272000072E16F4009407D077FD09D00E94A3135A
:1027300007FC05D03EF4909581959F4F08957095C4
:1027400061957F4F0895AA1BBB1B51E107C0AA1FCB
:10275000BB1FA617B70710F0A61BB70B881F991F42
:102760005A95A9F780959095BC01CD010895EE0F7B
:10277000FF1F0590F491E02D09940F931F93CF93C1
:10278000DF938230910510F482E090E0E091FE0545
:10279000F091FF0530E020E0B0E0A0E0309799F440
:1027A0002115310509F44AC0281B390B24303105A5
:1027B000D8F58A819B816115710589F1FB019383AD
:1027C0008283FE0111C0408151810281138148172B
:1027D0005907E0F04817590799F4109761F01296DD
:1027E0000C93129713961C933296CF01DF91CF91E1
:1027F0001F910F9108950093FE051093FF05F4CFEC
:102800002115310551F04217530738F0A901DB01BA
:102810009A01BD01DF01F801C1CFEF01F9CF90931B
:10282000FF058093FE05CDCFFE01E20FF31F8193DC
:1028300091932250310939832883D7CF2091FC0509
:102840003091FD05232B41F420910F0130911001AF
:102850003093FD052093FC0520910D0130910E0170
:102860002115310541F42DB73EB74091110150912A
:102870001201241B350BE091FC05F091FD05E217D8
:10288000F307A0F42E1B3F0B2817390778F0AC0193
:102890004E5F5F4F2417350748F04E0F5F1F509370
:1028A000FD054093FC05819391939FCFF0E0E0E01C
:1028B0009CCFCF93DF930097E9F0FC01329713820E
:1028C0001282A091FE05B091FF05ED0130E020E0FD
:1028D0001097A1F420813181820F931F2091FC0574
:1028E0003091FD052817390709F061C0F093FD0507
:1028F000E093FC05DF91CF910895EA01CE17DF0741
:10290000E8F54A815B819E0141155105B1F7E90166
:10291000FB83EA8349915991C40FD51FEC17FD073A
:1029200061F4808191810296840F951FE90199835A
:102930008883828193819B838A83F0E0E0E0129612
:102940008D919C9113970097B9F52D913C9111971A
:10295000CD010296820F931F2091FC053091FD0559
:102960002817390739F6309751F51092FF05109264
:10297000FE05B093FD05A093FC05BCCFD383C283B5
:1029800040815181840F951FC817D90761F44E5FAC
:102990005F4F88819981480F591F518340838A81F5
:1029A0009B81938382832115310509F0B0CFF09389
:1029B000FF05E093FE059ECFFD01DC01C0CF138231
:0829C0001282D7CFF894FFCF7B
:1029C80010FFFFFFFF00E100000000000000000012
:1029D8000680000000000071082209710870087064
:1029E800087008700800C180810000000000000025
:1029F8007704E20598048D04DE049C04BA04000000
:102A08000000AA076706D009CF0900000000B80631
:062A18006706D009CF099A
:00000001FF
