:100000000C94E7030C940F040C940F040C940F044D
:100010000C940F040C940F040C940F040C940F0414
:100020000C940F040C940F040C94F40A0C94630BBE
:100030000C940F040C940F040C940F040C940F04F4
:100040000C940F040C940F040C940F040C940F04E4
:100050000C940F040C940F040C940F040C94950D45
:100060000C940F040C940F040C940F040C940F04C4
:100070000C940F040C940F040C940F040C940F04B4
:100080000C940F040C940F040C940F040C940F04A4
:100090000C940F040C940F040C940F040C940F0494
:1000A0000C940F040C940F040C940F0400B0000087
:1000B000A170E150964F26900F1D070C0096690025
:1000C0004AE44A0048444000806810000F99FB8FC2
:1000D0009DBDBBFB77D4D4DF1F1A1AFE7F5D5DFF89
:1000E000805A0000A0A4AA0010BA3400FF5953F3AC
:1000F000FF9B9B9EFFB9B996FF9595D19FF4940FF6
:10010000FC295F91FF1838F8FF9294FFFF95D5F70F
:10011000BFB5DDD7F18F81F1F788C8F779C6467989
:1001200009FD9B090196F80082818280507162006E
:100130007756560076763700A2B77301077206002D
:100140007827500073347400775176007F55F7009C
:1001500047711000324772007364730015A2750076
:1001600061679400009F6060F4F2F6F20000000006
:10017000003E5B4F5B3E3E6B4F6B3E1C3E7C3E1C2D
:10018000183C7E3C181C577D571C1C5E7F5E1C0073
:10019000183C1800FFE7C3E7FF0018241800FFE72A
:1001A000DBE7FF30483A060E2629792926407F05ED
:1001B0000507407F05253F5A3CE73C5A7F3E1C1C03
:1001C00008081C1C3E7F14227F22145F5F005F5FC3
:1001D00006097F017F006689956A606060606094AF
:1001E000A2FFA29408047E040810207E20100808B4
:1001F0002A1C08081C2A08081E101010100C1E0CBF
:100200001E0C30383E3830060E3E0E060000000050
:100210000000005F00000007000700147F147F1437
:10022000242A7F2A1223130864623649562050007C
:1002300008070300001C2241000041221C002A1C68
:100240007F1C2A08083E0808008070300008080853
:100250000808000060600020100804023E51494573
:100260003E00427F400072494949462141494D3391
:100270001814127F1027454545393C4A49493141F8
:10028000211109073649494936464949291E0000C6
:10029000140000004034000000081422411414141B
:1002A0001414004122140802015909063E415D5907
:1002B0004E7C1211127C7F494949363E4141412210
:1002C0007F4141413E7F494949417F090909013E3A
:1002D000414151737F0808087F00417F4100204061
:1002E000413F017F081422417F404040407F021C73
:1002F000027F7F0408107F3E4141413E7F0909098A
:10030000063E4151215E7F09192946264949493255
:1003100003017F01033F4040403F1F2040201F3F1B
:100320004038403F631408146303047804036159A0
:10033000494D43007F4141410204081020004141E2
:10034000417F04020102044040404040000307088E
:100350000020545478407F2844443838444444288A
:10036000384444287F385454541800087E09021831
:10037000A4A49C787F0804047800447D40002040B9
:10038000403D007F1028440000417F40007C0478FD
:1003900004787C080404783844444438FC18242445
:1003A0001818242418FC7C080404084854545424C5
:1003B00004043F44243C4040207C1C2040201C3C42
:1003C0004030403C44281028444C9090907C446439
:1003D000544C4400083641000000770000004136CC
:1003E000080002010204023C2623263C1EA1A16152
:1003F000123A4040207A3854545559215555794184
:100400002154547841215554784020545579400C5A
:100410001E5272123955555559395454545939553B
:100420005454580000457C410002457D420001457E
:100430007C40F0292429F0F0282528F07C545545EB
:10044000002054547C547C0A097F4932494949327E
:100450003248484832324A4848303A4141217A3A93
:1004600042402078009DA0A07D39444444393D405D
:1004700040403D3C24FF2424487E4943662B2FFC0A
:100480002F2BFF0929F620C0887E090320545479B8
:10049000410000447D413048484A32384040227A89
:1004A000007A0A0A727D0D19317D2629292F282606
:1004B0002929292630484D4020380808080808080E
:1004C0000808382F10C8ACBA2F102834FA00007B67
:1004D000000008142A142222142A1408950022006D
:1004E00095AA005500AAAA55AA55AA000000FF0027
:1004F000101010FF00141414FF001010FF00FF1064
:1005000010F010F0141414FC001414F700FF000095
:10051000FF00FF1414F404FC141417101F10101F14
:10052000101F1414141F00101010F0000000001F02
:10053000101010101F10101010F010000000FF100D
:100540001010101010101010FF10000000FF140009
:1005500000FF00FF00001F10170000FC04F414143B
:100560001710171414F404F40000FF00F714141407
:1005700014141414F700F7141414171410101F1087
:100580001F141414F4141010F010F000001F101FAA
:100590000000001F14000000FC140000F010F01018
:1005A00010FF10FF141414FF141010101F0000008F
:1005B00000F010FFFFFFFFFFF0F0F0F0F0FFFFFF93
:1005C0000000000000FFFF0F0F0F0F0F38444438EA
:1005D000447C2A2A3E147E02020606027E027E0225
:1005E00063554941633844443C04407E201E200644
:1005F000027E020299A5E7A5991C2A492A1C4C7281
:1006000001724C304A4D4D303048784830BC625A07
:10061000463D3E494949007E0101017E2A2A2A2A97
:100620002A44445F444440514A444040444A514073
:100630000000FF0103E080FF000008086B6B083634
:1006400012362436060F090F0600001818000000A5
:100650001010003040FF0101001F01011E00191D94
:100660001712003C3C3C3C0000000000F0F89C8E5F
:100670008783878E9CF8F00000FEFF0303030303CB
:10068000070EFCF80000FEFF0303030303070EFC44
:10069000F80000FFFF00000000000000FFFF000066
:1006A000FEFF8383838383C7EE7C380000F8FC0E53
:1006B00007030303070EFCF800003F7FE0C08080C3
:1006C000C0E07F3FFFFF01010101010101FFFF00C9
:1006D00000FFFF0C0C0C0C1C3E77E3C100007FFFF9
:1006E000C0C0C0C0C0E0703F1F00001F3F70E0C02E
:1006F000C0C0E0703F1F00007FFFC1C1C1C1C1E3A6
:10070000773E1C00001F3F70E0C0C0C0E0703F1F7C
:10071000000000000001FFFF01000000D5F08D1473
:10072000A1C881CFD9F1AF200055502049532042B4
:1007300045494E472048454C4420444F574E0A00F7
:1007400055502057415320505245535345440A00B9
:10075000555020574153204C455420474F0A00081C
:100760000B00020202000009040000010202000066
:1007700005240010010524010101042402060524BA
:100780000600010705810310004009040100020A68
:100790000000000705020240000007058302400038
:1007A000000403090412010002EF02014041233654
:1007B0008000010102030141726475696E6F204C73
:1007C0004C430041726475626F790000120E11246F
:1007D0001FBECFEFDAE0DEBFCDBF11E0A0E0B1E099
:1007E000E2E0FBE202C005900D92A63FB107D9F707
:1007F00026E0A6EFB1E001C01D92A53CB207E1F7EB
:1008000013E0C7EED3E004C02197FE010E947915E2
:10081000C63ED107C9F70E94B00E0C947F150C9408
:10082000000080E0E1E7F2E081118FEF0024819386
:100830008193819381930394D1F708954091920617
:100840005091930641155105E1F0209196063091A3
:10085000970660919406709195062617370788F4DD
:10086000B9016F5F7F4F7093970660939606FC0106
:1008700080819181220F331F240F351FF90191834D
:1008800080830895E1E7F2E0A0E0B8E000800EBCCC
:100890008111012C1197A0FDFDCF0192B9F70DB484
:1008A0000895FC0180912002882311F13FB7F8944C
:1008B00082E08093E9002091F200822F90E01816E8
:1008C000190614F481E090E0882339F0289844E672
:1008D00040931F024091F1004083222339F0209180
:1008E000F200211103C02BE62093E8003FBF0895DA
:1008F0008FEF9FEF08952FB7F89483E08093E9007E
:100900009091E800892F807295FF04C09091F200C9
:1009100080E4891B2FBF08958091170281110DC0BB
:1009200082E08093130284E08093140210921602F6
:100930001092150281E08093170283E192E00895FE
:10094000CF93DF931F92CDB7DEB76983DC01ED91C2
:10095000FC910280F381E02D41E050E0BE016F5F29
:100960007F4F09950F90DF91CF91089583E0809399
:10097000E9008091F200882319F08AE38093E8006F
:1009800008950E947B0490E00895CF93DF931F9217
:10099000CDB7DEB7FC018485958597FD08C02FEFA4
:1009A0003FEF358724870F90DF91CF910895CE01D7
:1009B00001960E945104019719F4898190E0F3CFC8
:1009C0008FEF9FEFF0CF0F931F93CF93DF931F9283
:1009D000CDB7DEB78C01FC018485958597FF0BC0F0
:1009E000CE0101960E945104019771F4898190E033
:1009F000F80195878487F801848595850F90DF91AC
:100A0000CF911F910F9108958FEF9FEFF1CFFC01D0
:100A10008485958597FD0BC09FB7F89482E08093FD
:100A2000E9008091F2009FBF90E0019608959FB782
:100A3000F89482E08093E9008091F2009FBF90E0FB
:100A4000089540910D0250910E0220910B023091B9
:100A50000C0242175307B4F49091E8009570E1F34B
:100A60009091E80092FD19C08093F10080910D02F1
:100A700090910E0201968F739927892B19F48EEFAE
:100A80008093E80080910D0290910E020196909360
:100A90000E0280930D0281E0089580E00895DF92B8
:100AA000EF92FF920F931F93CF93DF93D82E8A017B
:100AB000EB017B01E40EF51ECE15DF0559F0D7FEE4
:100AC00012C0FE0184910E94210521968111F4CF6C
:100AD0000FEF1FEFC801DF91CF911F910F91FF9092
:100AE000EF90DF9008958881EECF0F931F93CF93FF
:100AF000DF931F92CDB7DEB782E0898342E450E0F6
:100B00006FE577E080E80E944F050E948C04DC01CD
:100B100012960D911C910115110589F0D801ED91E6
:100B2000FC910280F381E02DBE016F5F7F4FC80111
:100B3000099597FD04C0F80100851185ECCF8981E6
:100B40000F90DF91CF911F910F910895615030F078
:100B50002091F100FC0120830196F8CF289884E6CB
:100B600080931F0208953FB7F894809107029091F7
:100B70000802A0910902B0910A0226B5A89B05C0FF
:100B80002F3F19F00196A11DB11D3FBFBA2FA92F0C
:100B9000982F8827BC01CD01620F711D811D911D09
:100BA00042E0660F771F881F991F4A95D1F7089575
:100BB0008F929F92AF92BF92CF92DF92EF92FF926D
:100BC0006B017C010E94B3054B015C01C114D1048F
:100BD000E104F104B9F00E94B305681979098A09A2
:100BE0009B09683E73408105910580F321E0C21A9C
:100BF000D108E108F10888EE880E83E0981EA11C58
:100C0000B11CE4CFFF90EF90DF90CF90BF90AF90FA
:100C10009F908F9008958F929F92AF92BF92CF92A4
:100C2000DF92EF92FF920F931F93CF93DF936C01AC
:100C30007B018A0180910C01882309F45CC08091BA
:100C40002002882309F457C08091120280FF05C05A
:100C50008091E00082608093E000E801B12C8AEF8F
:100C6000A82E93E0892E2AE3922E209711F4BB2020
:100C7000D9F10E947B0481110AC0AA94AA20D9F15B
:100C800061E070E080E090E00E94D805EECF8C1724
:100C90001D0611F00CF08C2F9FB7F8948092E9009C
:100CA0002091E80025FD02C09FBFDFCF282F30E054
:100CB000C21BD30BF701815020F041914093F1000A
:100CC000FACFE20EF31EBB2021F09092E800B12C87
:100CD000EBCF8091E80085FDE7CF9092E800BB2440
:100CE000B394209709F3F3CF5D9884E680931102C3
:100CF000101611063CF081E090E0F60193838283A8
:100D000010E000E0C801DF91CF911F910F91FF909B
:100D1000EF90DF90CF90BF90AF909F908F9008950D
:100D2000AF92BF92CF92DF92EF92FF920F931F93F9
:100D3000CF93DF936C017B018B01040F151FEB0137
:100D40005E01AE18BF08C017D10759F06991D601EE
:100D5000ED91FC910190F081E02DC6010995892B60
:100D600079F7C501DF91CF911F910F91FF90EF901F
:100D7000DF90CF90BF90AF9008952D9A0895BC0159
:100D800090E080E00C94D8058FB18095807F669BC1
:100D900088601C9B84600895CF93C82F0E94C4066E
:100DA000982F9C2381E09C1380E0CF91089580E0F0
:100DB0000C9442046F927F928F929F92AF92BF9257
:100DC000CF92DF92EF92FF920F931F93CF93DF9317
:100DD0004C017B01C22F102F98E0A92EB12C642E5C
:100DE000669466946694712CCA0187709927892B42
:100DF00079F5D40117962D913C91C7019927B90136
:100E00000E945115269DF001279DF00D369DF00D95
:100E100011248E0F9F1FD4011596ED91FC91E80FC0
:100E2000F91F2081111112C0C095C223C083DF9128
:100E3000CF911F910F91FF90EF90DF90CF90BF90D7
:100E4000AF909F908F907F906F900895C22BEECFC0
:100E5000D0E04770C42ED12C83E0660C771C8A95B5
:100E6000E1F79E0101C0220F4A95EAF7012FA30185
:100E7000B701C4010E94DA06A301485F5F4FC501B4
:100E80008C199D0902C0D595C7958A95E2F7A7CF21
:100E90005F926F927F928F929F92AF92BF92CF920A
:100EA000DF92EF92FF920F931F93CF93DF93EC01AA
:100EB0006A30F1F48D859E859C878B878C892F8580
:100EC0003889820F932F911D988B8F8781E090E056
:100ED000DF91CF911F910F91FF90EF90DF90CF9016
:100EE000BF90AF909F908F907F906F905F9008958C
:100EF000AB84BC84693031F429E0A20EB11CBC86FD
:100F0000AB86E4CF3DEFA3163FEFB3060CF45DC014
:100F10008F819885A816B9060CF057C0CF84D88861
:100F20008DEFC8168FEFD8060CF44FC089859A85CF
:100F3000C816D9060CF049C0603208F46FE780EE9D
:100F4000860F9FE9960F9A3118F49FEFC91AD90AB4
:100F50008C3011F08B3119F42FEFC21AD20A86951A
:100F600034E0839FC00111249C0124553F4F790137
:100F7000912C812C162F1170F701E80DF91D54905A
:100F800011112DC0352D3F70532E3501680C791C81
:100F90008C81882361F001E089899A89892B09F085
:100FA00000E02FE0A601B301CE010E94DA06098914
:100FB000252DA601B301CE010E94DA068FEF881A13
:100FC000980A94E089169104B9F68B8990E004960A
:100FD0002B853C85820F931F9C878B8777CF5294FC
:100FE0008FE05822D2CF0F931F93CF93DF938C01C2
:100FF000D0E0C0E0F801EC0FFD1F6491662341F0E2
:1010000081E796E00E944807892B11F02196F2CFE4
:10101000CE01DF91CF911F910F910895089590E037
:1010200080E0089560E070E0CB0108950895089590
:10103000CF92DF92EF92FF920F931F93CF938C0189
:101040006A017B0126E636ED43E254E4CB01B601AA
:101050000E94DA14F801C4811816C4F126E636EDB0
:1010600043E254ECC701B6010E947B1387FD25C003
:1010700020E030E0A901C701B6010E947B1387FF81
:101080002DC0F7FAF094F7F8F094CE7FF801C483FE
:1010900020E030E048EC52E4C701B6010E94DF14C2
:1010A0000E94F213F80170876783CF911F910F910F
:1010B000FF90EF90DF90CF90089596E6C92E96EDC1
:1010C000D92E93E2E92E94ECF92EDBCF86E6C82EDA
:1010D00086EDD82E83E2E82E84E4F82EC160D6CFC8
:1010E000CF92DF92EF92FF920F931F93CF938C01D9
:1010F0006A017B0126E636ED43E254E4CB01B601FA
:101100000E94DA14F801C4811816C4F126E636EDFF
:1011100043E254ECC701B6010E947B1387FD25C052
:1011200020E030E0A901C701B6010E947B1387FFD0
:101130002DC0F7FAF094F7F8F094CD7FF801C4834E
:1011400020E030E048EC52E4C701B6010E94DF1411
:101150000E94F213F80176836583CF911F910F915E
:10116000FF90EF90DF90CF90089596E6C92E96ED10
:10117000D92E93E2E92E94ECF92EDBCF86E6C82E29
:1011800086EDD82E83E2E82E84E4F82EC260D6CF16
:101190000F931F93CF93DF93CDB7DEB761970FB651
:1011A000F894DEBF0FBECDBF81E191E09A838983C1
:1011B0001C821B8280EE8D8340E050E0BA018E01DC
:1011C0000F5F1F4FC8010E94700840E050E0BA0155
:1011D000C8010E94180881E191E09A83898388E020
:1011E0008A8780E18B871C861D861C821B8240E0DB
:1011F00050E0BA01C8010E94700840E050E0BA0116
:10120000C8010E941808B80183E090E061960FB60B
:10121000F894DEBF0FBECDBFDF91CF911F910F912C
:101220000895CF93DF932091000227FF1FC0EC01A8
:101230006D817E8190E080E00E9428142C8121FF46
:1012400013C020E030E048EC52E40E94801320E01C
:1012500030E040E85FE30E940F13AB01BC01CE0118
:10126000DF91CF910C9470089058EBCFDF91CF9124
:101270000895FC0101900020E9F73197AF01481B68
:10128000590BBC0181E796E00C9490068F929F92D7
:10129000AF92BF920F931F93CF93DF93CDB7DEB77B
:1012A000A1970FB6F894DEBF0FBECDBF19A2423092
:1012B00008F44AE08E010F5D1F4F842E912CB12C53
:1012C000A12CA50194010E94EC12E62FB901CA01DC
:1012D000EA30F4F4E05DD801EE938D01232B242B4A
:1012E000252B79F790E080E0109719F0CD010E944E
:1012F0003909A1960FB6F894DEBF0FBECDBFDF91BE
:10130000CF911F910F91BF90AF909F908F900895B4
:10131000E95CE1CF0C9439090F931F93CF93DF93CE
:10132000CDB7DEB729970FB6F894DEBF0FBECDBF9D
:1013300081E191E09A8389831C821B8280EE8D83F8
:101340004AE959E966E972E48E010F5F1F4FC8014F
:101350000E94700840E050E0BA01C8010E941808DD
:101360008CE591E00E948A09B80181E090E029961D
:101370000FB6F894DEBF0FBECDBFDF91CF911F91A6
:101380000F9108958CE691E00C948A098FE791E023
:101390000E948A092091900630919106E0918C0676
:1013A000F0918D0690E080E02817390789F42091AC
:1013B0008A0630918B06E0918606F091870690E0D0
:1013C00080E02817390741F0119211920196F9CF68
:1013D000119211920196E8CF08952F923F924F9269
:1013E0005F926F927F928F929F92AF92BF92CF92B5
:1013F000DF92EF92FF920F931F93CF93DF9300D072
:1014000000D000D0CDB7DEB788E291E09E838D8317
:10141000812C912C54012401350172E0272E312CAE
:1014200020FC0DC020E030E040E850E4C301B201F0
:101430000E940F132B013C01812C912C5401AD8192
:10144000BE81ED91BE83AD83F0E0EE0FFF1FE85C3F
:10145000FE4F0190F081E02D09956B017C01B501F3
:10146000A401C6010E947008B301A201C6010E9436
:101470001808B2E0EB16F10409F445C0E3E0EE16FB
:10148000F10409F47EC0EA94EF2891F4DC82CB8267
:10149000D601ED91FC910190F081E02DC6010995F6
:1014A000CE0103960E941E048AE991E00E948A09F7
:1014B00020E030E040E850E4C501B4010E940F1381
:1014C0004B015C01FFEF2F1A3F0A86E0281631041A
:1014D00009F0A6CF26960FB6F894DEBF0FBECDBF9B
:1014E000DF91CF911F910F91FF90EF90DF90CF9000
:1014F000BF90AF909F908F907F906F905F904F9034
:101500003F902F900895D601ED91FC910190F081CC
:10151000E02DC6010995DA82C982CE0101960E94AA
:101520001E04209186063091870621153105C9F0E9
:1015300080918A0690918B06409188065091890689
:101540008417950770F4AC014F5F5F4F50938B0683
:1015500040938A06880F991F820F931FFC01D18246
:10156000C08288EA91E00E948A0960919606709193
:10157000970690E080E04AE00E94460988EC91E0FE
:1015800095CFD601ED91FC910190F081E02DC6013F
:101590000995DA82C982CE0101960E941E0420912B
:1015A0008C0630918D0621153105C9F08091900689
:1015B0009091910640918E0650918F068417950761
:1015C00070F4AC014F5F5F4F5093910640939006CB
:1015D000880F991F820F931FFC01D182C0828FEB6D
:1015E00091E064CF0C94D6121F920F920FB60F9217
:1015F00011248F939F938091E1009091E100937F5C
:101600009093E10083FF0FC01092E90091E0909366
:10161000EB001092EC0092E39093ED001092200208
:1016200098E09093F00082FF22C093E09093E9004D
:101630009091F200992319F09AE39093E800909129
:101640001102992341F0909111029150909311024F
:10165000911101C05D9A90911F02992341F09091E0
:101660001F02915090931F02911101C0289A84FF8C
:1016700018C08091E2008E7E81608093E2008091AC
:10168000E1008F7E8093E100809112028E7E806166
:10169000809312029F918F910F900FBE0F901F9019
:1016A000189580FFF7CF8091E2008E7E8061809355
:1016B000E2008091E1008E7E8093E1008091120231
:1016C0008E7E8160E5CF1F920F920FB60F9211248C
:1016D000CF92DF92EF92FF920F931F932F933F933E
:1016E0004F935F936F937F938F939F93AF93BF932A
:1016F000EF93FF93CF93DF93CDB7DEB76C97DEBF49
:10170000CDBF1092E9008091E80083FF25C068E01A
:10171000CE0145960E94A60582EF8093E8008D8950
:1017200087FF39C09091E80090FFFCCF982F90760A
:1017300009F034C19E894F89588D2F89F88C9111F9
:1017400031C0803861F5809110028093F1001092D1
:10175000F1008EEF8093E8006C960FB6F894DEBF30
:101760000FBECDBFDF91CF91FF91EF91BF91AF91B0
:101770009F918F917F916F915F914F913F912F91A9
:101780001F910F91FF90EF90DF90CF900F900FBEC1
:101790000F901F9018959EEF9093E800C7CF10927E
:1017A000F100D5CF913059F48111D3CF413051059B
:1017B00081F6809110028D7F80931002CACF933002
:1017C00049F48111C6CF4130510519F680911002BC
:1017D0008260F2CF953041F48091E80080FFFCCF29
:1017E00020682093E300B5CF963009F0A9C00B8D97
:1017F0001C8D22E01092E90010920E0210920D0250
:10180000F2122EC010920C0210920B020E9475056B
:101810001F8299E09983FA8291E09E8390EA9887EB
:101820009AEF998720910D0230910E02275F3F4F6A
:101830003C832B838D831092E90010920E0210924C
:101840000D0210930C0200930B0249E050E0BE0120
:101850006F5F7F4F80E00E944F050E94750579CF32
:1018600010930C0200930B020E948C04DC01129670
:101870000D911C910115110509F451C1D801ED918B
:10188000FC910480F581E02DBE016B5E7F4FC801A5
:101890000995009709F03EC1F80100851185EACF4E
:1018A000F3E0FF120EC08F89882309F440C0823014
:1018B00061F440E867E083EC97E00E94DF0D81115E
:1018C00048CF81E28093EB0047CF813029F440E894
:1018D0006BE087EB97E0F1CF833099F70E948C049F
:1018E000DC011296ED90FC908E010F5F1F4F680196
:1018F000E114F10479F0D701ED91FC910680F781B4
:10190000E02DB801C7010995080F111DF701E0840A
:10191000F184EECFD8011C92F60101900020E9F786
:101920003197BF016C197D0940E0C601C6CF61EA5D
:1019300077E0FB01449150E080E80E944F0509CF19
:10194000973009F4BECF983021F481E08093F10004
:1019500000CF993009F0FDCE837009F0B2CFE0E2FC
:10196000F1E081E031E096E32191222371F0809350
:10197000E9003093EB00DF0111972C912093EC00EC
:101980009093ED008F5F873079F78EE78093EA00C0
:101990001092EA008F8980932002DBCE8B8D9C8D84
:1019A0001092E90010920E0210920D0290930C0218
:1019B00080930B02898D811192C08E899D89913A05
:1019C00049F4813209F07DCF47E050E065E071E0F5
:1019D00080E0B3CF913209F074CF833269F48F89FC
:1019E000988DB0E0A0E08093010190930201A09354
:1019F0000301B0930401ADCE803269F48091E80018
:101A000082FFFCCF67E085E091E00E94A6058BEFA6
:101A10008093E8009ECE823209F09BCE8F8980931E
:101A20000C01EEEFFFE7859194918B3F9C4D51F1B6
:101A3000E0E0F8E08091050190910601A091070196
:101A4000B0910801803B9440A105B105F1F480916B
:101A50000C0180FD1AC0EE3F8AE0F80789F587E7A0
:101A600097E7918380838091600080930F0288E1E3
:101A70009BE00FB6F894A895809360000FBE9093FA
:101A8000600067CEEEEFFAE0D5CF80819181873795
:101A9000974709F05ECEA895809160008861809399
:101AA000600080910F0280936000EE3F2AE0F20711
:101AB00089F08091FE0A9091FF0A9183808349CE3C
:101AC000808191818737980751F29093FF0A809324
:101AD000FE0AC5CF1092FF0A1092FE0A3ACE0E946B
:101AE0008C04DC0112960D911C910115110509F46D
:101AF000E8CED801ED91FC910190F081E02DBE017E
:101B00006B5E7F4FC8010995811123CEF8010085D6
:101B10001185EBCF181619060CF41BCED2CEF1E0CE
:101B2000FF12BECE65EA77E004CF1F920F920FB688
:101B30000F9211242F933F938F939F93AF93BF9353
:101B40008091030290910402A0910502B0910602D7
:101B50003091020223E0230F2D3758F50196A11D85
:101B6000B11D209302028093030290930402A0937C
:101B70000502B09306028091070290910802A0919D
:101B80000902B0910A020196A11DB11D80930702BE
:101B900090930802A0930902B0930A02BF91AF91FB
:101BA0009F918F913F912F910F900FBE0F901F909B
:101BB000189526E8230F0296A11DB11DD2CFEF92F2
:101BC000FF920F931F93CF93DF93F82E192FE62EDA
:101BD000042F81E0860F880F0E94210583E00E9478
:101BE0002105CF2DD12FEC0EFD2EF11CCE15DF05DA
:101BF000B9F007FF13C0FE0184910E942105182F40
:101C000080E00E942105812321968111EFCFDF9191
:101C1000CF911F910F91FF90EF9008958881EDCFA4
:101C200081E0F5CFEF92FF921F93CF93DF93109255
:101C300024021092230288EE93E0A0E0B0E08093AB
:101C4000250290932602A0932702B093280282E4F3
:101C500091E090932202809321028FEF9FEF909367
:101C60002E0280932D02109274061092730684E562
:101C700091E0909372068093710681E792E09093D1
:101C800077068093760680E890E0909379068093BB
:101C9000780680E490E090937B0680937A0685E056
:101CA0008093850681E08093840610927F061092CF
:101CB0007E06109281061092800610927D06109288
:101CC0007C0681E090E090938306809382061092D8
:101CD000750610928D0610928C0610928F06109247
:101CE0008E0610929106109290061092870610921E
:101CF0008606109289061092880610928B06109222
:101D00008A061092930610929206109295061092EF
:101D100094061092970610929606C8E9D6E081E1E3
:101D2000E82E81E0F82E10EEF982E8821B821A82FA
:101D30001C8340E050E0BA01CE010E94700840E0F0
:101D400050E0BA01CE010E941808299686E0C53CF1
:101D5000D80751F7DF91CF911F91FF90EF90089531
:101D6000789484B5826084BD84B5816084BD85B576
:101D7000826085BD85B5816085BD80916E00816082
:101D800080936E0010928100809181008260809328
:101D9000810080918100816080938100809180002A
:101DA0008160809380008091910082608093910097
:101DB000809191008160809391008091900081607A
:101DC000809390008091C10084608093C1008091D5
:101DD000C10082608093C1008091C10081608093C6
:101DE000C1008091C30081608093C3008091C000D6
:101DF00082608093C0008091C20081608093C200A5
:101E000080917A00846080937A0080917A00826069
:101E100080937A0080917A00816080937A0080912B
:101E20007A00806880937A0010922002109210024B
:101E3000109212028091D70081608093D70080EACF
:101E40008093D80089B5806189BD89B5826089BDDC
:101E500009B400FEFDCF61E070E080E090E00E94F8
:101E6000D8058091D8008F7C80618093D8008091C4
:101E7000E000807F8093E0008091E1008E7E80937F
:101E8000E1008DE08093E200559A209A81EC8093E6
:101E90007C0085B1806F85B984B1877E84B984B1B7
:101EA000876E84B95E9A5F988AB1806D8AB9769A96
:101EB0006E9881B3806F81BB899880B38D7080BB31
:101EC00080E58CBD81E08DBD85E090E00E94BF067D
:101ED0005F9A85E090E00E94BF065E985C98ECE116
:101EE000F7E084918EBD00000DB407FEFDCF319662
:101EF00017E0E932F107A9F75C9A81E88093640062
:101F0000809165008160809365000E94D70680E81B
:101F10000E94CC068823A9F05C9885EA8EBD00005B
:101F20000DB407FEFDCF5C9A2E982F982D988091C6
:101F3000640080628093640081E083BF889513BE53
:101F4000FCCF84E00E94CC06882309F448C02D9879
:101F500084E80E94CC068823E1F00E94BD0688EC4C
:101F600090E00E94BF062F9882E090E00E94D61277
:101F70008F3F29F06FEF82E090E00E94DE1284EF45
:101F800091E00E94BF062F9A84E80E94CC0681113E
:101F9000FBCF84E10E94CC068823E1F00E94BD06BD
:101FA00088EC90E00E94BF062E9882E090E00E94AC
:101FB000D612882329F060E082E090E00E94DE12D1
:101FC00084EF91E00E94BF062E9A84E10E94CC0625
:101FD0008111FBCF88EC90E00E94BF06B2CF0E9437
:101FE000BD0682E090E00E94F20A882309F455C001
:101FF0003E9A3F9A81E090E00E94F20A482F447096
:10200000742E81FF13C041112E98C1EFDFEF08E05D
:1020100010E06CE6E62EF12C80E40E94CC068823CA
:1020200009F43EC02E9A2F9A0E94BD0682E390E0EA
:102030000E94BF060E94C4068111F8CF0E941104BD
:102040001092FD011092FC011092FB011092FA0116
:1020500088EE809300010E94C6090E94ED092224A7
:10206000239400E010E0332433948FB7F894409128
:1020700003025091040260910502709106028FBF25
:102080008091F801882309F426C11092F801011506
:10209000110559F30E940000E8CF3E983F98AACF5F
:1020A000772029F0C430D10511F42E9A2F9881E0C1
:1020B0000E9442049E01D7FF04C0222733272C1B15
:1020C0003D0B27703327CE01D7FD079653E095953A
:1020D00087955A95E1F7D7FF05C00197F801E21BF4
:1020E000F30B9F01BC017695762F66277795679550
:1020F0006F587D4FB0E0A0E02801421A530A8E3F8E
:10210000FFEF9F0709F43CC048E550E0FD01EC53A8
:10211000F94F5F014B01F0E88F0E911C8F3F98073C
:10212000A1F0F501E41BF50BE4916701C41AD50A8F
:10213000C60ED71EF0E01F01022E01C0220C0A9429
:10214000EAF7F60160802628208221153105A9F0E2
:10215000F501E41BF50BE4916701C41AD50AC80C1C
:10216000D91CF0E01F01042C02C0359427940A9476
:10217000E2F7F6016080262820824150510971F66D
:102180000196A85ABF4F60587F4FA03BB10509F098
:10219000B6CF0E94D7068FE090E00E94BF0621963E
:1021A000C931D10509F038CF772011F02F9A2D9839
:1021B00080E991E00E94BF060E94BD0681E090E0A8
:1021C0000E94F20A80FF32CF8AE090E00E94F20A79
:1021D0009FEF980F9E3F08F029CF22E330E0309325
:1021E000FB012093FA0128E330E03093FD012093B6
:1021F000FC01CBE0D0E005E090E1992E8D3081F03C
:102200006091FC017091FD018A30C1F41092FB01D4
:102210001092FA01685F7F4F7093FD016093FC019B
:10222000CE010E94F20A2196C131D10539F70E94F0
:10223000D70688EE93E00E94BF06F8CE4091FA01DF
:102240005091FB01809FF0011124E459FE4F9A0147
:10225000D12C15E0C12CD11621F0CF010196C490EC
:10226000FC01F12CE12C8C2D8170A82E2038310539
:10227000D0F4CB018E0D9F1D80349105A0F411E0A8
:1022800081FD14E080FD110F82FD1295887F989EDC
:10229000D0011124A20FB12EAF58BD4F8C91AA20AE
:1022A000B9F0812B8C93C6948FEFE81AF80A98E066
:1022B000E916F104C1F6D3942F5F3F4F16E0D11217
:1022C000C8CF4A5F5F4F5093FB014093FA01A8CFFC
:1022D000B0948B21E7CF8091F901942F981B892F1F
:1022E00090910001891740F48F5F891708F0CFCED5
:1022F00023BE889513BECBCE3092F8014093F901EE
:102300008091F6019091F70101969093F7018093E7
:10231000F6010E94C4068093010280E80E94CC0668
:10232000C0E08111C0E880E10E94CC068111C06448
:1023300080E20E94CC068111C06280E40E94CC063B
:102340008111C06184E00E94CC068111C86088E0E0
:102350000E94CC068111C460809100029C2F909550
:1023600098239093FF0180958C238093FE01C09366
:1023700000020E9411041092FD011092FC011092C3
:10238000FB011092FA0110927F0610927E061092C5
:102390007D0610927C0610928106109280060E94A3
:1023A000C6098091FF0187FF59C080E597E00E9430
:1023B000F30780919606909197064E9710F40E942D
:1023C000ED098AEC91E00E948A096091960670916D
:1023D000970690E080E04AE00E944609C8E9D6E00E
:1023E000812C912C54018091960690919706881625
:1023F000990608F0D8C08DED91E00E948A094AE064
:10240000C501B4010E94460985EE91E00E948A0947
:102410008C816D817E8190E081FF2EC080E00E94E2
:10242000281420E030E048EC52E40E9480136B0155
:102430007C01AC019B010E944C15882311F189EEAF
:1024400091E00E94390988EC91E00E948A0929965E
:10245000EFEF8E1A9E0AAE0ABE0AC5CF8091FE012A
:1024600087FF03C080E497E0A2CF8091000287FF3E
:10247000A0CF89E297E09BCF80E00E94281490587B
:10248000D0CF26013701E89477F82FEF3FEF4FE7E1
:102490005FE7C301B2010E944C1581110DC02FEFFF
:1024A0003FEF4FE75FE7C301B2010E947B131816AD
:1024B0001CF48DEE91E0C5CF2FEF3FEF4FE75FE4C7
:1024C000C701B6010E94DA1418161CF481EF91E0DE
:1024D000B8CF2FEF3FEF4FE75FECC701B6010E9487
:1024E0007B1387FDF3CF20E030E0A901C701B601DF
:1024F0000E947B1387FF09C06DE281E796E00E948E
:102500004807F7FAF094F7F8F0942AE037ED43EA39
:102510005BE3C701B6010E940F132B013C010E942F
:10252000F9136B017C010E9428149B01AC01C301CB
:10253000B2010E940E132B013C014AE0C701B60113
:102540000E9446096EE281E796E00E94480720E07B
:1025500030E040E251E4C301B2010E94DF142B01DC
:102560003C010E94F9136B01F12CE12C4AE0C701F8
:10257000B6010E944609C701B6010E9428149B01BA
:10258000AC01C301B2010E940E1320E030E040E232
:1025900051E40E94DF140E94F91390E080E04AE0C9
:1025A0000E94460950CF0E94D70671CDF999FECFFF
:1025B00092BD81BDF89A992780B50895262FF99983
:1025C000FECF1FBA92BD81BD20BD0FB6F894FA9A16
:1025D000F99A0FBE01960895A1E21A2EAA1BBB1B01
:1025E000FD010DC0AA1FBB1FEE1FFF1FA217B307DF
:1025F000E407F50720F0A21BB30BE40BF50B661FF5
:10260000771F881F991F1A9469F7609570958095B8
:1026100090959B01AC01BD01CF0108955058BB2797
:10262000AA270E9426130C94A0140E94921438F03A
:102630000E94991420F039F49F3F19F426F40C9469
:102640008F140EF4E095E7FB0C948914E92F0E9497
:10265000B11458F3BA17620773078407950720F07F
:1026600079F4A6F50C94D3140EF4E0950B2EBA2F42
:10267000A02D0B01B90190010C01CA01A001112488
:10268000FF27591B99F0593F50F4503E68F11A1634
:10269000F040A22F232F342F4427585FF3CF4695C5
:1026A00037952795A795F0405395C9F77EF41F16E7
:1026B000BA0B620B730B840BBAF09150A1F0FF0FB1
:1026C000BB1F661F771F881FC2F70EC0BA0F621F9D
:1026D000731F841F48F4879577956795B795F7958D
:1026E0009E3F08F0B0CF9395880F08F09927EE0F22
:1026F0009795879508950E94651408F481E00895E0
:102700000E9494130C94A0140E94991458F00E94F3
:10271000921440F029F45F3F29F00C948914511170
:102720000C94D4140C948F140E94B11468F3992360
:10273000B1F3552391F3951B550BBB27AA276217BD
:102740007307840738F09F5F5F4F220F331F441FCA
:10275000AA1FA9F335D00E2E3AF0E0E832D09150FE
:102760005040E695001CCAF72BD0FE2F29D0660FEB
:10277000771F881FBB1F261737074807AB07B0E82E
:1027800009F0BB0B802DBF01FF2793585F4F3AF034
:102790009E3F510578F00C9489140C94D4145F3F3B
:1027A000E4F3983ED4F3869577956795B795F795BA
:1027B0009F5FC9F7880F911D9695879597F90895A2
:1027C000E1E0660F771F881FBB1F6217730784073E
:1027D000BA0720F0621B730B840BBA0BEE1F88F74D
:1027E000E09508950E94F9136894B1110C94D414E3
:1027F00008950E94B91488F09F5798F0B92F99272F
:10280000B751B0F0E1F0660F771F881F991F1AF0DB
:10281000BA95C9F714C0B13091F00E94D314B1E059
:1028200008950C94D314672F782F8827B85F39F058
:10283000B93FCCF3869577956795B395D9F73EF474
:1028400090958095709561957F4F8F4F9F4F08951C
:10285000E89409C097FB3EF490958095709561953A
:102860007F4F8F4F9F4F9923A9F0F92F96E9BB27F0
:102870009395F695879577956795B795F111F8CF6C
:10288000FAF4BB0F11F460FF1BC06F5F7F4F8F4FD7
:102890009F4F16C0882311F096E911C0772321F0CD
:1028A0009EE8872F762F05C0662371F096E8862F65
:1028B00070E060E02AF09A95660F771F881FDAF7BC
:1028C000880F9695879597F90895990F0008550FE9
:1028D000AA0BE0E8FEEF16161706E807F907C0F0A6
:1028E00012161306E407F50798F0621B730B840BAE
:1028F000950B39F40A2661F0232B242B252B21F488
:1029000008950A2609F4A140A6958FEF811D811D27
:10291000089597F99F6780E870E060E008959FEF61
:1029200080EC089500240A94161617061806090666
:10293000089500240A941216130614060506089535
:10294000092E0394000C11F4882352F0BB0F40F4BD
:10295000BF2B11F460FF04C06F5F7F4F8F4F9F4FFD
:10296000089557FD9058440F551F59F05F3F71F07F
:102970004795880F97FB991F61F09F3F79F08795E6
:102980000895121613061406551FF2CF4695F1DF6F
:1029900008C0161617061806991FF1CF86957105FF
:1029A000610508940895E894BB2766277727CB0133
:1029B00097F908950E94651408F48FEF08950E9416
:1029C000F2140C94A0140E94921438F00E949914EE
:1029D00020F0952311F00C9489140C948F14112479
:1029E0000C94D4140E94B11470F3959FC1F3950F09
:1029F00050E0551F629FF001729FBB27F00DB11D83
:102A0000639FAA27F00DB11DAA1F649F6627B00D12
:102A1000A11D661F829F2227B00DA11D621F739FFB
:102A2000B00DA11D621F839FA00D611D221F749F09
:102A30003327A00D611D231F849F600D211D822F50
:102A4000762F6A2F11249F5750409AF0F1F0882377
:102A50004AF0EE0FFF1FBB1F661F771F881F9150A4
:102A60005040A9F79E3F510580F00C9489140C94B6
:102A7000D4145F3FE4F3983ED4F386957795679539
:102A8000B795F795E7959F5FC1F7FE2B880F911DCE
:102A90009695879597F908950E946514880B990B70
:102AA000089597FB072E16F4009407D077FD09D000
:102AB0000E94651507FC05D03EF4909581959F4FC7
:102AC0000895709561957F4F0895AA1BBB1B51E136
:102AD00007C0AA1FBB1FA617B70710F0A61BB70B8E
:102AE000881F991F5A95A9F780959095BC01CD0133
:102AF0000895EE0FFF1F0590F491E02D0994F894CE
:022B0000FFCF05
:102B020010FFFFFFFF00E1000000000000000000D6
:102B120000C2091109170816081608160816080037
:102B2200C1808100000002020001000100000000DB
:102B3200000000000000000012088C09C808000014
:102B42000000A0040B06C104B6040705C504E30493
:102B520000000000480790060F080E084D616B69DF
:102B62006E67206120627269636B0A00496D61675A
:102B720065206973207374617274696E670A004715
:102B8200616D65576F726C6420697320696E697438
:102B920069616C697A696E670A00416464696E678B
:102BA20020496D6167650A00576F726C64206F621D
:102BB2006A65637473206C656E6774683A200041BD
:102BC2006464696E6720474F0A00576F726C644FE6
:102BD200626A6563742073697A653A20004F626A9B
:102BE2006563742000783A20006E616E00696E663B
:062BF200006F7666000092
:00000001FF
