:100000000C94E7030C940F040C940F040C940F044D
:100010000C940F040C940F040C940F040C940F0414
:100020000C940F040C940F040C94420A0C94B10A23
:100030000C940F040C940F040C940F040C940F04F4
:100040000C940F040C940F040C940F040C940F04E4
:100050000C940F040C940F040C940F040C94E30CF8
:100060000C940F040C940F040C940F040C940F04C4
:100070000C940F040C940F040C940F040C940F04B4
:100080000C940F040C940F040C940F040C940F04A4
:100090000C940F040C940F040C940F040C940F0494
:1000A0000C940F040C940F040C940F0400B0000087
:1000B000A170E150964F26900F1D070C0096690025
:1000C0004AE44A0048444000806810000F99FB8FC2
:1000D0009DBDBBFB77D4D4DF1F1A1AFE7F5D5DFF89
:1000E000805A0000A0A4AA0010BA3400FF5953F3AC
:1000F000FF9B9B9EFFB9B996FF9595D19FF4940FF6
:10010000FC295F91FF1838F8FF9294FFFF95D5F70F
:10011000BFB5DDD7F18F81F1F788C8F779C6467989
:1001200009FD9B090196F80082818280507162006E
:100130007756560076763700A2B77301077206002D
:100140007827500073347400775176007F55F7009C
:1001500047711000324772007364730015A2750076
:1001600061679400009F6060F4F2F6F20000000006
:10017000003E5B4F5B3E3E6B4F6B3E1C3E7C3E1C2D
:10018000183C7E3C181C577D571C1C5E7F5E1C0073
:10019000183C1800FFE7C3E7FF0018241800FFE72A
:1001A000DBE7FF30483A060E2629792926407F05ED
:1001B0000507407F05253F5A3CE73C5A7F3E1C1C03
:1001C00008081C1C3E7F14227F22145F5F005F5FC3
:1001D00006097F017F006689956A606060606094AF
:1001E000A2FFA29408047E040810207E20100808B4
:1001F0002A1C08081C2A08081E101010100C1E0CBF
:100200001E0C30383E3830060E3E0E060000000050
:100210000000005F00000007000700147F147F1437
:10022000242A7F2A1223130864623649562050007C
:1002300008070300001C2241000041221C002A1C68
:100240007F1C2A08083E0808008070300008080853
:100250000808000060600020100804023E51494573
:100260003E00427F400072494949462141494D3391
:100270001814127F1027454545393C4A49493141F8
:10028000211109073649494936464949291E0000C6
:10029000140000004034000000081422411414141B
:1002A0001414004122140802015909063E415D5907
:1002B0004E7C1211127C7F494949363E4141412210
:1002C0007F4141413E7F494949417F090909013E3A
:1002D000414151737F0808087F00417F4100204061
:1002E000413F017F081422417F404040407F021C73
:1002F000027F7F0408107F3E4141413E7F0909098A
:10030000063E4151215E7F09192946264949493255
:1003100003017F01033F4040403F1F2040201F3F1B
:100320004038403F631408146303047804036159A0
:10033000494D43007F4141410204081020004141E2
:10034000417F04020102044040404040000307088E
:100350000020545478407F2844443838444444288A
:10036000384444287F385454541800087E09021831
:10037000A4A49C787F0804047800447D40002040B9
:10038000403D007F1028440000417F40007C0478FD
:1003900004787C080404783844444438FC18242445
:1003A0001818242418FC7C080404084854545424C5
:1003B00004043F44243C4040207C1C2040201C3C42
:1003C0004030403C44281028444C9090907C446439
:1003D000544C4400083641000000770000004136CC
:1003E000080002010204023C2623263C1EA1A16152
:1003F000123A4040207A3854545559215555794184
:100400002154547841215554784020545579400C5A
:100410001E5272123955555559395454545939553B
:100420005454580000457C410002457D420001457E
:100430007C40F0292429F0F0282528F07C545545EB
:10044000002054547C547C0A097F4932494949327E
:100450003248484832324A4848303A4141217A3A93
:1004600042402078009DA0A07D39444444393D405D
:1004700040403D3C24FF2424487E4943662B2FFC0A
:100480002F2BFF0929F620C0887E090320545479B8
:10049000410000447D413048484A32384040227A89
:1004A000007A0A0A727D0D19317D2629292F282606
:1004B0002929292630484D4020380808080808080E
:1004C0000808382F10C8ACBA2F102834FA00007B67
:1004D000000008142A142222142A1408950022006D
:1004E00095AA005500AAAA55AA55AA000000FF0027
:1004F000101010FF00141414FF001010FF00FF1064
:1005000010F010F0141414FC001414F700FF000095
:10051000FF00FF1414F404FC141417101F10101F14
:10052000101F1414141F00101010F0000000001F02
:10053000101010101F10101010F010000000FF100D
:100540001010101010101010FF10000000FF140009
:1005500000FF00FF00001F10170000FC04F414143B
:100560001710171414F404F40000FF00F714141407
:1005700014141414F700F7141414171410101F1087
:100580001F141414F4141010F010F000001F101FAA
:100590000000001F14000000FC140000F010F01018
:1005A00010FF10FF141414FF141010101F0000008F
:1005B00000F010FFFFFFFFFFF0F0F0F0F0FFFFFF93
:1005C0000000000000FFFF0F0F0F0F0F38444438EA
:1005D000447C2A2A3E147E02020606027E027E0225
:1005E00063554941633844443C04407E201E200644
:1005F000027E020299A5E7A5991C2A492A1C4C7281
:1006000001724C304A4D4D303048784830BC625A07
:10061000463D3E494949007E0101017E2A2A2A2A97
:100620002A44445F444440514A444040444A514073
:100630000000FF0103E080FF000008086B6B083634
:1006400012362436060F090F0600001818000000A5
:100650001010003040FF0101001F01011E00191D94
:100660001712003C3C3C3C0000000000F0F89C8E5F
:100670008783878E9CF8F00000FEFF0303030303CB
:10068000070EFCF80000FEFF0303030303070EFC44
:10069000F80000FFFF00000000000000FFFF000066
:1006A000FEFF8383838383C7EE7C380000F8FC0E53
:1006B00007030303070EFCF800003F7FE0C08080C3
:1006C000C0E07F3FFFFF01010101010101FFFF00C9
:1006D00000FFFF0C0C0C0C1C3E77E3C100007FFFF9
:1006E000C0C0C0C0C0E0703F1F00001F3F70E0C02E
:1006F000C0C0E0703F1F00007FFFC1C1C1C1C1E3A6
:10070000773E1C00001F3F70E0C0C0C0E0703F1F7C
:10071000000000000001FFFF01000000D5F08D1473
:10072000A1C881CFD9F1AF200055502049532042B4
:1007300045494E472048454C4420444F574E0A00F7
:1007400055502057415320505245535345440A00B9
:10075000555020574153204C455420474F0A00081C
:100760000B00020202000009040000010202000066
:1007700005240010010524010101042402060524BA
:100780000600010705810310004009040100020A68
:100790000000000705020240000007058302400038
:1007A000000403090412010002EF02014041233654
:1007B0008000010102030141726475696E6F204C73
:1007C0004C430041726475626F790000600D112422
:1007D0001FBECFEFDAE0DEBFCDBF12E0A0E0B1E098
:1007E000E2E6F0E302C005900D92AE30B107D9F712
:1007F00026E0AEE0B2E001C01D92AB3EB207E1F7E9
:1008000013E0C7EED3E004C02197FE010E94FB165F
:10081000C63ED107C9F70E94180E0C942F180C94ED
:1008200000004091AD065091AE0641155105E1F032
:100830002091B1063091B2066091AF067091B0067A
:100840002617370788F4B9016F5F7F4F7093B206A0
:100850006093B106FC0180819181220F331F240F28
:10086000351FF90191838083089580E0ECE8F2E080
:1008700081118FEF0024819381938193819303945D
:10088000D1F70895ECE8F2E0A0E0B8E000800EBCFB
:100890008111012C1197A0FDFDCF0192B9F70DB484
:1008A0000895FC0180913B02882311F13FB7F89431
:1008B00082E08093E9002091F200822F90E01816E8
:1008C000190614F481E090E0882339F0289844E672
:1008D00040933A024091F1004083222339F0209165
:1008E000F200211103C02BE62093E8003FBF0895DA
:1008F0008FEF9FEF08952FB7F89483E08093E9007E
:100900009091E800892F807295FF04C09091F200C9
:1009100080E4891B2FBF08958091320281110DC0A0
:1009200082E080932E0284E080932F0210923102A5
:100930001092300281E0809332028EE292E00895BC
:10094000CF93DF931F92CDB7DEB76983DC01ED91C2
:10095000FC910280F381E02D41E050E0BE016F5F29
:100960007F4F09950F90DF91CF91089583E0809399
:10097000E9008091F200882319F08AE38093E8006F
:1009800008950E947B0490E00895CF93DF931F9217
:10099000CDB7DEB7FC018485958597FD08C02FEFA4
:1009A0003FEF358724870F90DF91CF910895CE01D7
:1009B00001960E945104019719F4898190E0F3CFC8
:1009C0008FEF9FEFF0CF0F931F93CF93DF931F9283
:1009D000CDB7DEB78C01FC018485958597FF0BC0F0
:1009E000CE0101960E945104019771F4898190E033
:1009F000F80195878487F801848595850F90DF91AC
:100A0000CF911F910F9108958FEF9FEFF1CFFC01D0
:100A10008485958597FD0BC09FB7F89482E08093FD
:100A2000E9008091F2009FBF90E0019608959FB782
:100A3000F89482E08093E9008091F2009FBF90E0FB
:100A40000895409128025091290220912602309168
:100A5000270242175307B4F49091E8009570E1F330
:100A60009091E80092FD19C08093F10080912802D6
:100A70009091290201968F739927892B19F48EEF93
:100A80008093E8008091280290912902019690932A
:100A900029028093280281E0089580E00895DF9282
:100AA000EF92FF920F931F93CF93DF93D82E8A017B
:100AB000EB017B01E40EF51ECE15DF0559F0D7FEE4
:100AC00012C0FE0184910E94210521968111F4CF6C
:100AD0000FEF1FEFC801DF91CF911F910F91FF9092
:100AE000EF90DF9008958881EECF0F931F93CF93FF
:100AF000DF931F92CDB7DEB782E0898342E450E0F6
:100B00006FE577E080E80E944F050E948C04DC01CD
:100B100012960D911C910115110589F0D801ED91E6
:100B2000FC910280F381E02DBE016F5F7F4FC80111
:100B3000099597FD04C0F80100851185ECCF8981E6
:100B40000F90DF91CF911F910F910895615030F078
:100B50002091F100FC0120830196F8CF289884E6CB
:100B600080933A0208953FB7F894809122029091C1
:100B70002302A0912402B091250226B5A89B05C0AE
:100B80002F3F19F00196A11DB11D3FBFBA2FA92F0C
:100B9000982F8827BC01CD01620F711D811D911D09
:100BA00042E0660F771F881F991F4A95D1F7089575
:100BB0008F929F92AF92BF92CF92DF92EF92FF926D
:100BC0006B017C010E94B3054B015C01C114D1048F
:100BD000E104F104B9F00E94B305681979098A09A2
:100BE0009B09683E73408105910580F321E0C21A9C
:100BF000D108E108F10888EE880E83E0981EA11C58
:100C0000B11CE4CFFF90EF90DF90CF90BF90AF90FA
:100C10009F908F9008958F929F92AF92BF92CF92A4
:100C2000DF92EF92FF920F931F93CF93DF936C01AC
:100C30007B018A0180910C01882309F45CC08091BA
:100C40003B02882309F457C080912D0280FF05C024
:100C50008091E00082608093E000E801B12C8AEF8F
:100C6000A82E93E0892E2AE3922E209711F4BB2020
:100C7000D9F10E947B0481110AC0AA94AA20D9F15B
:100C800061E070E080E090E00E94D805EECF8C1724
:100C90001D0611F00CF08C2F9FB7F8948092E9009C
:100CA0002091E80025FD02C09FBFDFCF282F30E054
:100CB000C21BD30BF701815020F041914093F1000A
:100CC000FACFE20EF31EBB2021F09092E800B12C87
:100CD000EBCF8091E80085FDE7CF9092E800BB2440
:100CE000B394209709F3F3CF5D9884E680932C02A8
:100CF000101611063CF081E090E0F60193838283A8
:100D000010E000E0C801DF91CF911F910F91FF909B
:100D1000EF90DF90CF90BF90AF909F908F9008950D
:100D2000AF92BF92CF92DF92EF92FF920F931F93F9
:100D3000CF93DF936C017B018B01040F151FEB0137
:100D40005E01AE18BF08C017D10759F06991D601EE
:100D5000ED91FC910190F081E02DC6010995892B60
:100D600079F7C501DF91CF911F910F91FF90EF901F
:100D7000DF90CF90BF90AF9008952D9A0895BC0159
:100D800090E080E00C94D8058FB18095807F669BC1
:100D900088601C9B84600895CF93C82F0E94C4066E
:100DA000982F9C2381E09C1380E0CF91089580E0F0
:100DB0000C9442046F927F928F929F92AF92BF9257
:100DC000CF92DF92EF92FF920F931F93CF93DF9317
:100DD0004C017B01C22F102F98E0A92EB12C642E5C
:100DE000669466946694712CCA0187709927892B42
:100DF00079F5D40117962D913C91C7019927B90136
:100E00000E94D316269DF001279DF00D369DF00D12
:100E100011248E0F9F1FD4011596ED91FC91E80FC0
:100E2000F91F2081111112C0C095C223C083DF9128
:100E3000CF911F910F91FF90EF90DF90CF90BF90D7
:100E4000AF909F908F907F906F900895C22BEECFC0
:100E5000D0E04770C42ED12C83E0660C771C8A95B5
:100E6000E1F79E0101C0220F4A95EAF7012FA30185
:100E7000B701C4010E94DA06A301485F5F4FC501B4
:100E80008C199D0902C0D595C7958A95E2F7A7CF21
:100E90005F926F927F928F929F92AF92BF92CF920A
:100EA000DF92EF92FF920F931F93CF93DF93EC01AA
:100EB0006A30F1F48D859E859C878B878C892F8580
:100EC0003889820F932F911D988B8F8781E090E056
:100ED000DF91CF911F910F91FF90EF90DF90CF9016
:100EE000BF90AF909F908F907F906F905F9008958C
:100EF000AB84BC84693031F429E0A20EB11CBC86FD
:100F0000AB86E4CF3DEFA3163FEFB3060CF45DC014
:100F10008F819885A816B9060CF057C0CF84D88861
:100F20008DEFC8168FEFD8060CF44FC089859A85CF
:100F3000C816D9060CF049C0603208F46FE780EE9D
:100F4000860F9FE9960F9A3118F49FEFC91AD90AB4
:100F50008C3011F08B3119F42FEFC21AD20A86951A
:100F600034E0839FC00111249C0124553F4F790137
:100F7000912C812C162F1170F701E80DF91D54905A
:100F800011112DC0352D3F70532E3501680C791C81
:100F90008C81882361F001E089899A89892B09F085
:100FA00000E02FE0A601B301CE010E94DA06098914
:100FB000252DA601B301CE010E94DA068FEF881A13
:100FC000980A94E089169104B9F68B8990E004960A
:100FD0002B853C85820F931F9C878B8777CF5294FC
:100FE0008FE05822D2CF0F931F93CF93DF938C01C2
:100FF000D0E0C0E0F801EC0FFD1F6491662341F0E2
:101000008CE896E00E944807892B11F02196F2CFD8
:10101000CE01DF91CF911F910F910895089590E037
:1010200080E0089560E070E0CB0108950895089590
:10103000CF92DF92EF92FF920F931F93CF938C0189
:101040006A017B0126E636ED43E254E4CB01B601AA
:101050000E945C16F801C4811816C4F126E636ED2C
:1010600043E254ECC701B6010E94FD1487FD25C080
:1010700020E030E0A901C701B6010E94FD1487FFFE
:101080002DC0F7FAF094F7F8F094CE7FF801C483FE
:1010900020E030E048EC52E4C701B6010E9461163E
:1010A0000E947415F80170876783CF911F910F918B
:1010B000FF90EF90DF90CF90089596E6C92E96EDC1
:1010C000D92E93E2E92E94ECF92EDBCF86E6C82EDA
:1010D00086EDD82E83E2E82E84E4F82EC160D6CFC8
:1010E000CF92DF92EF92FF920F931F93CF938C01D9
:1010F0006A017B0126E636ED43E254E4CB01B601FA
:101100000E945C16F801C4811816C4F126E636ED7B
:1011100043E254ECC701B6010E94FD1487FD25C0CF
:1011200020E030E0A901C701B6010E94FD1487FF4D
:101130002DC0F7FAF094F7F8F094CD7FF801C4834E
:1011400020E030E048EC52E4C701B6010E9461168D
:101150000E947415F80176836583CF911F910F91DA
:10116000FF90EF90DF90CF90089596E6C92E96ED10
:10117000D92E93E2E92E94ECF92EDBCF86E6C82E29
:1011800086EDD82E83E2E82E84E4F82EC260D6CF16
:101190000F931F93CF93DF93CDB7DEB729970FB689
:1011A000F894DEBF0FBECDBF87E191E09A838983BB
:1011B0001C821B8280EE8D8340E050E0BA018E01DC
:1011C0000F5F1F4FC8010E94700840E050E0BA0155
:1011D000C8010E941808B80181E090E029960FB676
:1011E000F894DEBF0FBECDBFDF91CF911F910F915D
:1011F00008950F931F93CF93DF93CDB7DEB7619719
:101200000FB6F894DEBF0FBECDBF87E191E09A83A1
:1012100089831C821B8280EE8D8340E050E0BA01FE
:101220008E010F5F1F4FC8010E94700840E050E020
:10123000BA01C8010E94180887E191E09A83898366
:1012400088E08A8780E18B871C861D861C821B8232
:1012500040E050E0BA01C8010E94700840E050E050
:10126000BA01C8010E941808B80183E090E06196B5
:101270000FB6F894DEBF0FBECDBFDF91CF911F91A7
:101280000F910895CF93DF932091180227FF1FC07D
:10129000EC016D817E8190E080E00E94AA152C8196
:1012A00021FF13C020E030E048EC52E40E94021518
:1012B00020E030E040E85FE30E949114AB01BC0104
:1012C000CE01DF91CF910C9470089058EBCFDF9155
:1012D000CF910895FC0101900020E9F73197AF010B
:1012E000481B590BBC018CE896E00C9490068F9239
:1012F0009F92AF92BF920F931F93CF93DF93CDB77F
:10130000DEB7A1970FB6F894DEBF0FBECDBF19A20E
:10131000423008F44AE08E010F5D1F4F842E912C5D
:10132000B12CA12CA50194010E946E14E62FB901E5
:10133000CA01EA30F4F4E05DD801EE938D01232B6D
:10134000242B252B79F790E080E0109719F0CD0140
:101350000E946A09A1960FB6F894DEBF0FBECDBFFA
:10136000DF91CF911F910F91BF90AF909F908F9081
:101370000895E95CE1CF0C946A090F931F93CF9312
:10138000DF93CDB7DEB72D970FB6F894DEBF0FBE53
:10139000CDBF87E191E09A8389831C821B8280EE16
:1013A0008D834AE959E966E972E48E010F5F1F4FA8
:1013B000C8010E94700840E050E0BA01C8010E94D4
:1013C000180887E191E09A83898388E08A878B8770
:1013D0001C861D861C821B824AE959E966E972E473
:1013E000C8010E94700840E050E0BA01C8010E94A4
:1013F00018081D8288E591E00E94BB09B80182E0CF
:1014000090E02D960FB6F894DEBF0FBECDBFDF91F2
:10141000CF911F910F91089588E691E00C94BB093C
:10142000CF92DF92EF92FF92CF93DF936C01990FEF
:10143000EE08FF08F7FE19C06DE28CE896E00E9406
:101440004807EC0166277727CB016C197D098E09C7
:101450009F094AE00E9477098C0F9D1FDF91CF9171
:10146000FF90EF90DF90CF9008954AE0C701B6015A
:10147000DF91CF91FF90EF90DF90CF900C947709A0
:101480000C9458141F920F920FB60F9211248F9341
:101490009F938091E1009091E100937F9093E10010
:1014A00083FF0FC01092E90091E09093EB0010923F
:1014B000EC0092E39093ED0010923B0298E0909341
:1014C000F00082FF22C093E09093E9009091F20037
:1014D000992319F09AE39093E80090912C029923B4
:1014E00041F090912C02915090932C02911101C0E7
:1014F0005D9A90913A02992341F090913A0291506D
:1015000090933A02911101C0289A84FF18C08091EB
:10151000E2008E7E81608093E2008091E1008F7E08
:101520008093E10080912D028E7E806180932D0258
:101530009F918F910F900FBE0F901F90189580FF75
:10154000F7CF8091E2008E7E80618093E2008091EF
:10155000E1008E7E8093E10080912D028E7E81607D
:10156000E5CF1F920F920FB60F921124CF92DF9208
:10157000EF92FF920F931F932F933F934F935F939D
:101580006F937F938F939F93AF93BF93EF93FF934B
:10159000CF93DF93CDB7DEB76C97DEBFCDBF109290
:1015A000E9008091E80083FF25C068E0CE01459600
:1015B0000E94A60582EF8093E8008D8987FF39C0DD
:1015C0009091E80090FFFCCF982F907609F034C1FD
:1015D0009E894F89588D2F89F88C911131C08038A0
:1015E00061F580912B028093F1001092F1008EEF53
:1015F0008093E8006C960FB6F894DEBF0FBECDBFA7
:10160000DF91CF91FF91EF91BF91AF919F918F911A
:101610007F916F915F914F913F912F911F910F910A
:10162000FF90EF90DF90CF900F900FBE0F901F9024
:1016300018959EEF9093E800C7CF1092F100D5CF98
:10164000913059F48111D3CF4130510581F6809109
:101650002B028D7F80932B02CACF933049F48111E6
:10166000C6CF4130510519F680912B028260F2CF2E
:10167000953041F48091E80080FFFCCF20682093F2
:10168000E300B5CF963009F0A9C00B8D1C8D22E088
:101690001092E9001092290210922802F2122EC034
:1016A00010922702109226020E9475051F8299E06F
:1016B0009983FA8291E09E8390EA98879AEF9987BE
:1016C0002091280230912902275F3F4F3C832B83D2
:1016D0008D831092E9001092290210922802109333
:1016E00027020093260249E050E0BE016F5F7F4F62
:1016F00080E00E944F050E94750579CF1093270264
:10170000009326020E948C04DC0112960D911C911C
:101710000115110509F451C1D801ED91FC91048026
:10172000F581E02DBE016B5E7F4FC80109950097E2
:1017300009F03EC1F80100851185EACFF3E0FF1200
:101740000EC08F89882309F440C0823061F440E8DC
:1017500067E083EC97E00E942D0D811148CF81E274
:101760008093EB0047CF813029F440E86BE087EBB2
:1017700097E0F1CF833099F70E948C04DC01129638
:10178000ED90FC908E010F5F1F4F6801E114F10492
:1017900079F0D701ED91FC910680F781E02DB80139
:1017A000C7010995080F111DF701E084F184EECF00
:1017B000D8011C92F60101900020E9F73197BF0192
:1017C0006C197D0940E0C601C6CF61EA77E0FB01F4
:1017D000449150E080E80E944F0509CF973009F40A
:1017E000BECF983021F481E08093F10000CF993092
:1017F00009F0FDCE837009F0B2CFE4E3F1E081E0BF
:1018000031E096E32191222371F08093E900309337
:10181000EB00DF0111972C912093EC009093ED00E9
:101820008F5F873079F78EE78093EA001092EA00A5
:101830008F8980933B02DBCE8B8D9C8D1092E900CB
:101840001092290210922802909327028093260278
:10185000898D811192C08E899D89913A49F4813296
:1018600009F07DCF47E050E065E071E080E0B3CF64
:10187000913209F074CF833269F48F89988DB0E08A
:10188000A0E08093010190930201A0930301B09323
:101890000401ADCE803269F48091E80082FFFCCF74
:1018A00067E085E091E00E94A6058BEF8093E80059
:1018B0009ECE823209F09BCE8F8980930C01EEEF91
:1018C000FFE7859194918B3F9C4D51F1E0E0F8E06A
:1018D0008091050190910601A0910701B091080146
:1018E000803B9440A105B105F1F480910C0180FD8D
:1018F0001AC0EE3F8AE0F80789F587E797E79183FA
:1019000080838091600080932A0288E19BE00FB67B
:10191000F894A895809360000FBE9093600067CE06
:10192000EEEFFAE0D5CF808191818737974709F0B4
:101930005ECEA89580916000886180936000809160
:101940002A0280936000EE3F2AE0F20789F080913E
:10195000FE0A9091FF0A9183808349CE8081918114
:101960008737980751F29093FF0A8093FE0AC5CFFC
:101970001092FF0A1092FE0A3ACE0E948C04DC01FB
:1019800012960D911C910115110509F4E8CED801AC
:10199000ED91FC910190F081E02DBE016B5E7F4FD7
:1019A000C8010995811123CEF80100851185EBCF7F
:1019B000181619060CF41BCED2CEF1E0FF12BECEE3
:1019C00065EA77E004CF1F920F920FB60F921124B1
:1019D0002F933F938F939F93AF93BF9380911E025A
:1019E00090911F02A0912002B091210230911D021E
:1019F00023E0230F2D3758F50196A11DB11D20932B
:101A00001D0280931E0290931F02A0932002B093A8
:101A100021028091220290912302A0912402B09190
:101A200025020196A11DB11D8093220290932302ED
:101A3000A0932402B0932502BF91AF919F918F9103
:101A40003F912F910F900FBE0F901F90189526E891
:101A5000230F0296A11DB11DD2CFEF92FF920F93DB
:101A60001F93CF93DF93F82E192FE62E042F81E0DA
:101A7000860F880F0E94210583E00E942105CF2D4B
:101A8000D12FEC0EFD2EF11CCE15DF05B9F007FFAE
:101A900013C0FE0184910E942105182F80E00E944E
:101AA0002105812321968111EFCFDF91CF911F91E5
:101AB0000F91FF90EF9008958881EDCF81E0F5CFF1
:101AC000CF92DF92FF920F931F93CF93DF931092E9
:101AD0003F0210923E0288EE93E0A0E0B0E08093D7
:101AE000400290934102A0934202B09343028EE3DE
:101AF00091E090933D0280933C028FEF9FEF909393
:101B000049028093480210928F0610928E0680E55B
:101B100091E090938D0680938C068CE892E09093F0
:101B200092068093910680E890E0909394068093CB
:101B3000930680E490E0909396068093950685E066
:101B40008093A00681E080939F0610929A061092DF
:101B5000990610929C0610929B061092980610927D
:101B6000970681E090E090939E0680939D061092E8
:101B700090061092A8061092A7061092AA0610923C
:101B8000A9061092AC061092AB061092A206109213
:101B9000A1061092A4061092A3061092A606109217
:101BA000A5061092AE061092AD061092B0061092E5
:101BB000AF061092B2061092B106CAEBD6E007EE5D
:101BC00016E087E1C82E81E0D82E90EEF92ED9825A
:101BD000C8821B821A82FC8240E050E0BA01CE012A
:101BE0000E94700840E050E0BA01CE010E9418083F
:101BF00029960C171D0759F71092B7061092B606D2
:101C000085E090E09093B9068093B8068093B30680
:101C10008AE090E00E9401179093B5068093B40685
:101C2000DF91CF911F910F91FF90DF90CF9008959A
:101C3000CF93DF9300D000D000D0CDB7DEB778943B
:101C400084B5826084BD84B5816084BD85B58260C1
:101C500085BD85B5816085BD80916E008160809372
:101C60006E001092810080918100826080938100DB
:101C700080918100816080938100809180008160EB
:101C80008093800080919100826080939100809188
:101C90009100816080939100809190008160809399
:101CA00090008091C10084608093C1008091C10048
:101CB00082608093C1008091C10081608093C100E7
:101CC0008091C30081608093C3008091C0008260D6
:101CD0008093C0008091C20081608093C200809197
:101CE0007A00846080937A0080917A008260809389
:101CF0007A0080917A00816080937A0080917A00E6
:101D0000806880937A0010923B0210922B0210920E
:101D10002D028091D70081608093D70080EA809364
:101D2000D80089B5806189BD89B5826089BD09B453
:101D300000FEFDCF61E070E080E090E00E94D805F9
:101D40008091D8008F7C80618093D8008091E000E2
:101D5000807F8093E0008091E1008E7E8093E1009F
:101D60008DE08093E200559A209A81EC80937C006C
:101D700085B1806F85B984B1877E84B984B1876E5F
:101D800084B95E9A5F988AB1806D8AB9769A6E98A6
:101D900081B3806F81BB899880B38D7080BB80E5F3
:101DA0008CBD81E08DBD85E090E00E94BF065F9A0A
:101DB00085E090E00E94BF065E985C98ECE1F7E059
:101DC00084918EBD00000DB407FEFDCF319627E053
:101DD000E932F207A9F75C9A81E880936400809168
:101DE00065008160809365000E94D70680E80E94AC
:101DF000CC068823A9F05C9885EA8EBD00000DB45E
:101E000007FEFDCF5C9A2E982F982D988091640044
:101E100080628093640081E083BF889513BEFCCF0D
:101E200084E00E94CC06882309F448C02D9884E8F9
:101E30000E94CC068823E1F00E94BD0688EC90E069
:101E40000E94BF062F9882E090E00E9458148F3FB6
:101E500029F06FEF82E090E00E94601484EF91E03F
:101E60000E94BF062F9A84E80E94CC068111FBCF06
:101E700084E10E94CC068823E1F00E94BD0688EC34
:101E800090E00E94BF062E9882E090E00E945814D5
:101E9000882329F060E082E090E00E94601484EFE3
:101EA00091E00E94BF062E9A84E10E94CC06811127
:101EB000FBCF88EC90E00E94BF06B2CF0E94BD0627
:101EC00082E090E00E94400A882309F455C03E9ABF
:101ED0003F9A81E090E00E94400A382F3470732EC0
:101EE00081FF11C031112E9801EF1FEF68E0A62E7F
:101EF000B12C80E40E94CC06882309F440C02E9ABD
:101F00002F9A0E94BD0682E390E00E94BF060E94C5
:101F1000C4068111F8CF0E94350410921502109268
:101F20001402109213021092120288EE80930001A4
:101F30008BE791E00E94BB092091AB063091AC0683
:101F4000E091A706F091A80690E080E028173907F5
:101F500009F032C12091A5063091A606E091A106B4
:101F6000F091A20690E080E02817390709F428C113
:101F7000119211920196F8CF3E983F98AACF772000
:101F800029F00430110511F42E9A2F9881E00E9457
:101F90004204980117FF04C022273327201B310B6E
:101FA00027703327C80117FD079653E0959587954D
:101FB0005A95E1F717FF05C00197A501421B530B86
:101FC0009A01BC017695762F662777956795645FB1
:101FD0007C4FF12CE12C2501421A530A8E3F5FEF12
:101FE0009507C1F1DB01A058B10950E040E0F701CD
:101FF000E459F94F4F018F3F980781F0F401E40F46
:10200000F51FE491022E01C0EE0F0A94EAF75496F0
:10201000FC915497EF2B5496EC935497211531056E
:1020200099F0F401E40FF51FE4916B01C40ED51E85
:10203000F0E01F01042C02C0359427940A94E2F7C3
:10204000F60164882628248A4F5F5F4F1196483531
:10205000510589F60196F8E5EF0EF11C60587F4FA7
:1020600040EBE416F10409F0B9CF0E94D7068FE0E7
:1020700090E00E94BF060F5F1F4F0931110509F064
:1020800038CF772011F02F9A2D9880E991E00E94A7
:10209000BF060E94BD0681E090E00E94400A80FFDA
:1020A00032CF8AE090E00E94400A9FEF980F9E3F57
:1020B00008F029CF22E330E030931302209312027C
:1020C00028E330E030931502209314020BE010E077
:1020D00095E0E92E20E1F22E8D3081F0409114023E
:1020E000509115028A30C9F4109213021092120214
:1020F000485F5F4F5093150240931402C8010E943D
:10210000400A0F5F1F4F0131110531F70E94D706BA
:1021100088EE93E00E94BF06F6CE20901202309027
:1021200013028E9DF0011124E459FE4FB101B12C30
:1021300085E0A12CB81621F0CF010196A490FC01F6
:10214000D12CC12C9A2D9170992E60387105D8F43C
:10215000CA018C0D9D1D80349105A8F49C0181E07D
:1021600021FD84E020FD880F22FD8295287FF29ECC
:10217000D0011124A60F882EA457BD4F8C91992011
:10218000C1F088298C93A6949FEFC91AD90AA8E0B8
:10219000CA16D104B9F6B3946F5F7F4FB6E0BB1295
:1021A000C7CF91012A5F3F4F309313022093120251
:1021B000A5CF80948821E6CF119211920196C6CEC8
:1021C000EFE2F1E0FE83ED83812C912C5401240198
:1021D0003501B2E02B2E312C20FC0DC020E030E088
:1021E00040E850E4C301B2010E9491142B013C016C
:1021F000812C912C5401AD81BE81ED91BE83AD83C4
:10220000F0E0EE0FFF1FEB5DFE4F0190F081E02D3F
:1022100009956B017C01B501A401C6010E947008FB
:10222000B301A201C6010E941808B2E0EB16F10446
:1022300009F456C0E3E0EE16F10409F482C0EA9412
:10224000EF2871F4DC82CB82D601ED91FC910190F4
:10225000F081E02DC6010995CE0103960E9411047C
:1022600020E030E040E850E4C501B4010E94911440
:102270004B015C01FFEF2F1A3F0A26E022163104C2
:1022800009F0AACF66246394E0E08E2EE0E09E2E53
:102290007724739480911C0281110AC00E94C406A5
:1022A0008093190280E40E94CC06811170921C0276
:1022B0008FB7F89440911E0250911F026091200246
:1022C000709121028FBF80911002882309F463C0AE
:1022D0001092100281149104E9F20E940000DACFFA
:1022E000D601ED91FC910190F081E02DC601099598
:1022F000DA82C982CE0101960E9411042091A106C2
:102300003091A2062115310509F4AACF8091A506C6
:102310009091A6064091A3065091A40684179507B4
:1023200008F09ECFAC014F5F5F4F5093A6064093DD
:10233000A506880F991F820F931FFC01D182C082CE
:102340008FCFD601ED91FC910190F081E02DC60177
:102350000995DA82C982CE0101960E94110420916A
:10236000A7063091A8062115310509F479CF80918F
:10237000AB069091AC064091A9065091AA0684172D
:10238000950708F06DCFAC014F5F5F4F5093AC06DF
:102390004093AB06CECF80911102342F381B832F90
:1023A00090910001391740F48F5F891708F092CFA0
:1023B00063BE889513BE8ECF7092100240931102B7
:1023C00080910E0290910F02019690930F028093DC
:1023D0000E0280911C02882309F47CCF10921C020B
:1023E0000E94C4068093190280E80E94CC0610E087
:1023F000811110E880E10E94CC068111106480E216
:102400000E94CC068111106280E40E94CC068111EA
:10241000106184E00E94CC068111186088E00E945F
:10242000CC068111146000911802F12EF094F02274
:10243000F0921702009501230093160210931802E0
:102440000E94350410921502109214021092130289
:102450001092120210929A06109299061092980603
:102460001092970610929C0610929B0680E597E0CA
:10247000F7FC08C080E497E007FD04C017FF04C024
:1024800089E297E00E94F30780911A0290911B0263
:10249000873091050CF0F5C001962AE0289F700165
:1024A000299FF00C112486E991E00E94BB098091DC
:1024B000B6069091B7062091B8063091B906821BF6
:1024C000930B0E94100A89E791E00E94BB0940919A
:1024D000B8065091B9068091B6069091B706841B54
:1024E000950B97FD68C0CDB6DEB68091B306840F1C
:1024F000952F911D880F991FADB7BEB7A81BB90BBB
:102500000FB6F894BEBF0FBEADBF0DB71EB70F5FBD
:102510001F4FA090B406B090B506440F551FB501EB
:10252000C8010E942618A114B10419F0C5010E9427
:102530009D171093B5060093B4068091B3062091C1
:10254000B8063091B906820F932F911D9093B9066A
:102550008093B80610E000E08091B8069091B9062B
:1025600008171907F8F48CEA91E00E94BB09C8012A
:102570000E94100A83EE91E00E94BB09C801880FF7
:10258000991FE091B406F091B506E80FF91F80811C
:1025900091810E94100A89E791E00E94BB090F5FB8
:1025A0001F4FDACF85EB91E00E94BB090FB6F8947C
:1025B000DEBE0FBECDBE85EC91E00E94BB096091EE
:1025C000B8067091B90690E080E04AE00E94770971
:1025D00089E791E00E94BB098CEC91E00E94BB0965
:1025E0006091B6067091B70690E080E04AE00E94E4
:1025F000770989E791E00E94BB098091B606909126
:10260000B706880F991FE091B406F091B506E80F60
:10261000F91FF182E08210E000E08091B60690910F
:10262000B70608171907F8F48CED91E00E94BB0972
:10263000C8010E94100A82EE91E00E94BB09C80105
:10264000880F991FE091B406F091B506E80FF91FC5
:10265000808191810E94100A89E791E00E94BB0964
:102660000F5F1F4FDACF01969093B7068093B6069F
:1026700080911A0290911B02019690931B02809305
:102680001A028CEE91E00E94BB098091B6069091EF
:10269000B7060E94100A89E791E00E94BB090AEB85
:1026A00016E0B12CA12C8091B1069091B206A8162B
:1026B000B90608F0C8C089EF91E00E94BB09C501C6
:1026C0000E94100A88ED91E00E94BB09F801848104
:1026D0006581768190E081FF1FC080E00E94AA158D
:1026E00020E030E048EC52E40E9402156B017C01CE
:1026F000AC019B010E94CE16882399F081E092E004
:102700000E946A0989E791E00E94BB09FFEFAF1AB6
:10271000BF0A075F1F4FC7CF80E00E94AA159058DD
:10272000DFCF16012701E89457F82FEF3FEF4FE76F
:102730005FE7C201B1010E94CE1681110DC02FEFDB
:102740003FEF4FE75FE7C201B1010E94FD14181689
:102750001CF485E092E0D4CF2FEF3FEF4FE75FE42A
:10276000C701B6010E945C1618161CF489E092E0BD
:10277000C7CF2FEF3FEF4FE75FECC701B6010E94D5
:10278000FD1487FDF3CF20E030E0A901C701B601B9
:102790000E94FD1487FF09C06DE28CE896E00E945C
:1027A0004807F7FAF094F7F8F0942AE037ED43EA97
:1027B0005BE3C701B6010E9491141B012C010E942A
:1027C0007B156B017C010E94AA159B01AC01C20123
:1027D000B1010E9490141B012C014AE0C701B6010F
:1027E0000E9477096EE28CE896E00E94480720E09C
:1027F00030E040E251E4C201B1010E9461161B01C8
:102800002C010E947B156B01F12CE12C4AE0C701E1
:10281000B6010E947709C701B6010E94AA159B0163
:10282000AC01C201B1010E94901420E030E040E20E
:1028300051E40E9461160E947B1590E080E04AE01E
:102840000E9477095FCF10E000E08091B60690917A
:10285000B706081719074CF589EF91E00E94BB09EC
:10286000C8010E94100A83EE91E00E94BB0980918A
:10287000B6069091B70608171907A0F4E091B406C0
:10288000F091B506C801880F991FE80FF91F8081E4
:1028900091810E94100A89E791E00E94BB090F5FB5
:1028A0001F4FD3CF90E080E0F4CF0E94D70612CD27
:1028B000F999FECF92BD81BDF89A992780B5089508
:1028C000262FF999FECF1FBA92BD81BD20BD0FB64C
:1028D000F894FA9AF99A0FBE01960895A1E21A2E79
:1028E000AA1BBB1BFD010DC0AA1FBB1FEE1FFF1FB4
:1028F000A217B307E407F50720F0A21BB30BE40B04
:10290000F50B661F771F881F991F1A9469F760954A
:102910007095809590959B01AC01BD01CF01089504
:102920005058BB27AA270E94A8140C9422160E9474
:10293000141638F00E941B1620F039F49F3F19F44A
:1029400026F40C9411160EF4E095E7FB0C940B168C
:10295000E92F0E94331658F3BA17620773078407EA
:10296000950720F079F4A6F50C9455160EF4E09531
:102970000B2EBA2FA02D0B01B90190010C01CA0139
:10298000A0011124FF27591B99F0593F50F4503EE4
:1029900068F11A16F040A22F232F342F4427585FD6
:1029A000F3CF469537952795A795F0405395C9F7EE
:1029B0007EF41F16BA0B620B730B840BBAF09150A6
:1029C000A1F0FF0FBB1F661F771F881FC2F70EC045
:1029D000BA0F621F731F841F48F487957795679518
:1029E000B795F7959E3F08F0B0CF9395880F08F004
:1029F0009927EE0F9795879508950E94E71508F49B
:102A000081E008950E9416150C9422160E941B1650
:102A100058F00E94141640F029F45F3F29F00C94FE
:102A20000B1651110C9456160C9411160E94331665
:102A300068F39923B1F3552391F3951B550BBB27ED
:102A4000AA2762177307840738F09F5F5F4F220F32
:102A5000331F441FAA1FA9F335D00E2E3AF0E0E829
:102A600032D091505040E695001CCAF72BD0FE2F73
:102A700029D0660F771F881FBB1F26173707480707
:102A8000AB07B0E809F0BB0B802DBF01FF279358BF
:102A90005F4F3AF09E3F510578F00C940B160C9462
:102AA00056165F3FE4F3983ED4F386957795679585
:102AB000B795F7959F5FC9F7880F911D96958795F4
:102AC00097F90895E1E0660F771F881FBB1F621713
:102AD00073078407BA0720F0621B730B840BBA0BD1
:102AE000EE1F88F7E09508950E947B156894B11158
:102AF0000C94561608950E943B1688F09F5798F044
:102B0000B92F9927B751B0F0E1F0660F771F881FF2
:102B1000991F1AF0BA95C9F714C0B13091F00E940C
:102B20005516B1E008950C945516672F782F882715
:102B3000B85F39F0B93FCCF3869577956795B39533
:102B4000D9F73EF490958095709561957F4F8F4FA2
:102B50009F4F0895E89409C097FB3EF490958095A7
:102B6000709561957F4F8F4F9F4F9923A9F0F92F53
:102B700096E9BB279395F695879577956795B795D1
:102B8000F111F8CFFAF4BB0F11F460FF1BC06F5FB7
:102B90007F4F8F4F9F4F16C0882311F096E911C0C9
:102BA000772321F09EE8872F762F05C0662371F0EA
:102BB00096E8862F70E060E02AF09A95660F771FFE
:102BC000881FDAF7880F9695879597F90895990FDA
:102BD0000008550FAA0BE0E8FEEF16161706E807E7
:102BE000F907C0F012161306E407F50798F0621B08
:102BF000730B840B950B39F40A2661F0232B242BDD
:102C0000252B21F408950A2609F4A140A6958FEFFB
:102C1000811D811D089597F99F6780E870E060E04D
:102C200008959FEF80EC089500240A941616170665
:102C300018060906089500240A94121613061406AD
:102C400005060895092E0394000C11F4882352F010
:102C5000BB0F40F4BF2B11F460FF04C06F5F7F4FC8
:102C60008F4F9F4F089557FD9058440F551F59F0AF
:102C70005F3F71F04795880F97FB991F61F09F3F69
:102C800079F087950895121613061406551FF2CF92
:102C90004695F1DF08C0161617061806991FF1CFE2
:102CA00086957105610508940895E894BB27662709
:102CB0007727CB0197F908950E94E71508F48FEF65
:102CC00008950E9474160C9422160E94141638F06F
:102CD0000E941B1620F0952311F00C940B160C94F7
:102CE000111611240C9456160E94331670F3959FFA
:102CF000C1F3950F50E0551F629FF001729FBB27F3
:102D0000F00DB11D639FAA27F00DB11DAA1F649F8E
:102D10006627B00DA11D661F829F2227B00DA11D41
:102D2000621F739FB00DA11D621F839FA00D611DC7
:102D3000221F749F3327A00D611D231F849F600DE8
:102D4000211D822F762F6A2F11249F5750409AF011
:102D5000F1F088234AF0EE0FFF1FBB1F661F771F9D
:102D6000881F91505040A9F79E3F510580F00C9468
:102D70000B160C9456165F3FE4F3983ED4F38695F9
:102D800077956795B795F795E7959F5FC1F7FE2B08
:102D9000880F911D9695879597F908950E94E715DC
:102DA000880B990B089597FB072E16F4009407D013
:102DB00077FD09D00E94E71607FC05D03EF49095F8
:102DC00081959F4F0895709561957F4F0895AA1B37
:102DD000BB1B51E107C0AA1FBB1FA617B70710F006
:102DE000A61BB70B881F991F5A95A9F78095909538
:102DF000BC01CD010895EE0FFF1F0590F491E02D69
:102E000009940F931F93CF93DF938230910510F4B1
:102E100082E090E0E091E906F091EA0630E020E0FF
:102E2000B0E0A0E0309799F42115310509F44AC0CB
:102E3000281B390B24303105D8F58A819B81611517
:102E4000710589F1FB0193838283FE0111C04081EA
:102E500051810281138148175907E0F0481759073B
:102E600099F4109761F012960C93129713961C9395
:102E70003296CF01DF91CF911F910F91089500936A
:102E8000E9061093EA06F4CF2115310551F04217F7
:102E9000530738F0A901DB019A01BD01DF01F801F8
:102EA000C1CFEF01F9CF9093EA068093E906CDCF29
:102EB000FE01E20FF31F8193919322503109398370
:102EC0002883D7CF2091E7063091E806232B41F4E1
:102ED00020910F01309110013093E8062093E7060E
:102EE00020910D0130910E012115310541F42DB7CE
:102EF0003EB74091110150911201241B350BE09116
:102F0000E706F091E806E217F307A0F42E1B3F0B4B
:102F10002817390778F0AC014E5F5F4F241735074B
:102F200048F04E0F5F1F5093E8064093E7068193E9
:102F300091939FCFF0E0E0E09CCFCF93DF93009799
:102F4000E9F0FC01329713821282A091E906B09158
:102F5000EA06ED0130E020E01097A1F420813181F4
:102F6000820F931F2091E7063091E8062817390752
:102F700009F061C0F093E806E093E706DF91CF9196
:102F80000895EA01CE17DF07E8F54A815B819E01CB
:102F900041155105B1F7E901FB83EA834991599144
:102FA000C40FD51FEC17FD0761F480819181029653
:102FB000840F951FE90199838883828193819B8384
:102FC0008A83F0E0E0E012968D919C911397009730
:102FD000B9F52D913C911197CD010296820F931F67
:102FE0002091E7063091E8062817390739F630971F
:102FF00051F51092EA061092E906B093E806A09304
:10300000E706BCCFD383C28340815181840F951FD3
:10301000C817D90761F44E5F5F4F88819981480FC7
:10302000591F518340838A819B8193838283211519
:10303000310509F0B0CFF093EA06E093E9069ECFA0
:10304000FD01DC01C0CF13821282D7CFFB01DC016E
:1030500002C001900D9241505040D8F70895F89465
:02306000FFCFA0
:1030620010FFFFFFFF00E10000000000000000EB86
:10307200068000000000000C0A4209170816081614
:1030820008160816081208BD09F908C80802020243
:1030920001020100C1808100000000000000A004C4
:1030A2000B06C104B6040705C504E30400000000D2
:1030B200480790060F080E084D616B696E67206124
:1030C20020627269636B0A00496D616765206973EA
:1030D200207374617274696E670A0047616D655787
:1030E2006F726C6420697320696E697469616C69BE
:1030F2007A696E670A00437572496E646578206D5D
:10310200696E75732073697A653A20004E6577207F
:10311200417272200048697420656E64206F6620D7
:103122006172720A0053697A653A200043757272BD
:10313200656E7420696E6465783A2000417272206F
:103142005B005D2076616C75653A200041727261A8
:10315200792073697A653A20004F626A6563742048
:0E316200006E616E00696E66006F766600009A
:00000001FF
