:100000000C9407040C942F040C942F040C942F04CC
:100010000C942F040C942F040C942F040C942F0494
:100020000C942F040C942F040C94600A0C94CF0AA7
:100030000C942F040C942F040C942F040C942F0474
:100040000C942F040C942F040C942F040C942F0464
:100050000C942F040C942F040C942F040C94010D79
:100060000C942F040C942F040C942F040C942F0444
:100070000C942F040C942F040C942F040C942F0434
:100080000C942F040C942F040C942F040C942F0424
:100090000C942F040C942F040C942F040C942F0414
:1000A0000C942F040C942F040C942F04496D616759
:1000B00065206973207374617274696E670A000049
:1000C000B00000A170E150964F26900F1D070C0064
:1000D0009669004AE44A0048444000806810000FD6
:1000E00099FB8F9DBDBBFB77D4D4DF1F1A1AFE7F0F
:1000F0005D5DFF805A0000A0A4AA0010BA3400FF82
:100100005953F3FF9B9B9EFFB9B996FF9595D19FDD
:10011000F4940FFC295F91FF1838F8FF9294FFFFC9
:1001200095D5F7BFB5DDD7F18F81F1F788C8F7799D
:10013000C6467909FD9B090196F8008281828050AC
:100140007162007756560076763700A2B7730107C2
:100150007206007827500073347400775176007F60
:1001600055F7004771100032477200736473001531
:10017000A2750061679400009F6060F4F2F6F200DF
:10018000000000003E5B4F5B3E3E6B4F6B3E1C3EF3
:100190007C3E1C183C7E3C181C577D571C1C5E7F07
:1001A0005E1C00183C1800FFE7C3E7FF0018241886
:1001B00000FFE7DBE7FF30483A060E2629792926BB
:1001C000407F050507407F05253F5A3CE73C5A7FA5
:1001D0003E1C1C08081C1C3E7F14227F22145F5FFB
:1001E000005F5F06097F017F006689956A60606035
:1001F000606094A2FFA29408047E040810207E2070
:100200001008082A1C08081C2A08081E10101010C4
:100210000C1E0C1E0C30383E3830060E3E0E06000A
:100220000000000000005F00000007000700147FCE
:10023000147F14242A7F2A12231308646236495635
:1002400020500008070300001C2241000041221C2E
:10025000002A1C7F1C2A08083E0808008070300015
:100260000808080808000060600020100804023E2A
:100270005149453E00427F4000724949494621416B
:10028000494D331814127F1027454545393C4A49DA
:100290004931412111090736494949364649492919
:1002A0001E00001400000040340000000814224129
:1002B0001414141414004122140802015909063EB2
:1002C000415D594E7C1211127C7F494949363E41AD
:1002D0004141227F4141413E7F494949417F0909CE
:1002E00009013E414151737F0808087F00417F4169
:1002F000002040413F017F081422417F40404040A0
:100300007F021C027F7F0408107F3E4141413E7FF7
:10031000090909063E4151215E7F091929462649EE
:1003200049493203017F01033F4040403F1F2040C5
:10033000201F3F4038403F631408146303047804CF
:10034000036159494D43007F414141020408102097
:10035000004141417F04020102044040404040000E
:100360000307080020545478407F28444438384418
:10037000444428384444287F385454541800087E94
:10038000090218A4A49C787F0804047800447D40E6
:10039000002040403D007F1028440000417F400085
:1003A0007C047804787C080404783844444438FC9D
:1003B0001824241818242418FC7C08040408485421
:1003C00054542404043F44243C4040207C1C2040DE
:1003D000201C3C4030403C44281028444C909090D5
:1003E0007C4464544C44000836410000007700000F
:1003F000004136080002010204023C2623263C1E6E
:10040000A1A161123A4040207A38545455592155DF
:100410005579412154547841215554784020545500
:1004200079400C1E5272123955555559395454544D
:100430005939555454580000457C410002457D42CD
:100440000001457C40F0292429F0F0282528F07C83
:10045000545545002054547C547C0A097F49324944
:100460004949323248484832324A4848303A414194
:10047000217A3A42402078009DA0A07D394444442E
:10048000393D4040403D3C24FF2424487E4943669A
:100490002B2FFC2F2BFF0929F620C0887E09032073
:1004A000545479410000447D413048484A32384034
:1004B00040227A007A0A0A727D0D19317D26292997
:1004C0002F28262929292630484D40203808080899
:1004D0000808080808382F10C8ACBA2F102834FABA
:1004E00000007B000008142A142222142A14089504
:1004F00000220095AA005500AAAA55AA55AA0000F4
:1005000000FF00101010FF00141414FF001010FF63
:1005100000FF1010F010F0141414FC001414F70075
:10052000FF0000FF00FF1414F404FC141417101F44
:1005300010101F101F1414141F00101010F00000D2
:1005400000001F101010101F10101010F0100000ED
:1005500000FF101010101010101010FF10000000FD
:10056000FF140000FF00FF00001F10170000FC0434
:10057000F414141710171414F404F40000FF00F717
:1005800014141414141414F700F71414141714107A
:10059000101F101F141414F4141010F010F00000A9
:1005A0001F101F0000001F14000000FC140000F0CA
:1005B00010F01010FF10FF141414FF141010101F6F
:1005C00000000000F010FFFFFFFFFFF0F0F0F0F080
:1005D000FFFFFF0000000000FFFF0F0F0F0F0F389D
:1005E000444438447C2A2A3E147E02020606027ED7
:1005F000027E0263554941633844443C04407E20F6
:100600001E2006027E020299A5E7A5991C2A492A06
:100610001C4C7201724C304A4D4D30304878483095
:10062000BC625A463D3E494949007E0101017E2A8D
:100630002A2A2A2A44445F444440514A44404044C0
:100640004A51400000FF0103E080FF000008086BF2
:100650006B083612362436060F090F0600001818EC
:100660000000001010003040FF0101001F01011EBA
:1006700000191D1712003C3C3C3C0000000000F03B
:10068000F89C8E8783878E9CF8F00000FEFF0303A2
:10069000030303070EFCF80000FEFF03030303033C
:1006A000070EFCF80000FFFF00000000000000FF44
:1006B000FF0000FEFF8383838383C7EE7C38000046
:1006C000F8FC0E07030303070EFCF800003F7FE071
:1006D000C08080C0E07F3FFFFF01010101010101F7
:1006E000FFFF0000FFFF0C0C0C0C1C3E77E3C10069
:1006F000007FFFC0C0C0C0C0E0703F1F00001F3FB0
:1007000070E0C0C0C0E0703F1F00007FFFC1C1C1EA
:10071000C1C1E3773E1C00001F3F70E0C0C0C0E0D5
:10072000703F1F000000000001FFFF01000000D526
:10073000F08D14A1C881CFD9F1AF200047616D655C
:10074000576F726C6420697320696E697469616C9B
:10075000697A696E670A000A002076616C75653AED
:1007600020004F626A65637420000A00783A200016
:100770004F626A65637420000A002C20464D3A20BF
:10078000002C2043493A200041533A20000A0041FE
:100790006464696E6720616464726573733A2000F3
:1007A000080B00020202000009040000010202001E
:1007B000000524001001052401010104240206059E
:1007C000240600010705810310004009040100020E
:1007D0000A000000070502024000000705830240EE
:1007E00000000403090412010002EF02014041234A
:1007F000368000010102030141726475696E6F2049
:100800004C4C430041726475626F79007E0D112477
:100810001FBECFEFDAE0DEBFCDBF11E0A0E0B1E058
:10082000EEE0F1E302C005900D92A437B107D9F7CD
:1008300026E0A4E7B1E001C01D92A035B207E1F7C0
:1008400014E0C7E0D4E004C02197FE010E945117D4
:10085000C630D107C9F70E94360E0C9485180C9447
:100860000000409112065091130641155105E1F028
:1008700020911606309117066091140670911506A6
:100880002617370788F4B9016F5F7F4F70931706FB
:1008900060931606FC0180819181220F331F240F83
:1008A000351FF90191838083089580E0E1EFF1E045
:1008B00081118FEF0024819381938193819303941D
:1008C000D1F70895E1EFF1E0A0E0B8E000800EBCC0
:1008D0008111012C1197A0FDFDCF0192B9F70DB444
:1008E0000895FC018091A001882311F13FB7F8948D
:1008F00082E08093E9002091F200822F90E01816A8
:10090000190614F481E090E0882339F0289844E631
:1009100040939F014091F1004083222339F02091C0
:10092000F200211103C02BE62093E8003FBF089599
:100930008FEF9FEF08952FB7F89483E08093E9003D
:100940009091E800892F807295FF04C09091F20089
:1009500080E4891B2FBF08958091970181110DC0FC
:1009600082E08093930184E0809394011092960139
:100970001092950181E08093970183E991E00895B9
:10098000CF93DF931F92CDB7DEB76983DC01ED9182
:10099000FC910280F381E02D41E050E0BE016F5FE9
:1009A0007F4F09950F90DF91CF91089583E0809359
:1009B000E9008091F200882319F08AE38093E8002F
:1009C00008950E949B0490E00895CF93DF931F92B7
:1009D000CDB7DEB7FC018485958597FD08C02FEF64
:1009E0003FEF358724870F90DF91CF910895CE0197
:1009F00001960E947104019719F4898190E0F3CF68
:100A00008FEF9FEFF0CF0F931F93CF93DF931F9242
:100A1000CDB7DEB78C01FC018485958597FF0BC0AF
:100A2000CE0101960E947104019771F4898190E0D2
:100A3000F80195878487F801848595850F90DF916B
:100A4000CF911F910F9108958FEF9FEFF1CFFC0190
:100A50008485958597FD0BC09FB7F89482E08093BD
:100A6000E9008091F2009FBF90E0019608959FB742
:100A7000F89482E08093E9008091F2009FBF90E0BB
:100A8000089540918D0150918E0120918B013091FC
:100A90008C0142175307B4F49091E8009570E1F38C
:100AA0009091E80092FD19C08093F10080918D0132
:100AB00090918E0101968F739927892B19F48EEFEF
:100AC0008093E80080918D0190918E010196909322
:100AD0008E0180938D0181E0089580E00895DF927A
:100AE000EF92FF920F931F93CF93DF93D82E8A013B
:100AF000EB017B01E40EF51ECE15DF0559F0D7FEA4
:100B000012C0FE0184910E94410521968111F4CF0B
:100B10000FEF1FEFC801DF91CF911F910F91FF9051
:100B2000EF90DF9008958881EECF0F931F93CF93BE
:100B3000DF931F92CDB7DEB782E0898342E450E0B5
:100B400060EA77E080E80E946F050E94AC04DC0157
:100B500012960D911C910115110589F0D801ED91A6
:100B6000FC910280F381E02DBE016F5F7F4FC801D1
:100B7000099597FD04C0F80100851185ECCF8981A6
:100B80000F90DF91CF911F910F910895615030F038
:100B90002091F100FC0120830196F8CF289884E68B
:100BA00080939F0108953FB7F894809187019091B9
:100BB0008801A0918901B0918A0126B5A89B05C042
:100BC0002F3F19F00196A11DB11D3FBFBA2FA92FCC
:100BD000982F8827BC01CD01620F711D811D911DC9
:100BE00042E0660F771F881F991F4A95D1F7089535
:100BF0008F929F92AF92BF92CF92DF92EF92FF922D
:100C00006B017C010E94D3054B015C01C114D1042E
:100C1000E104F104B9F00E94D305681979098A0941
:100C20009B09683E73408105910580F321E0C21A5B
:100C3000D108E108F10888EE880E83E0981EA11C17
:100C4000B11CE4CFFF90EF90DF90CF90BF90AF90BA
:100C50009F908F9008958F929F92AF92BF92CF9264
:100C6000DF92EF92FF920F931F93CF93DF936C016C
:100C70007B018A0180910C01882309F45CC080917A
:100C8000A001882309F457C08091920180FF05C01C
:100C90008091E00082608093E000E801B12C8AEF4F
:100CA000A82E93E0892E2AE3922E209711F4BB20E0
:100CB000D9F10E949B0481110AC0AA94AA20D9F1FB
:100CC00061E070E080E090E00E94F805EECF8C17C4
:100CD0001D0611F00CF08C2F9FB7F8948092E9005C
:100CE0002091E80025FD02C09FBFDFCF282F30E014
:100CF000C21BD30BF701815020F041914093F100CA
:100D0000FACFE20EF31EBB2021F09092E800B12C46
:100D1000EBCF8091E80085FDE7CF9092E800BB24FF
:100D2000B394209709F3F3CF5D9884E68093910103
:100D3000101611063CF081E090E0F6019383828367
:100D400010E000E0C801DF91CF911F910F91FF905B
:100D5000EF90DF90CF90BF90AF909F908F900895CD
:100D6000AF92BF92CF92DF92EF92FF920F931F93B9
:100D7000CF93DF936C017B018B01040F151FEB01F7
:100D80005E01AE18BF08C017D10759F06991D601AE
:100D9000ED91FC910190F081E02DC6010995892B20
:100DA00079F7C501DF91CF911F910F91FF90EF90DF
:100DB000DF90CF90BF90AF9008952D9A0895BC0119
:100DC00090E080E00C94F8058FB18095807F669B61
:100DD00088601C9B84600895CF93C82F0E94E4060E
:100DE000982F9C2381E09C1380E0CF91089580E0B0
:100DF0000C9462046F927F928F929F92AF92BF92F7
:100E0000CF92DF92EF92FF920F931F93CF93DF93D6
:100E10004C017B01C22F102F98E0A92EB12C642E1B
:100E2000669466946694712CCA0187709927892B01
:100E300079F5D40117962D913C91C7019927B901F5
:100E40000E942917269DF001279DF00D369DF00D7B
:100E500011248E0F9F1FD4011596ED91FC91E80F80
:100E6000F91F2081111112C0C095C223C083DF91E8
:100E7000CF911F910F91FF90EF90DF90CF90BF9097
:100E8000AF909F908F907F906F900895C22BEECF80
:100E9000D0E04770C42ED12C83E0660C771C8A9575
:100EA000E1F79E0101C0220F4A95EAF7012FA30145
:100EB000B701C4010E94FA06A301485F5F4FC50154
:100EC0008C199D0902C0D595C7958A95E2F7A7CFE1
:100ED0005F926F927F928F929F92AF92BF92CF92CA
:100EE000DF92EF92FF920F931F93CF93DF93EC016A
:100EF0006A30F1F48D859E859C878B878C892F8540
:100F00003889820F932F911D988B8F8781E090E015
:100F1000DF91CF911F910F91FF90EF90DF90CF90D5
:100F2000BF90AF909F908F907F906F905F9008954B
:100F3000AB84BC84693031F429E0A20EB11CBC86BC
:100F4000AB86E4CF3DEFA3163FEFB3060CF45DC0D4
:100F50008F819885A816B9060CF057C0CF84D88821
:100F60008DEFC8168FEFD8060CF44FC089859A858F
:100F7000C816D9060CF049C0603208F46FE780EE5D
:100F8000860F9FE9960F9A3118F49FEFC91AD90A74
:100F90008C3011F08B3119F42FEFC21AD20A8695DA
:100FA00034E0839FC00111249C0121543F4F7901FB
:100FB000912C812C162F1170F701E80DF91D54901A
:100FC00011112DC0352D3F70532E3501680C791C41
:100FD0008C81882361F001E089899A89892B09F045
:100FE00000E02FE0A601B301CE010E94FA060989B4
:100FF000252DA601B301CE010E94FA068FEF881AB3
:10100000980A94E089169104B9F68B8990E00496C9
:101010002B853C85820F931F9C878B8777CF5294BB
:101020008FE05822D2CF0F931F93CF93DF938C0181
:10103000D0E0C0E0F801EC0FFD1F6491662341F0A1
:1010400081EF95E00E946807892B11F02196F2CF7D
:10105000CE01DF91CF911F910F910895089590E0F7
:1010600080E0089560E070E0CB0108950895089550
:101070008CEA90E00C941308CF92DF92EF92FF92EB
:101080000F931F93CF938C016A017B0126E636ED07
:1010900043E254E4CB01B6010E94B216F801C481C8
:1010A0001816C4F126E636ED43E254ECC701B6014A
:1010B0000E94531587FD25C020E030E0A901C7013B
:1010C000B6010E94531587FF2DC0F7FAF094F7F888
:1010D000F094CE7FF801C48320E030E048EC52E485
:1010E000C701B6010E94B7160E94CA15F8017087A1
:1010F0006783CF911F910F91FF90EF90DF90CF907A
:10110000089596E6C92E96EDD92E93E2E92E94EC39
:10111000F92EDBCF86E6C82E86EDD82E83E2E82EA8
:1011200084E4F82EC160D6CFCF92DF92EF92FF9287
:101130000F931F93CF938C016A017B0126E636ED56
:1011400043E254E4CB01B6010E94B216F801C48117
:101150001816C4F126E636ED43E254ECC701B60199
:101160000E94531587FD25C020E030E0A901C7018A
:10117000B6010E94531587FF2DC0F7FAF094F7F8D7
:10118000F094CD7FF801C48320E030E048EC52E4D5
:10119000C701B6010E94B7160E94CA15F8017683EE
:1011A0006583CF911F910F91FF90EF90DF90CF90CB
:1011B000089596E6C92E96EDD92E93E2E92E94EC89
:1011C000F92EDBCF86E6C82E86EDD82E83E2E82EF8
:1011D00084E4F82EC260D6CF0F931F93CF93DF9392
:1011E000CDB7DEB729970FB6F894DEBF0FBECDBFDF
:1011F00087E191E09A8389831C821B8280EE8D8334
:1012000040E050E0BA018E010F5F1F4FC8010E94FD
:10121000940840E050E0BA01C8010E943C08B801BF
:1012200081E090E029960FB6F894DEBF0FBECDBFE7
:10123000DF91CF911F910F9108950F931F93CF933B
:10124000DF93CDB7DEB761970FB6F894DEBF0FBE60
:10125000CDBF87E191E09A8389831C821B8280EE57
:101260008D8340E050E0BA018E010F5F1F4FC8012F
:101270000E94940840E050E0BA01C8010E943C0876
:1012800087E191E09A83898388E08A8780E18B8770
:101290001C861D861C821B8240E050E0BA01C801FA
:1012A0000E94940840E050E0BA01C8010E943C0846
:1012B000B80183E090E061960FB6F894DEBF0FBEF0
:1012C000CDBFDF91CF911F910F910895CF93DF9301
:1012D00020917D0127FF1FC0EC016D817E8190E090
:1012E00080E00E9400162C8121FF13C020E030E036
:1012F00048EC52E40E94581520E030E040E85FE3FB
:101300000E94E714AB01BC01CE01DF91CF910C9498
:1013100094089058EBCFDF91CF910895FC01019094
:101320000020E9F73197AF01481B590BBC0181EF51
:1013300095E00C94B0068F929F92AF92BF920F935C
:101340001F93CF93DF93CDB7DEB7A1970FB6F89475
:10135000DEBF0FBECDBF19A2423008F44AE08E01B5
:101360000F5D1F4F842E912CB12CA12CA50194014F
:101370000E94C414E62FB901CA01EA30F4F4E05D1A
:10138000D801EE938D01232B242B252B79F790E0A8
:1013900080E0109719F0CD010E948E09A1960FB63A
:1013A000F894DEBF0FBECDBFDF91CF911F910F919B
:1013B000BF90AF909F908F900895E95CE1CF0F931D
:1013C0001F93CF93DF93CDB7DEB72D970FB6F89469
:1013D000DEBF0FBECDBF87E191E09A8389831C8277
:1013E0001B8280EE8D834AE959E966E972E48E0139
:1013F0000F5F1F4FC8010E94940840E050E0BA01FF
:10140000C8010E943C0887E191E09A83898388E0C3
:101410008A878B871C861D861C821B824AE959E9B4
:1014200066E972E4C8010E94940840E050E0BA0105
:10143000C8010E943C081D8288E591E00E948E0947
:10144000B80182E090E02D960FB6F894DEBF0FBE93
:10145000CDBFDF91CF911F910F910895CF92DF9271
:10146000EF92FF92CF93DF936C01990FEE08FF0884
:10147000F7FE19C06DE281EF95E00E946807EC016C
:1014800066277727CB016C197D098E099F094AE0F1
:101490000E949B098C0F9D1FDF91CF91FF90EF90D1
:1014A000DF90CF9008954AE0C701B601DF91CF9158
:1014B000FF90EF90DF90CF900C949B090C94AE14AA
:1014C0001F920F920FB60F9211248F939F938091CA
:1014D000E1009091E100937F9093E10083FF0FC0C2
:1014E0001092E90091E09093EB001092EC0092E3EF
:1014F0009093ED001092A00198E09093F00082FF8D
:1015000022C093E09093E9009091F200992319F0A2
:101510009AE39093E80090919101992341F0909182
:101520009101915090939101911101C05D9A909118
:101530009F01992341F090919F01915090939F01B9
:10154000911101C0289A84FF18C08091E2008E7E1C
:1015500081608093E2008091E1008F7E8093E100C2
:10156000809192018E7E8061809392019F918F91F4
:101570000F900FBE0F901F90189580FFF7CF8091AE
:10158000E2008E7E80618093E2008091E1008E7E99
:101590008093E100809192018E7E8160E5CF1F9261
:1015A0000F920FB60F921124CF92DF92EF92FF921B
:1015B0000F931F932F933F934F935F936F937F935B
:1015C0008F939F93AF93BF93EF93FF93CF93DF934B
:1015D000CDB7DEB76C97DEBFCDBF1092E90080912A
:1015E000E80083FF25C068E0CE0145960E94C6054D
:1015F00082EF8093E8008D8987FF39C09091E800E1
:1016000090FFFCCF982F907609F034C19E894F89C6
:10161000588D2F89F88C911131C0803861F58091F7
:1016200090018093F1001092F1008EEF8093E8001A
:101630006C960FB6F894DEBF0FBECDBFDF91CF9191
:10164000FF91EF91BF91AF919F918F917F916F919A
:101650005F914F913F912F911F910F91FF90EF90CC
:10166000DF90CF900F900FBE0F901F9018959EEFB8
:101670009093E800C7CF1092F100D5CF913059F484
:101680008111D3CF4130510581F6809190018D7F3A
:1016900080939001CACF933049F48111C6CF413075
:1016A000510519F6809190018260F2CF953041F496
:1016B0008091E80080FFFCCF20682093E300B5CF45
:1016C000963009F0A9C00B8D1C8D22E01092E90024
:1016D00010928E0110928D01F2122EC010928C0188
:1016E00010928B010E9495051F8299E09983FA82DE
:1016F00091E09E8390EA98879AEF998720918D01D7
:1017000030918E01275F3F4F3C832B838D83109256
:10171000E90010928E0110928D0110938C010093BC
:101720008B0149E050E0BE016F5F7F4F80E00E9477
:101730006F050E94950579CF10938C0100938B0162
:101740000E94AC04DC0112960D911C91011511054B
:1017500009F451C1D801ED91FC910480F581E02D8F
:10176000BE016B5E7F4FC8010995009709F03EC12D
:10177000F80100851185EACFF3E0FF120EC08F89D2
:10178000882309F440C0823061F440E867E084E0D7
:1017900098E00E944B0D811148CF81E28093EB00CD
:1017A00047CF813029F440E86BE088EF97E0F1CF34
:1017B000833099F70E94AC04DC011296ED90FC9006
:1017C0008E010F5F1F4F6801E114F10479F0D7011A
:1017D000ED91FC910680F781E02DB801C7010995D4
:1017E000080F111DF701E084F184EECFD8011C929F
:1017F000F60101900020E9F73197BF016C197D09CE
:1018000040E0C601C6CF62EE77E0FB01449150E0B4
:1018100080E80E946F0509CF973009F4BECF983059
:1018200021F481E08093F10000CF993009F0FDCEE2
:10183000837009F0B2CFE4E3F1E081E031E096E3B8
:101840002191222371F08093E9003093EB00DF01B6
:1018500011972C912093EC009093ED008F5F8730CF
:1018600079F78EE78093EA001092EA008F898093DF
:10187000A001DBCE8B8D9C8D1092E90010928E0121
:1018800010928D0190938C0180938B01898D811131
:1018900092C08E899D89913A49F4813209F07DCFB9
:1018A00047E050E065E071E080E0B3CF913209F0AD
:1018B00074CF833269F48F89988DB0E0A0E0809373
:1018C000010190930201A0930301B0930401ADCEF6
:1018D000803269F48091E80082FFFCCF67E085E008
:1018E00091E00E94C6058BEF8093E8009ECE823285
:1018F00009F09BCE8F8980930C01EEEFFFE7859175
:1019000094918B3F9C4D51F1E0E0F8E0809105010E
:1019100090910601A0910701B0910801803B94408D
:10192000A105B105F1F480910C0180FD1AC0EE3FD4
:101930008AE0F80789F587E797E7918380838091AC
:10194000600080938F0188E19BE00FB6F894A89522
:10195000809360000FBE9093600067CEEEEFFAE0D8
:10196000D5CF808191818737974709F05ECEA895C2
:101970008091600088618093600080918F018093E6
:101980006000EE3F2AE0F20789F08091FE0A909114
:10199000FF0A9183808349CE8081918187379807A0
:1019A00051F29093FF0A8093FE0AC5CF1092FF0A6E
:1019B0001092FE0A3ACE0E94AC04DC0112960D9100
:1019C0001C910115110509F4E8CED801ED91FC91A7
:1019D0000190F081E02DBE016B5E7F4FC80109953B
:1019E000811123CEF80100851185EBCF1816190659
:1019F0000CF41BCED2CEF1E0FF12BECE66EE77E045
:101A000004CF1F920F920FB60F9211242F933F9382
:101A10008F939F93AF93BF938091830190918401A3
:101A2000A0918501B09186013091820123E0230FBE
:101A30002D3758F50196A11DB11D20938201809389
:101A4000830190938401A0938501B09386018091D6
:101A5000870190918801A0918901B0918A01019636
:101A6000A11DB11D8093870190938801A0938901E6
:101A7000B0938A01BF91AF919F918F913F912F9128
:101A80000F900FBE0F901F90189526E8230F029617
:101A9000A11DB11DD2CFEF92FF920F931F93CF9351
:101AA000DF93F82E192FE62E042F81E0860F880F82
:101AB0000E94410583E00E944105CF2DD12FEC0EFD
:101AC000FD2EF11CCE15DF05B9F007FF13C0FE0196
:101AD00084910E944105182F80E00E9441058123D6
:101AE00021968111EFCFDF91CF911F910F91FF9040
:101AF000EF9008958881EDCF81E0F5CFCF92DF920E
:101B0000FF920F931F93CF93DF931092A401109233
:101B1000A30188EE93E0A0E0B0E08093A50190934C
:101B2000A601A093A701B093A8018EE391E0909342
:101B3000A2018093A1018FEF9FEF9093AE0180935C
:101B4000AD011092F4051092F30580E591E09093B9
:101B5000F2058093F10581EF91E09093F705809372
:101B6000F60580E890E09093F9058093F80580E40D
:101B700090E09093FB058093FA0585E0809305063D
:101B800081E0809304061092FF051092FE051092EA
:101B90000106109200061092FD051092FC0581E0EE
:101BA00090E090930306809302061092F505109240
:101BB0000D0610920C0610920F0610920E0610924F
:101BC0001106109210061092070610920606109247
:101BD00009061092080610920B0610920A0610923F
:101BE0001306109212061092150610921406109207
:101BF000170610921606CFE1D6E00CE416E087E156
:101C0000C82E81E0D82E90EEF92ED982C8821B8290
:101C10001A82FC8240E050E0BA01CE010E94940892
:101C200040E050E0BA01CE010E943C0829960C1712
:101C30001D0759F710921C0610921B0685E090E0D4
:101C400090931E0680931D06809318068AE090E00C
:101C50000E94571790931A0680931906DF91CF912F
:101C60001F910F91FF90DF90CF900895CF93DF9356
:101C700000D000D000D0CDB7DEB7789484B58260B4
:101C800084BD84B5816084BD85B5826085BD85B520
:101C9000816085BD80916E00816080936E0010929E
:101CA0008100809181008260809381008091810019
:101CB00081608093810080918000816080938000AA
:101CC0008091910082608093910080919100816069
:101CD000809391008091900081608093900080912A
:101CE000C10084608093C1008091C10082608093B4
:101CF000C1008091C10081608093C1008091C300C8
:101D000081608093C3008091C00082608093C00096
:101D10008091C20081608093C20080917A008460CB
:101D200080937A0080917A00826080937A0080911B
:101D30007A00816080937A0080917A008068809335
:101D40007A001092A001109290011092920180915D
:101D5000D70081608093D70080EA8093D80089B54E
:101D6000806189BD89B5826089BD09B400FEFDCF5F
:101D700061E070E080E090E00E94F8058091D8007A
:101D80008F7C80618093D8008091E000807F809379
:101D9000E0008091E1008E7E8093E1008DE08093F1
:101DA000E200559A209A81EC80937C0085B1806F87
:101DB00085B984B1877E84B984B1876E84B95E9A0F
:101DC0005F988AB1806D8AB9769A6E9881B3806F78
:101DD00081BB899880B38D7080BB80E58CBD81E02C
:101DE0008DBD85E090E00E94DF065F9A85E090E07F
:101DF0000E94DF065E985C98EFE2F7E08CE397E0E4
:101E000024912EBD00000DB407FEFDCF31968E1734
:101E10009F07B1F75C9A81E8809364008091650028
:101E20008160809365000E94F70680E80E94EC06BE
:101E30008823A9F05C9885EA8EBD00000DB407FEEA
:101E4000FDCF5C9A2E982F982D9880916400806227
:101E50008093640081E083BF889513BEFCCF84E04B
:101E60000E94EC06882309F448C02D9884E80E945B
:101E7000EC068823E1F00E94DD0688EC90E00E94E9
:101E8000DF062F9882E090E00E94AE148F3F29F089
:101E90006FEF82E090E00E94B61484EF91E00E9420
:101EA000DF062F9A84E80E94EC068111FBCF84E1C3
:101EB0000E94EC068823E1F00E94DD0688EC90E0A9
:101EC0000E94DF062E9882E090E00E94AE148823E4
:101ED00029F060E082E090E00E94B61484EF91E087
:101EE0000E94DF062E9A84E10E94EC068111FBCF4E
:101EF00088EC90E00E94DF06B2CF0E94DD0682E00F
:101F000090E00E945E0A882309F455C03E9A3F9AE9
:101F100081E090E00E945E0A282F2470722E81FFDB
:101F200011C021112E9801EF1FEFB8E0AB2EB12C9C
:101F300080E40E94EC06882309F440C02E9A2F9A70
:101F40000E94DD0682E390E00E94DF060E94E40624
:101F50008111F8CF0E94550410927B0110927A01F2
:101F6000109279011092780188EE809300018CE341
:101F700097E00E9413082091100630911106E0911D
:101F80000C06F0910D0690E080E02817390709F063
:101F900031C120910A0630910B06E0910606F091BE
:101FA000070690E080E02817390709F427C111924D
:101FB00011920196F8CF3E983F98AACF772029F04A
:101FC0000430110511F42E9A2F9881E00E946204CA
:101FD000980117FF04C022273327201B310B2770DD
:101FE0003327C80117FD0796A3E095958795AA9515
:101FF000E1F717FF05C00197A501421B530B9A019A
:10200000BC017695762F6627779567956F587D4F3B
:10201000F12CE12C2501421A530A8E3F5FEF950700
:10202000C1F1DB01A058B10950E040E0F701E158EF
:10203000F94F4F018F3F980781F0F401E40FF51F2E
:10204000E491022E01C0EE0F0A94EAF75496FC9137
:102050005497EF2B5496EC9354972115310599F032
:10206000F401E40FF51FE4916B01C40ED51EF0E0FE
:102070001F01042C02C0359427940A94E2F7F6015C
:1020800064882628248A4F5F5F4F11964835510592
:1020900089F60196F8E5EF0EF11C60587F4F40EB92
:1020A000E416F10409F0B9CF0E94F7068FE090E042
:1020B0000E94DF060F5F1F4F0931110509F038CF6D
:1020C000772011F02F9A2D9880E991E00E94DF0689
:1020D0000E94DD0681E090E00E945E0A80FF32CF20
:1020E0008AE090E00E945E0A9FEF980F9E3F08F002
:1020F00029CF22E330E0309379012093780128E35F
:1021000030E030937B0120937A010BE010E075E022
:10211000E72EE0E1FE2E8D3081F040917A01509162
:102120007B018A30C9F41092790110927801485FDE
:102130005F4F50937B0140937A01C8010E945E0A71
:102140000F5F1F4F0131110531F70E94F70688EE2E
:1021500093E00E94DF06F6CE20907801309079015E
:102160008E9DF0011124E158FE4FB101B12C85E0A4
:10217000A12CB81621F0CF010196A490FC01D12C1E
:10218000C12C9A2D9170992E60387105D0F4CA0136
:102190008C0D9D1D80349105A0F421E081FD24E08B
:1021A00080FD220F82FD2295887FF89ED0011124A8
:1021B000A60F822EAF50BE4F8C919920C1F0822B7A
:1021C0008C93A6948FEFC81AD80A98E0C916D10448
:1021D000C1F6B3946F5F7F4FA6E0BA12C8CF9101EA
:1021E0002A5F3F4F3093790120937801A6CF8094E6
:1021F0008821E6CF119211920196C7CEEFE2F1E06D
:10220000FE83ED83812C912C54012401350162E081
:10221000262E312C20FC0DC020E030E040E850E4B8
:10222000C301B2010E94E7142B013C01812C912CC7
:102230005401AD81BE81ED91BE83AD83F0E0EE0F20
:10224000FF1FEB5DFE4F0190F081E02D09956B01C2
:102250007C01B501A401C6010E949408B301A2014A
:10226000C6010E943C08B2E0EB16F10409F456C026
:10227000E3E0EE16F10409F482C0EA94EF2871F469
:10228000DC82CB82D601ED91FC910190F081E02DB2
:10229000C6010995CE0103960E94310420E030E08A
:1022A00040E850E4C501B4010E94E7144B015C0111
:1022B000FFEF2F1A3F0A26E02216310409F0AACFB9
:1022C0006624639430E0A32E30E0B32E7724739419
:1022D0008091810181110AC00E94E40680937E01F1
:1022E00080E40E94EC068111709281018FB7F8940E
:1022F0004091830150918401609185017091860124
:102300008FBF80917601882309F463C01092760113
:10231000A114B104E9F20E940000DACFD601ED91D8
:10232000FC910190F081E02DC6010995DA82C98205
:10233000CE0101960E9431042091060630910706D5
:102340002115310509F4AACF80910A0690910B0658
:1023500040910806509109068417950708F09ECF12
:10236000AC014F5F5F4F50930B0640930A06880FF6
:10237000991F820F931FFC01D182C0828FCFD6019B
:10238000ED91FC910190F081E02DC6010995DA8272
:10239000C982CE0101960E94310420910C06309131
:1023A0000D062115310509F479CF80911006909121
:1023B000110640910E0650910F068417950708F0FC
:1023C0006DCFAC014F5F5F4F5093110640931006E5
:1023D000CECF80917701942F981B892F9091000187
:1023E000891740F48F5F891708F092CF63BE8895F4
:1023F00013BE8ECF70927601409377018091740165
:10240000909175010196909375018093740180916C
:102410008101882309F47CCF109281010E94E40697
:1024200080937E0180E80E94EC0610E0811110E8A4
:1024300080E10E94EC068111106480E20E94EC06AB
:102440008111106280E40E94EC068111106184E029
:102450000E94EC068111186088E00E94EC06811150
:10246000146000917D010095012300937C0110937D
:102470007D010E94550410927B0110927A01109206
:102480007901109278011092FF051092FE051092CA
:10249000FD051092FC05109201061092000607FF40
:1024A00081C000917F01109180010D3111050CF068
:1024B00079C082E090E00E9457177C010F5F1F4FA8
:1024C0002AE0209FC001219F900D1124D7018D93F8
:1024D0009C938FE897E00E941308B70190E080E09A
:1024E0004AE00E949B098DE897E00E9413088091C2
:1024F0001D0690911E0600911B0610911C06801768
:10250000910799F580911806800F912F911D8115E3
:10251000B0E49B0708F043C1880F991F009709F4A6
:1025200041C10E9457176C018090190690901A06BD
:10253000A801440F551FB4010E947C188114910416
:1025400019F0C4010E94F317D0921A06C09219061E
:102550008091180620911D0630911E06820F932F40
:10256000911D90931E0680931D0680911B069091ED
:102570001C069C01220F331FE0911906F0911A06E8
:10258000E20FF31FF182E082019690931C06809384
:102590001B0680917F0190918001019690938001AC
:1025A00080937F0180917C0186FF8FC0E0907F0146
:1025B000F0908001E2E0EE16F1040CF486C0E091A8
:1025C0001906F0911A0680911B0690911C06892B22
:1025D00009F4EBC08081918120911D0630911E0687
:1025E00021503109912C812C8216930660F56401EB
:1025F000CC0CDD1C4191519184010F5F1F4F481796
:10260000590709F0D5C00E94F317809119069091DF
:102610001A0640911D0650911E0648195909440F8B
:10262000551FB801660F771F680F791F8C0D9D1D10
:102630000E947C1880911B0690911C060197909334
:102640001C0680931B0680911D0690911E0600912A
:102650001B0610911C0620911806BC01601B710B13
:1026600030E0A901440F551F641775073CF1821B28
:10267000930B90931E0680931D068115F0E49F072F
:1026800008F098C0880F991F009709F496C00E941F
:1026900057176C018090190690901A06A801440FF4
:1026A000551FB4010E947C188114910419F0C401D3
:1026B0000E94F317D0921A06C092190621E0E21A7E
:1026C000F108F0928001E0927F0188E897E00E9493
:1026D000130880911D0690911E060E942E0A81E823
:1026E00097E00E94130880911B0690911C060E949F
:1026F0002E0A8AE797E00E94130800E01AE00150D2
:102700001109C8010E9457170097C9F30E94F317D7
:10271000C8010E942E0A88E797E00E9413080FE183
:1027200016E0912C812C8091160690911706881640
:10273000990608F0DCC080E797E00E941308C40106
:102740000E942E0A8CE697E00E941308D801149686
:102750008C91149715966D917C9190E081FF30C01B
:1027600080E00E94001620E030E048EC52E40E9435
:1027700058156B017C01AC019B010E942417882332
:1027800021F188E691E00E948E098AE697E00E9496
:102790001308BFEF8B1A9B0A075F1F4FC4CF8FEF41
:1027A0009FEFBFCE81E090E0BCCE90E080E014CF00
:1027B00048011ACF8FEF9FEF6ACF81E090E067CF9B
:1027C00080E00E9400169058CECF16012701E894B1
:1027D00057F82FEF3FEF4FE75FE7C201B1010E94CB
:1027E000241781110DC02FEF3FEF4FE75FE7C201C4
:1027F000B1010E94531518161CF48CE691E0C3CF6A
:102800002FEF3FEF4FE75FE4C701B6010E94B2161A
:1028100018161CF480E791E0B6CF2FEF3FEF4FE79B
:102820005FECC701B6010E94531587FDF3CF20E08E
:1028300030E0A901C701B6010E94531587FF09C006
:102840006DE281EF95E00E946807F7FAF094F7F8DF
:10285000F0942AE037ED43EA5BE3C701B6010E943A
:10286000E7141B012C010E94D1156B017C010E9411
:1028700000169B01AC01C201B1010E94E6141B01CC
:102880002C014AE0C701B6010E949B096EE281EF6C
:1028900095E00E94680720E030E040E251E4C20188
:1028A000B1010E94B7161B012C010E94D1156B01CA
:1028B000F12CE12C4AE0C701B6010E949B09C70137
:1028C000B6010E9400169B01AC01C201B1010E9439
:1028D000E61420E030E040E251E40E94B7160E9486
:1028E000D11590E080E04AE00E949B094ECF10E0B5
:1028F00000E080911B0690911C06081719075CF5F3
:1029000082E697E00E941308C8010E942E0A89E51A
:1029100097E00E94130880911B0690911C06F0E03E
:10292000E0E00817190760F4E0911906F0911A0623
:10293000C801880F991FE80FF91F0190F081E02D61
:10294000808191810E942E0A87E597E00E941308FA
:102950000F5F1F4FCECF0E94F706DACCF999FECF5A
:1029600092BD81BDF89A992780B50895262FF999CF
:10297000FECF1FBA92BD81BD20BD0FB6F894FA9A62
:10298000F99A0FBE01960895A1E21A2EAA1BBB1B4D
:10299000FD010DC0AA1FBB1FEE1FFF1FA217B3072B
:1029A000E407F50720F0A21BB30BE40BF50B661F41
:1029B000771F881F991F1A9469F760957095809505
:1029C00090959B01AC01BD01CF0108955058BB27E4
:1029D000AA270E94FE140C9478160E946A1638F0FA
:1029E0000E94711620F039F49F3F19F426F40C94DC
:1029F00067160EF4E095E7FB0C946116E92F0E9430
:102A0000891658F3BA17620773078407950720F0F1
:102A100079F4A6F50C94AB160EF4E0950B2EBA2FB4
:102A2000A02D0B01B90190010C01CA01A0011124D4
:102A3000FF27591B99F0593F50F4503E68F11A1680
:102A4000F040A22F232F342F4427585FF3CF469511
:102A500037952795A795F0405395C9F77EF41F1633
:102A6000BA0B620B730B840BBAF09150A1F0FF0FFD
:102A7000BB1F661F771F881FC2F70EC0BA0F621FE9
:102A8000731F841F48F4879577956795B795F795D9
:102A90009E3F08F0B0CF9395880F08F09927EE0F6E
:102AA0009795879508950E943D1608F481E0089552
:102AB0000E946C150C9478160E94711658F00E94B2
:102AC0006A1640F029F45F3F29F00C946116511109
:102AD0000C94AC160C9467160E94891668F399231F
:102AE000B1F3552391F3951B550BBB27AA2762170A
:102AF0007307840738F09F5F5F4F220F331F441F17
:102B0000AA1FA9F335D00E2E3AF0E0E832D091504A
:102B10005040E695001CCAF72BD0FE2F29D0660F37
:102B2000771F881FBB1F261737074807AB07B0E87A
:102B300009F0BB0B802DBF01FF2793585F4F3AF080
:102B40009E3F510578F00C9461160C94AC165F3FD3
:102B5000E4F3983ED4F3869577956795B795F79506
:102B60009F5FC9F7880F911D9695879597F90895EE
:102B7000E1E0660F771F881FBB1F6217730784078A
:102B8000BA0720F0621B730B840BBA0BEE1F88F799
:102B9000E09508950E94D1156894B1110C94AC167B
:102BA00008950E94911688F09F5798F0B92F9927A1
:102BB000B751B0F0E1F0660F771F881F991F1AF028
:102BC000BA95C9F714C0B13091F00E94AB16B1E0CC
:102BD00008950C94AB16672F782F8827B85F39F0CB
:102BE000B93FCCF3869577956795B395D9F73EF4C1
:102BF00090958095709561957F4F8F4F9F4F089569
:102C0000E89409C097FB3EF4909580957095619586
:102C10007F4F8F4F9F4F9923A9F0F92F96E9BB273C
:102C20009395F695879577956795B795F111F8CFB8
:102C3000FAF4BB0F11F460FF1BC06F5F7F4F8F4F23
:102C40009F4F16C0882311F096E911C0772321F019
:102C50009EE8872F762F05C0662371F096E8862FB1
:102C600070E060E02AF09A95660F771F881FDAF708
:102C7000880F9695879597F90895990F0008550F35
:102C8000AA0BE0E8FEEF16161706E807F907C0F0F2
:102C900012161306E407F50798F0621B730B840BFA
:102CA000950B39F40A2661F0232B242B252B21F4D4
:102CB00008950A2609F4A140A6958FEF811D811D74
:102CC000089597F99F6780E870E060E008959FEFAE
:102CD00080EC089500240A941616170618060906B3
:102CE000089500240A941216130614060506089582
:102CF000092E0394000C11F4882352F0BB0F40F40A
:102D0000BF2B11F460FF04C06F5F7F4F8F4F9F4F49
:102D1000089557FD9058440F551F59F05F3F71F0CB
:102D20004795880F97FB991F61F09F3F79F0879532
:102D30000895121613061406551FF2CF4695F1DFBB
:102D400008C0161617061806991FF1CF869571054B
:102D5000610508940895E894BB2766277727CB017F
:102D600097F908950E943D1608F48FEF08950E9488
:102D7000CA160C9478160E946A1638F00E947116D2
:102D800020F0952311F00C9461160C946716112411
:102D90000C94AC160E94891670F3959FC1F3950FA1
:102DA00050E0551F629FF001729FBB27F00DB11DCF
:102DB000639FAA27F00DB11DAA1F649F6627B00D5F
:102DC000A11D661F829F2227B00DA11D621F739F48
:102DD000B00DA11D621F839FA00D611D221F749F56
:102DE0003327A00D611D231F849F600D211D822F9D
:102DF000762F6A2F11249F5750409AF0F1F08823C4
:102E00004AF0EE0FFF1FBB1F661F771F881F9150F0
:102E10005040A9F79E3F510580F00C9461160C9428
:102E2000AC165F3FE4F3983ED4F3869577956795AB
:102E3000B795F795E7959F5FC1F7FE2B880F911D1A
:102E40009695879597F908950E943D16880B990BE2
:102E5000089597FB072E16F4009407D077FD09D04C
:102E60000E943D1707FC05D03EF4909581959F4F39
:102E70000895709561957F4F0895AA1BBB1B51E182
:102E800007C0AA1FBB1FA617B70710F0A61BB70BDA
:102E9000881F991F5A95A9F780959095BC01CD017F
:102EA0000895EE0FFF1F0590F491E02D09940F9304
:102EB0001F93CF93DF938230910510F482E090E06E
:102EC000E0914E06F0914F0630E020E0B0E0A0E047
:102ED000309799F42115310509F44AC0281B390BA4
:102EE00024303105D8F58A819B816115710589F1FE
:102EF000FB0193838283FE0111C0408151810281D5
:102F0000138148175907E0F04817590799F41097AB
:102F100061F012960C93129713961C933296CF0180
:102F2000DF91CF911F910F91089500934E0610935A
:102F30004F06F4CF2115310551F04217530738F0F1
:102F4000A901DB019A01BD01DF01F801C1CFEF0149
:102F5000F9CF90934F0680934E06CDCFFE01E20F3E
:102F6000F31F819391932250310939832883D7CF5E
:102F700020914C0630914D06232B41F420910F01F6
:102F80003091100130934D0620934C0620910D0195
:102F900030910E012115310541F42DB73EB7409116
:102FA000110150911201241B350BE0914C06F09158
:102FB0004D06E217F307A0F42E1B3F0B2817390725
:102FC00078F0AC014E5F5F4F2417350748F04E0F85
:102FD0005F1F50934D0640934C06819391939FCF72
:102FE000F0E0E0E09CCFCF93DF930097E9F0FC01A5
:102FF000329713821282A0914E06B0914F06ED01D6
:1030000030E020E01097A1F420813181820F931FDE
:1030100020914C0630914D062817390709F061C000
:10302000F0934D06E0934C06DF91CF910895EA01AD
:10303000CE17DF07E8F54A815B819E0141155105F6
:10304000B1F7E901FB83EA8349915991C40FD51F78
:10305000EC17FD0761F4808191810296840F951F22
:10306000E90199838883828193819B838A83F0E03D
:10307000E0E012968D919C9113970097B9F52D91F0
:103080003C911197CD010296820F931F20914C061F
:1030900030914D062817390739F6309751F51092BF
:1030A0004F0610924E06B0934D06A0934C06BCCF2F
:1030B000D383C28340815181840F951FC817D907DC
:1030C00061F44E5F5F4F88819981480F591F51838A
:1030D00040838A819B81938382832115310509F086
:1030E000B0CFF0934F06E0934E069ECFFD01DC017A
:1030F000C0CF13821282D7CFFB01DC0102C0019046
:0E3100000D9241505040D8F70895F894FFCF3B
:10310E0010FFFFFFFF00E100000000000000005074
:10311E0006800000000000380866093708360836B9
:10312E0008360836083208DF091D09EC08020202CB
:10313E0001020100C1808100000000000000C004F7
:10314E002B06E104D6042705E50403050000000064
:10315E006807B0062F082E084D616B696E672061F7
:10316E0020627269636B0A006E616E00696E6600A2
:04317E006F76660002
:00000001FF
